{
  "_format": "hh-sol-artifact-1",
  "contractName": "AssetTokenization",
  "sourceName": "contracts/token-managemnt.sol",
  "abi": [
    {
      "inputs": [
        {
          "internalType": "string",
          "name": "name",
          "type": "string"
        },
        {
          "internalType": "string",
          "name": "symbol",
          "type": "string"
        }
      ],
      "stateMutability": "nonpayable",
      "type": "constructor"
    },
    {
      "inputs": [],
      "name": "AccessControlBadConfirmation",
      "type": "error"
    },
    {
      "inputs": [
        {
          "internalType": "address",
          "name": "account",
          "type": "address"
        },
        {
          "internalType": "bytes32",
          "name": "neededRole",
          "type": "bytes32"
        }
      ],
      "name": "AccessControlUnauthorizedAccount",
      "type": "error"
    },
    {
      "inputs": [
        {
          "internalType": "address",
          "name": "sender",
          "type": "address"
        },
        {
          "internalType": "uint256",
          "name": "tokenId",
          "type": "uint256"
        },
        {
          "internalType": "address",
          "name": "owner",
          "type": "address"
        }
      ],
      "name": "ERC721IncorrectOwner",
      "type": "error"
    },
    {
      "inputs": [
        {
          "internalType": "address",
          "name": "operator",
          "type": "address"
        },
        {
          "internalType": "uint256",
          "name": "tokenId",
          "type": "uint256"
        }
      ],
      "name": "ERC721InsufficientApproval",
      "type": "error"
    },
    {
      "inputs": [
        {
          "internalType": "address",
          "name": "approver",
          "type": "address"
        }
      ],
      "name": "ERC721InvalidApprover",
      "type": "error"
    },
    {
      "inputs": [
        {
          "internalType": "address",
          "name": "operator",
          "type": "address"
        }
      ],
      "name": "ERC721InvalidOperator",
      "type": "error"
    },
    {
      "inputs": [
        {
          "internalType": "address",
          "name": "owner",
          "type": "address"
        }
      ],
      "name": "ERC721InvalidOwner",
      "type": "error"
    },
    {
      "inputs": [
        {
          "internalType": "address",
          "name": "receiver",
          "type": "address"
        }
      ],
      "name": "ERC721InvalidReceiver",
      "type": "error"
    },
    {
      "inputs": [
        {
          "internalType": "address",
          "name": "sender",
          "type": "address"
        }
      ],
      "name": "ERC721InvalidSender",
      "type": "error"
    },
    {
      "inputs": [
        {
          "internalType": "uint256",
          "name": "tokenId",
          "type": "uint256"
        }
      ],
      "name": "ERC721NonexistentToken",
      "type": "error"
    },
    {
      "inputs": [],
      "name": "EnforcedPause",
      "type": "error"
    },
    {
      "inputs": [],
      "name": "ExpectedPause",
      "type": "error"
    },
    {
      "inputs": [],
      "name": "ReentrancyGuardReentrantCall",
      "type": "error"
    },
    {
      "anonymous": false,
      "inputs": [
        {
          "indexed": true,
          "internalType": "address",
          "name": "owner",
          "type": "address"
        },
        {
          "indexed": true,
          "internalType": "address",
          "name": "approved",
          "type": "address"
        },
        {
          "indexed": true,
          "internalType": "uint256",
          "name": "tokenId",
          "type": "uint256"
        }
      ],
      "name": "Approval",
      "type": "event"
    },
    {
      "anonymous": false,
      "inputs": [
        {
          "indexed": true,
          "internalType": "address",
          "name": "owner",
          "type": "address"
        },
        {
          "indexed": true,
          "internalType": "address",
          "name": "operator",
          "type": "address"
        },
        {
          "indexed": false,
          "internalType": "bool",
          "name": "approved",
          "type": "bool"
        }
      ],
      "name": "ApprovalForAll",
      "type": "event"
    },
    {
      "anonymous": false,
      "inputs": [
        {
          "indexed": true,
          "internalType": "address",
          "name": "owner",
          "type": "address"
        },
        {
          "indexed": true,
          "internalType": "uint256",
          "name": "assetId",
          "type": "uint256"
        },
        {
          "indexed": false,
          "internalType": "string",
          "name": "assetType",
          "type": "string"
        },
        {
          "indexed": false,
          "internalType": "string",
          "name": "metadataURI",
          "type": "string"
        },
        {
          "indexed": false,
          "internalType": "uint256",
          "name": "valuation",
          "type": "uint256"
        }
      ],
      "name": "AssetRegistered",
      "type": "event"
    },
    {
      "anonymous": false,
      "inputs": [
        {
          "indexed": true,
          "internalType": "uint256",
          "name": "assetId",
          "type": "uint256"
        },
        {
          "indexed": false,
          "internalType": "enum AssetTokenization.AssetStatus",
          "name": "newStatus",
          "type": "uint8"
        }
      ],
      "name": "AssetStatusChanged",
      "type": "event"
    },
    {
      "anonymous": false,
      "inputs": [
        {
          "indexed": true,
          "internalType": "address",
          "name": "from",
          "type": "address"
        },
        {
          "indexed": true,
          "internalType": "address",
          "name": "to",
          "type": "address"
        },
        {
          "indexed": true,
          "internalType": "uint256",
          "name": "assetId",
          "type": "uint256"
        },
        {
          "indexed": false,
          "internalType": "uint256",
          "name": "price",
          "type": "uint256"
        }
      ],
      "name": "AssetTransferred",
      "type": "event"
    },
    {
      "anonymous": false,
      "inputs": [
        {
          "indexed": false,
          "internalType": "uint256",
          "name": "count",
          "type": "uint256"
        },
        {
          "indexed": false,
          "internalType": "bool",
          "name": "status",
          "type": "bool"
        }
      ],
      "name": "BatchVerificationCompleted",
      "type": "event"
    },
    {
      "anonymous": false,
      "inputs": [
        {
          "indexed": true,
          "internalType": "uint256",
          "name": "assetId",
          "type": "uint256"
        },
        {
          "indexed": false,
          "internalType": "bool",
          "name": "isCompliant",
          "type": "bool"
        }
      ],
      "name": "ComplianceUpdated",
      "type": "event"
    },
    {
      "anonymous": false,
      "inputs": [
        {
          "indexed": true,
          "internalType": "address",
          "name": "by",
          "type": "address"
        }
      ],
      "name": "ContractPaused",
      "type": "event"
    },
    {
      "anonymous": false,
      "inputs": [
        {
          "indexed": true,
          "internalType": "address",
          "name": "by",
          "type": "address"
        }
      ],
      "name": "ContractUnpaused",
      "type": "event"
    },
    {
      "anonymous": false,
      "inputs": [
        {
          "indexed": true,
          "internalType": "uint256",
          "name": "assetId",
          "type": "uint256"
        },
        {
          "indexed": false,
          "internalType": "string",
          "name": "newMetadataURI",
          "type": "string"
        }
      ],
      "name": "MetadataUpdated",
      "type": "event"
    },
    {
      "anonymous": false,
      "inputs": [
        {
          "indexed": false,
          "internalType": "address",
          "name": "account",
          "type": "address"
        }
      ],
      "name": "Paused",
      "type": "event"
    },
    {
      "anonymous": false,
      "inputs": [
        {
          "indexed": true,
          "internalType": "bytes32",
          "name": "role",
          "type": "bytes32"
        },
        {
          "indexed": true,
          "internalType": "bytes32",
          "name": "previousAdminRole",
          "type": "bytes32"
        },
        {
          "indexed": true,
          "internalType": "bytes32",
          "name": "newAdminRole",
          "type": "bytes32"
        }
      ],
      "name": "RoleAdminChanged",
      "type": "event"
    },
    {
      "anonymous": false,
      "inputs": [
        {
          "indexed": true,
          "internalType": "bytes32",
          "name": "role",
          "type": "bytes32"
        },
        {
          "indexed": true,
          "internalType": "address",
          "name": "account",
          "type": "address"
        },
        {
          "indexed": true,
          "internalType": "address",
          "name": "sender",
          "type": "address"
        }
      ],
      "name": "RoleGranted",
      "type": "event"
    },
    {
      "anonymous": false,
      "inputs": [
        {
          "indexed": true,
          "internalType": "bytes32",
          "name": "role",
          "type": "bytes32"
        },
        {
          "indexed": true,
          "internalType": "address",
          "name": "account",
          "type": "address"
        },
        {
          "indexed": true,
          "internalType": "address",
          "name": "sender",
          "type": "address"
        }
      ],
      "name": "RoleRevoked",
      "type": "event"
    },
    {
      "anonymous": false,
      "inputs": [
        {
          "indexed": true,
          "internalType": "address",
          "name": "from",
          "type": "address"
        },
        {
          "indexed": true,
          "internalType": "address",
          "name": "to",
          "type": "address"
        },
        {
          "indexed": true,
          "internalType": "uint256",
          "name": "tokenId",
          "type": "uint256"
        }
      ],
      "name": "Transfer",
      "type": "event"
    },
    {
      "anonymous": false,
      "inputs": [
        {
          "indexed": false,
          "internalType": "address",
          "name": "account",
          "type": "address"
        }
      ],
      "name": "Unpaused",
      "type": "event"
    },
    {
      "anonymous": false,
      "inputs": [
        {
          "indexed": true,
          "internalType": "address",
          "name": "user",
          "type": "address"
        },
        {
          "indexed": false,
          "internalType": "bool",
          "name": "status",
          "type": "bool"
        }
      ],
      "name": "UserVerified",
      "type": "event"
    },
    {
      "anonymous": false,
      "inputs": [
        {
          "indexed": true,
          "internalType": "uint256",
          "name": "assetId",
          "type": "uint256"
        },
        {
          "indexed": false,
          "internalType": "uint256",
          "name": "newValuation",
          "type": "uint256"
        }
      ],
      "name": "ValuationUpdated",
      "type": "event"
    },
    {
      "inputs": [],
      "name": "ADMIN_ROLE",
      "outputs": [
        {
          "internalType": "bytes32",
          "name": "",
          "type": "bytes32"
        }
      ],
      "stateMutability": "view",
      "type": "function"
    },
    {
      "inputs": [],
      "name": "COMPLIANCE_ROLE",
      "outputs": [
        {
          "internalType": "bytes32",
          "name": "",
          "type": "bytes32"
        }
      ],
      "stateMutability": "view",
      "type": "function"
    },
    {
      "inputs": [],
      "name": "DEFAULT_ADMIN_ROLE",
      "outputs": [
        {
          "internalType": "bytes32",
          "name": "",
          "type": "bytes32"
        }
      ],
      "stateMutability": "view",
      "type": "function"
    },
    {
      "inputs": [],
      "name": "MAX_BATCH_SIZE",
      "outputs": [
        {
          "internalType": "uint256",
          "name": "",
          "type": "uint256"
        }
      ],
      "stateMutability": "view",
      "type": "function"
    },
    {
      "inputs": [],
      "name": "MINTER_ROLE",
      "outputs": [
        {
          "internalType": "bytes32",
          "name": "",
          "type": "bytes32"
        }
      ],
      "stateMutability": "view",
      "type": "function"
    },
    {
      "inputs": [
        {
          "internalType": "address",
          "name": "to",
          "type": "address"
        },
        {
          "internalType": "uint256",
          "name": "tokenId",
          "type": "uint256"
        }
      ],
      "name": "approve",
      "outputs": [],
      "stateMutability": "nonpayable",
      "type": "function"
    },
    {
      "inputs": [
        {
          "internalType": "uint256",
          "name": "",
          "type": "uint256"
        }
      ],
      "name": "assetDetails",
      "outputs": [
        {
          "internalType": "string",
          "name": "metadataURI",
          "type": "string"
        },
        {
          "internalType": "bool",
          "name": "isCompliant",
          "type": "bool"
        },
        {
          "internalType": "enum AssetTokenization.AssetStatus",
          "name": "status",
          "type": "uint8"
        },
        {
          "internalType": "uint256",
          "name": "valuation",
          "type": "uint256"
        },
        {
          "internalType": "uint256",
          "name": "registrationDate",
          "type": "uint256"
        },
        {
          "internalType": "string",
          "name": "assetType",
          "type": "string"
        }
      ],
      "stateMutability": "view",
      "type": "function"
    },
    {
      "inputs": [
        {
          "internalType": "address",
          "name": "owner",
          "type": "address"
        }
      ],
      "name": "balanceOf",
      "outputs": [
        {
          "internalType": "uint256",
          "name": "",
          "type": "uint256"
        }
      ],
      "stateMutability": "view",
      "type": "function"
    },
    {
      "inputs": [
        {
          "internalType": "address[]",
          "name": "users",
          "type": "address[]"
        },
        {
          "internalType": "bool",
          "name": "status",
          "type": "bool"
        }
      ],
      "name": "batchVerifyUsers",
      "outputs": [],
      "stateMutability": "nonpayable",
      "type": "function"
    },
    {
      "inputs": [
        {
          "internalType": "uint256",
          "name": "tokenId",
          "type": "uint256"
        }
      ],
      "name": "getApproved",
      "outputs": [
        {
          "internalType": "address",
          "name": "",
          "type": "address"
        }
      ],
      "stateMutability": "view",
      "type": "function"
    },
    {
      "inputs": [
        {
          "internalType": "uint256",
          "name": "assetId",
          "type": "uint256"
        }
      ],
      "name": "getAssetInfo",
      "outputs": [
        {
          "internalType": "string",
          "name": "metadataURI",
          "type": "string"
        },
        {
          "internalType": "bool",
          "name": "isCompliant",
          "type": "bool"
        },
        {
          "internalType": "enum AssetTokenization.AssetStatus",
          "name": "status",
          "type": "uint8"
        },
        {
          "internalType": "uint256",
          "name": "valuation",
          "type": "uint256"
        },
        {
          "internalType": "uint256",
          "name": "registrationDate",
          "type": "uint256"
        },
        {
          "internalType": "string",
          "name": "assetType",
          "type": "string"
        },
        {
          "internalType": "address",
          "name": "owner",
          "type": "address"
        }
      ],
      "stateMutability": "view",
      "type": "function"
    },
    {
      "inputs": [
        {
          "internalType": "address",
          "name": "owner",
          "type": "address"
        }
      ],
      "name": "getAssetsByOwner",
      "outputs": [
        {
          "internalType": "uint256[]",
          "name": "",
          "type": "uint256[]"
        }
      ],
      "stateMutability": "view",
      "type": "function"
    },
    {
      "inputs": [
        {
          "internalType": "bytes32",
          "name": "role",
          "type": "bytes32"
        }
      ],
      "name": "getRoleAdmin",
      "outputs": [
        {
          "internalType": "bytes32",
          "name": "",
          "type": "bytes32"
        }
      ],
      "stateMutability": "view",
      "type": "function"
    },
    {
      "inputs": [
        {
          "internalType": "uint256",
          "name": "assetId",
          "type": "uint256"
        }
      ],
      "name": "getTransferHistory",
      "outputs": [
        {
          "components": [
            {
              "internalType": "address",
              "name": "from",
              "type": "address"
            },
            {
              "internalType": "address",
              "name": "to",
              "type": "address"
            },
            {
              "internalType": "uint256",
              "name": "timestamp",
              "type": "uint256"
            },
            {
              "internalType": "uint256",
              "name": "price",
              "type": "uint256"
            }
          ],
          "internalType": "struct AssetTokenization.TransferRecord[]",
          "name": "",
          "type": "tuple[]"
        }
      ],
      "stateMutability": "view",
      "type": "function"
    },
    {
      "inputs": [
        {
          "internalType": "bytes32",
          "name": "role",
          "type": "bytes32"
        },
        {
          "internalType": "address",
          "name": "account",
          "type": "address"
        }
      ],
      "name": "grantRole",
      "outputs": [],
      "stateMutability": "nonpayable",
      "type": "function"
    },
    {
      "inputs": [
        {
          "internalType": "bytes32",
          "name": "role",
          "type": "bytes32"
        },
        {
          "internalType": "address",
          "name": "account",
          "type": "address"
        }
      ],
      "name": "hasRole",
      "outputs": [
        {
          "internalType": "bool",
          "name": "",
          "type": "bool"
        }
      ],
      "stateMutability": "view",
      "type": "function"
    },
    {
      "inputs": [
        {
          "internalType": "address",
          "name": "owner",
          "type": "address"
        },
        {
          "internalType": "address",
          "name": "operator",
          "type": "address"
        }
      ],
      "name": "isApprovedForAll",
      "outputs": [
        {
          "internalType": "bool",
          "name": "",
          "type": "bool"
        }
      ],
      "stateMutability": "view",
      "type": "function"
    },
    {
      "inputs": [],
      "name": "name",
      "outputs": [
        {
          "internalType": "string",
          "name": "",
          "type": "string"
        }
      ],
      "stateMutability": "view",
      "type": "function"
    },
    {
      "inputs": [
        {
          "internalType": "uint256",
          "name": "tokenId",
          "type": "uint256"
        }
      ],
      "name": "ownerOf",
      "outputs": [
        {
          "internalType": "address",
          "name": "",
          "type": "address"
        }
      ],
      "stateMutability": "view",
      "type": "function"
    },
    {
      "inputs": [],
      "name": "pause",
      "outputs": [],
      "stateMutability": "nonpayable",
      "type": "function"
    },
    {
      "inputs": [],
      "name": "paused",
      "outputs": [
        {
          "internalType": "bool",
          "name": "",
          "type": "bool"
        }
      ],
      "stateMutability": "view",
      "type": "function"
    },
    {
      "inputs": [
        {
          "internalType": "address",
          "name": "to",
          "type": "address"
        },
        {
          "internalType": "string",
          "name": "metadataURI",
          "type": "string"
        },
        {
          "internalType": "string",
          "name": "assetType",
          "type": "string"
        },
        {
          "internalType": "uint256",
          "name": "valuation",
          "type": "uint256"
        }
      ],
      "name": "registerAsset",
      "outputs": [
        {
          "internalType": "uint256",
          "name": "",
          "type": "uint256"
        }
      ],
      "stateMutability": "nonpayable",
      "type": "function"
    },
    {
      "inputs": [
        {
          "internalType": "bytes32",
          "name": "role",
          "type": "bytes32"
        },
        {
          "internalType": "address",
          "name": "callerConfirmation",
          "type": "address"
        }
      ],
      "name": "renounceRole",
      "outputs": [],
      "stateMutability": "nonpayable",
      "type": "function"
    },
    {
      "inputs": [
        {
          "internalType": "bytes32",
          "name": "role",
          "type": "bytes32"
        },
        {
          "internalType": "address",
          "name": "account",
          "type": "address"
        }
      ],
      "name": "revokeRole",
      "outputs": [],
      "stateMutability": "nonpayable",
      "type": "function"
    },
    {
      "inputs": [
        {
          "internalType": "address",
          "name": "from",
          "type": "address"
        },
        {
          "internalType": "address",
          "name": "to",
          "type": "address"
        },
        {
          "internalType": "uint256",
          "name": "tokenId",
          "type": "uint256"
        }
      ],
      "name": "safeTransferFrom",
      "outputs": [],
      "stateMutability": "nonpayable",
      "type": "function"
    },
    {
      "inputs": [
        {
          "internalType": "address",
          "name": "from",
          "type": "address"
        },
        {
          "internalType": "address",
          "name": "to",
          "type": "address"
        },
        {
          "internalType": "uint256",
          "name": "tokenId",
          "type": "uint256"
        },
        {
          "internalType": "bytes",
          "name": "data",
          "type": "bytes"
        }
      ],
      "name": "safeTransferFrom",
      "outputs": [],
      "stateMutability": "nonpayable",
      "type": "function"
    },
    {
      "inputs": [
        {
          "internalType": "address",
          "name": "operator",
          "type": "address"
        },
        {
          "internalType": "bool",
          "name": "approved",
          "type": "bool"
        }
      ],
      "name": "setApprovalForAll",
      "outputs": [],
      "stateMutability": "nonpayable",
      "type": "function"
    },
    {
      "inputs": [
        {
          "internalType": "uint256",
          "name": "assetId",
          "type": "uint256"
        },
        {
          "internalType": "enum AssetTokenization.AssetStatus",
          "name": "newStatus",
          "type": "uint8"
        }
      ],
      "name": "setAssetStatus",
      "outputs": [],
      "stateMutability": "nonpayable",
      "type": "function"
    },
    {
      "inputs": [
        {
          "internalType": "uint256",
          "name": "assetId",
          "type": "uint256"
        },
        {
          "internalType": "bool",
          "name": "status",
          "type": "bool"
        }
      ],
      "name": "setCompliance",
      "outputs": [],
      "stateMutability": "nonpayable",
      "type": "function"
    },
    {
      "inputs": [
        {
          "internalType": "address",
          "name": "user",
          "type": "address"
        },
        {
          "internalType": "bool",
          "name": "status",
          "type": "bool"
        }
      ],
      "name": "setUserVerification",
      "outputs": [],
      "stateMutability": "nonpayable",
      "type": "function"
    },
    {
      "inputs": [
        {
          "internalType": "bytes4",
          "name": "interfaceId",
          "type": "bytes4"
        }
      ],
      "name": "supportsInterface",
      "outputs": [
        {
          "internalType": "bool",
          "name": "",
          "type": "bool"
        }
      ],
      "stateMutability": "view",
      "type": "function"
    },
    {
      "inputs": [],
      "name": "symbol",
      "outputs": [
        {
          "internalType": "string",
          "name": "",
          "type": "string"
        }
      ],
      "stateMutability": "view",
      "type": "function"
    },
    {
      "inputs": [
        {
          "internalType": "uint256",
          "name": "assetId",
          "type": "uint256"
        }
      ],
      "name": "tokenURI",
      "outputs": [
        {
          "internalType": "string",
          "name": "",
          "type": "string"
        }
      ],
      "stateMutability": "view",
      "type": "function"
    },
    {
      "inputs": [
        {
          "internalType": "address",
          "name": "from",
          "type": "address"
        },
        {
          "internalType": "address",
          "name": "to",
          "type": "address"
        },
        {
          "internalType": "uint256",
          "name": "tokenId",
          "type": "uint256"
        }
      ],
      "name": "transferFrom",
      "outputs": [],
      "stateMutability": "nonpayable",
      "type": "function"
    },
    {
      "inputs": [
        {
          "internalType": "uint256",
          "name": "",
          "type": "uint256"
        },
        {
          "internalType": "uint256",
          "name": "",
          "type": "uint256"
        }
      ],
      "name": "transferHistory",
      "outputs": [
        {
          "internalType": "address",
          "name": "from",
          "type": "address"
        },
        {
          "internalType": "address",
          "name": "to",
          "type": "address"
        },
        {
          "internalType": "uint256",
          "name": "timestamp",
          "type": "uint256"
        },
        {
          "internalType": "uint256",
          "name": "price",
          "type": "uint256"
        }
      ],
      "stateMutability": "view",
      "type": "function"
    },
    {
      "inputs": [
        {
          "internalType": "address",
          "name": "from",
          "type": "address"
        },
        {
          "internalType": "address",
          "name": "to",
          "type": "address"
        },
        {
          "internalType": "uint256",
          "name": "assetId",
          "type": "uint256"
        },
        {
          "internalType": "uint256",
          "name": "price",
          "type": "uint256"
        }
      ],
      "name": "transferWithPrice",
      "outputs": [],
      "stateMutability": "nonpayable",
      "type": "function"
    },
    {
      "inputs": [],
      "name": "unpause",
      "outputs": [],
      "stateMutability": "nonpayable",
      "type": "function"
    },
    {
      "inputs": [
        {
          "internalType": "uint256",
          "name": "assetId",
          "type": "uint256"
        },
        {
          "internalType": "string",
          "name": "newMetadataURI",
          "type": "string"
        }
      ],
      "name": "updateMetadata",
      "outputs": [],
      "stateMutability": "nonpayable",
      "type": "function"
    },
    {
      "inputs": [
        {
          "internalType": "uint256",
          "name": "assetId",
          "type": "uint256"
        },
        {
          "internalType": "uint256",
          "name": "newValuation",
          "type": "uint256"
        }
      ],
      "name": "updateValuation",
      "outputs": [],
      "stateMutability": "nonpayable",
      "type": "function"
    },
    {
      "inputs": [
        {
          "internalType": "address",
          "name": "",
          "type": "address"
        }
      ],
      "name": "verifiedUsers",
      "outputs": [
        {
          "internalType": "bool",
          "name": "",
          "type": "bool"
        }
      ],
      "stateMutability": "view",
      "type": "function"
    }
  ],
  "bytecode": "0x60806040523480156200001157600080fd5b50604051620031c9380380620031c983398101604081905262000034916200028a565b8181600062000044838262000383565b50600162000053828262000383565b50506001600755506200006860003362000112565b50620000957fa49807205ce4d355092ef5a8a18f56e8913cf4a201fbe287825b095693c217753362000112565b50620000c27f9f2df0fed2c77648de5860a4cc508cd0818c85b8b8a1ab4ceeef8d981c8956a63362000112565b50620000ef7f442a94f1a1fac79af32856af2a64f63648cfa2ef3b98610a5bb7cbec4cee69853362000112565b5050336000908152600b60205260409020805460ff19166001179055506200044f565b60008281526006602090815260408083206001600160a01b038516845290915281205460ff16620001bb5760008381526006602090815260408083206001600160a01b03861684529091529020805460ff19166001179055620001723390565b6001600160a01b0316826001600160a01b0316847f2f8788117e7eff1d82e926ec794901d17c78024a50270940304540a733656f0d60405160405180910390a4506001620001bf565b5060005b92915050565b634e487b7160e01b600052604160045260246000fd5b600082601f830112620001ed57600080fd5b81516001600160401b03808211156200020a576200020a620001c5565b604051601f8301601f19908116603f01168101908282118183101715620002355762000235620001c5565b816040528381526020925086838588010111156200025257600080fd5b600091505b8382101562000276578582018301518183018401529082019062000257565b600093810190920192909252949350505050565b600080604083850312156200029e57600080fd5b82516001600160401b0380821115620002b657600080fd5b620002c486838701620001db565b93506020850151915080821115620002db57600080fd5b50620002ea85828601620001db565b9150509250929050565b600181811c908216806200030957607f821691505b6020821081036200032a57634e487b7160e01b600052602260045260246000fd5b50919050565b601f8211156200037e57600081815260208120601f850160051c81016020861015620003595750805b601f850160051c820191505b818110156200037a5782815560010162000365565b5050505b505050565b81516001600160401b038111156200039f576200039f620001c5565b620003b781620003b08454620002f4565b8462000330565b602080601f831160018114620003ef5760008415620003d65750858301515b600019600386901b1c1916600185901b1785556200037a565b600085815260208120601f198616915b828110156200042057888601518255948401946001909101908401620003ff565b50858210156200043f5787850151600019600388901b60f8161c191681555b5050505050600190811b01905550565b612d6a806200045f6000396000f3fe608060405234801561001057600080fd5b50600436106102485760003560e01c806370a082311161013b578063b88d4fde116100b8578063d547741f1161007c578063d547741f1461053a578063dedaff541461054d578063e35fe3661461058b578063e985e9c5146105ae578063f637d950146105c157600080fd5b8063b88d4fde146104c0578063c3967528146104d3578063c87b56dd146104f8578063cfdbf2541461050b578063d53913931461051357600080fd5b806395d89b41116100ff57806395d89b4114610477578063997f524a1461047f578063a0695feb14610492578063a217fddf146104a5578063a22cb465146104ad57600080fd5b806370a082311461041457806375b238fc146104275780638456cb591461043c5780638bb27d021461044457806391d148541461046457600080fd5b806330e4592c116101c957806353c8388e1161018d57806353c8388e146103bd57806354aa5f3c146103d05780635c975abb146103e35780636352211e146103ee5780636dc0fc6b1461040157600080fd5b806330e4592c1461036957806336568abe1461037c5780633f4ba83a1461038f57806342842e0e1461039757806345e2a06c146103aa57600080fd5b8063158aaead11610210578063158aaead146102ed57806323b872dd14610300578063248a9ca314610313578063276f0934146103365780632f2ff15d1461035657600080fd5b806301ffc9a71461024d578063062d3bd71461027557806306fdde0314610298578063081812fc146102ad578063095ea7b3146102d8575b600080fd5b61026061025b3660046123ec565b6105e7565b60405190151581526020015b60405180910390f35b61028a600080516020612cf583398151915281565b60405190815260200161026c565b6102a06105f8565b60405161026c9190612456565b6102c06102bb366004612469565b61068a565b6040516001600160a01b03909116815260200161026c565b6102eb6102e636600461249e565b6106b3565b005b6102eb6102fb3660046124c8565b6106c2565b6102eb61030e3660046124fc565b610786565b61028a610321366004612469565b60009081526006602052604090206001015490565b610349610344366004612538565b610811565b60405161026c9190612553565b6102eb610364366004612597565b6108e5565b61028a61037736600461266f565b61090a565b6102eb61038a366004612597565b610a9c565b6102eb610ad4565b6102eb6103a53660046124fc565b610b22565b6102eb6103b83660046126fb565b610b3d565b6102eb6103cb36600461277f565b610cf0565b6102eb6103de3660046127c6565b610d82565b60085460ff16610260565b6102c06103fc366004612469565b610e1e565b6102eb61040f3660046127e9565b610e29565b61028a610422366004612538565b610eba565b61028a600080516020612d1583398151915281565b6102eb610f02565b610457610452366004612469565b610f50565b60405161026c919061280b565b610260610472366004612597565b611019565b6102a0611044565b6102eb61048d36600461287b565b611053565b6102eb6104a03660046128a5565b6110c3565b61028a600081565b6102eb6104bb36600461287b565b61125e565b6102eb6104ce3660046128e7565b611269565b6104e66104e1366004612469565b611281565b60405161026c9695949392919061299b565b6102a0610506366004612469565b6113cf565b61028a606481565b61028a7f9f2df0fed2c77648de5860a4cc508cd0818c85b8b8a1ab4ceeef8d981c8956a681565b6102eb610548366004612597565b6114a0565b61056061055b3660046127e9565b6114c5565b604080516001600160a01b03958616815294909316602085015291830152606082015260800161026c565b610260610599366004612538565b600b6020526000908152604090205460ff1681565b6102606105bc3660046129ee565b611517565b6105d46105cf366004612469565b611545565b60405161026c9796959493929190612a18565b60006105f282611751565b92915050565b60606000805461060790612a7b565b80601f016020809104026020016040519081016040528092919081815260200182805461063390612a7b565b80156106805780601f1061065557610100808354040283529160200191610680565b820191906000526020600020905b81548152906001019060200180831161066357829003601f168201915b5050505050905090565b600061069582611776565b506000828152600460205260409020546001600160a01b03166105f2565b6106be8282336117ae565b5050565b600080516020612d158339815191526106da816117bb565b60006106e5846117c8565b6001600160a01b0316036107145760405162461bcd60e51b815260040161070b90612ab5565b60405180910390fd5b6000838152600960205260409020600101805483919061ff00191661010083600381111561074457610744612963565b0217905550827f686cbb6b476fac353118f8ae6a2e3fe7540fc87f6a84c97dcfee5cab91583d81836040516107799190612ae3565b60405180910390a2505050565b6001600160a01b0382166107b057604051633250574960e11b81526000600482015260240161070b565b60006107bd8383336117e3565b9050836001600160a01b0316816001600160a01b03161461080b576040516364283d7b60e01b81526001600160a01b038086166004830152602482018490528216604482015260640161070b565b50505050565b6060600061081e83610eba565b905060008167ffffffffffffffff81111561083b5761083b6125c3565b604051908082528060200260200182016040528015610864578160200160208202803683370190505b5090506000805b600d548110156108db57856001600160a01b0316610888826117c8565b6001600160a01b0316036108c957808383815181106108a9576108a9612af1565b6020908102919091010152816108be81612b07565b9250508382146108db575b806108d381612b07565b91505061086b565b5090949350505050565b600082815260066020526040902060010154610900816117bb565b61080b8383611b75565b60007f9f2df0fed2c77648de5860a4cc508cd0818c85b8b8a1ab4ceeef8d981c8956a6610936816117bb565b6001600160a01b0386166000908152600b602052604090205460ff1661096e5760405162461bcd60e51b815260040161070b90612b2e565b600d80546000918261097f83612b07565b91905055905061098f8782611c09565b6040805160c081018252878152600060208083018290528284018290526060830188905242608084015260a083018990528482526009905291909120815181906109d99082612ba4565b50602082015160018201805491151560ff1983168117825560408501519261ff001990911661ffff1990911617610100836003811115610a1b57610a1b612963565b0217905550606082015160028201556080820151600382015560a08201516004820190610a489082612ba4565b5090505080876001600160a01b03167ff3c2b254f1019b7a489eb8df74ffe59ff452b5662611d76c6bbc8aea54bb7ca5878988604051610a8a93929190612c64565b60405180910390a39695505050505050565b6001600160a01b0381163314610ac55760405163334bd91960e11b815260040160405180910390fd5b610acf8282611c23565b505050565b600080516020612d15833981519152610aec816117bb565b610af4611c90565b60405133907f5b65b0c1363b3003db9bcc5e1fd8805a6d6bf5bf6dc9d3431ee4494cd7d1176690600090a250565b610acf83838360405180602001604052806000815250611269565b600080516020612cf5833981519152610b55816117bb565b82610b905760405162461bcd60e51b815260206004820152600b60248201526a456d70747920617272617960a81b604482015260640161070b565b6064831115610bd35760405162461bcd60e51b815260206004820152600f60248201526e426174636820746f6f206c6172676560881b604482015260640161070b565b60005b83811015610caf5782600b6000878785818110610bf557610bf5612af1565b9050602002016020810190610c0a9190612538565b6001600160a01b031681526020810191909152604001600020805460ff1916911515919091179055848482818110610c4457610c44612af1565b9050602002016020810190610c599190612538565b6001600160a01b03167f34736af44d2b91cd43fa896d4cfe0861ec1e6b4538583d385fc671639e9153b284604051610c95911515815260200190565b60405180910390a280610ca781612b07565b915050610bd6565b506040805184815283151560208201527ffc9b58c320147d1283a33f0435ecf801910134dcae217e9a671bd9381c1ad0f6910160405180910390a150505050565b600080516020612d15833981519152610d08816117bb565b6000610d13846117c8565b6001600160a01b031603610d395760405162461bcd60e51b815260040161070b90612ab5565b6000838152600960205260409020610d518382612ba4565b50827f459157ba24c7ab9878b165ef465fa6ae2ab42bcd8445f576be378768b0c47309836040516107799190612456565b600080516020612cf5833981519152610d9a816117bb565b6000610da5846117c8565b6001600160a01b031603610dcb5760405162461bcd60e51b815260040161070b90612ab5565b600083815260096020908152604091829020600101805460ff1916851515908117909155915191825284917fc0ef05ad7b90347a9b2ea53e56c4487d173b0f9a4644ed41cf9e504b1c6393249101610779565b60006105f282611776565b600080516020612d15833981519152610e41816117bb565b6000610e4c846117c8565b6001600160a01b031603610e725760405162461bcd60e51b815260040161070b90612ab5565b600083815260096020526040908190206002018390555183907f8d45721c0edcd094d637f66e971ce1167f974eed315c9a31b6ce145067760acc906107799085815260200190565b60006001600160a01b038216610ee6576040516322718ad960e21b81526000600482015260240161070b565b506001600160a01b031660009081526003602052604090205490565b600080516020612d15833981519152610f1a816117bb565b610f22611ce2565b60405133907f81990fd9a5c552b8e3677917d8a03c07678f0d2cb68f88b634aca2022e9bd19f90600090a250565b60606000610f5d836117c8565b6001600160a01b031603610f835760405162461bcd60e51b815260040161070b90612ab5565b6000828152600a6020908152604080832080548251818502810185019093528083529193909284015b8282101561100e576000848152602090819020604080516080810182526004860290920180546001600160a01b039081168452600180830154909116848601526002820154928401929092526003015460608301529083529092019101610fac565b505050509050919050565b60009182526006602090815260408084206001600160a01b0393909316845291905290205460ff1690565b60606001805461060790612a7b565b600080516020612cf583398151915261106b816117bb565b6001600160a01b0383166000818152600b6020908152604091829020805460ff191686151590811790915591519182527f34736af44d2b91cd43fa896d4cfe0861ec1e6b4538583d385fc671639e9153b29101610779565b6110cb611d1f565b6110d3611d49565b6110e66110df836117c8565b3384611d6f565b6111235760405162461bcd60e51b815260206004820152600e60248201526d139bdd08185d5d1a1bdc9a5e995960921b604482015260640161070b565b6001600160a01b0383166000908152600b602052604090205460ff1661115b5760405162461bcd60e51b815260040161070b90612b2e565b6000828152600c60209081526040808320805460ff19166001908117909155600a835281842082516080810184526001600160a01b03808b168252898116828701908152429583019586526060830189815284548087018655948952969097209151600490930290910180549282166001600160a01b031993841617815595519286018054939091169290911691909117905551600283015551600390910155611206848484611dd5565b81836001600160a01b0316856001600160a01b03167f7a3278a8c40fdf2dcb3301c764c869a2d4514928f1b7c49671663b7a4e5b7ef08460405161124c91815260200190565b60405180910390a461080b6001600755565b6106be338383611e85565b611274848484610786565b61080b3385858585611f24565b60096020526000908152604090208054819061129c90612a7b565b80601f01602080910402602001604051908101604052809291908181526020018280546112c890612a7b565b80156113155780601f106112ea57610100808354040283529160200191611315565b820191906000526020600020905b8154815290600101906020018083116112f857829003601f168201915b505050600184015460028501546003860154600487018054969760ff80861698610100909604169650929450909261134c90612a7b565b80601f016020809104026020016040519081016040528092919081815260200182805461137890612a7b565b80156113c55780601f1061139a576101008083540402835291602001916113c5565b820191906000526020600020905b8154815290600101906020018083116113a857829003601f168201915b5050505050905086565b606060006113dc836117c8565b6001600160a01b0316036114025760405162461bcd60e51b815260040161070b90612ab5565b6000828152600960205260409020805461141b90612a7b565b80601f016020809104026020016040519081016040528092919081815260200182805461144790612a7b565b80156114945780601f1061146957610100808354040283529160200191611494565b820191906000526020600020905b81548152906001019060200180831161147757829003601f168201915b50505050509050919050565b6000828152600660205260409020600101546114bb816117bb565b61080b8383611c23565b600a60205281600052604060002081815481106114e157600080fd5b600091825260209091206004909102018054600182015460028301546003909301546001600160a01b0392831695509116925084565b6001600160a01b03918216600090815260056020908152604080832093909416825291909152205460ff1690565b60606000808080848180611558896117c8565b6001600160a01b03160361157e5760405162461bcd60e51b815260040161070b90612ab5565b600088815260096020526040808220815160c081019092528054829082906115a590612a7b565b80601f01602080910402602001604051908101604052809291908181526020018280546115d190612a7b565b801561161e5780601f106115f35761010080835404028352916020019161161e565b820191906000526020600020905b81548152906001019060200180831161160157829003601f168201915b5050509183525050600182015460ff8082161515602084015260409092019161010090910416600381111561165557611655612963565b600381111561166657611666612963565b8152602001600282015481526020016003820154815260200160048201805461168e90612a7b565b80601f01602080910402602001604051908101604052809291908181526020018280546116ba90612a7b565b80156117075780601f106116dc57610100808354040283529160200191611707565b820191906000526020600020905b8154815290600101906020018083116116ea57829003601f168201915b5050505050815250509050806000015181602001518260400151836060015184608001518560a001516117398f6117c8565b959f949e50929c50909a509850965090945092505050565b60006001600160e01b03198216637965db0b60e01b14806105f257506105f28261204f565b600080611782836117c8565b90506001600160a01b0381166105f257604051637e27328960e01b81526004810184905260240161070b565b610acf838383600161209f565b6117c581336121a5565b50565b6000908152600260205260409020546001600160a01b031690565b6000806117ef846117c8565b90506001600160a01b0381161580159061180b575060085460ff165b156118295760405163d93c066560e01b815260040160405180910390fd5b6001600160a01b03811615611b4b57600084815260096020526040808220815160c0810190925280548290829061185f90612a7b565b80601f016020809104026020016040519081016040528092919081815260200182805461188b90612a7b565b80156118d85780601f106118ad576101008083540402835291602001916118d8565b820191906000526020600020905b8154815290600101906020018083116118bb57829003601f168201915b5050509183525050600182015460ff8082161515602084015260409092019161010090910416600381111561190f5761190f612963565b600381111561192057611920612963565b8152602001600282015481526020016003820154815260200160048201805461194890612a7b565b80601f016020809104026020016040519081016040528092919081815260200182805461197490612a7b565b80156119c15780601f10611996576101008083540402835291602001916119c1565b820191906000526020600020905b8154815290600101906020018083116119a457829003601f168201915b50505050508152505090508060200151611a135760405162461bcd60e51b8152602060048201526013602482015272105cdcd95d081b9bdd0818dbdb5c1b1a585b9d606a1b604482015260640161070b565b600181604001516003811115611a2b57611a2b612963565b14611a6b5760405162461bcd60e51b815260206004820152601060248201526f4173736574206e6f742061637469766560801b604482015260640161070b565b6001600160a01b0386166000908152600b602052604090205460ff16611aa35760405162461bcd60e51b815260040161070b90612b2e565b6000858152600c602052604090205460ff16611b49576000858152600a6020908152604080832081516080810183526001600160a01b0380881682528b81168286019081524294830194855260608301878152845460018181018755958952969097209251600490960290920180549582166001600160a01b03199687161781559151928201805493909116929094169190911790925551600282015590516003909101555b505b6000848152600c60205260409020805460ff19169055611b6c8585856121de565b95945050505050565b6000611b818383611019565b611c015760008381526006602090815260408083206001600160a01b03861684529091529020805460ff19166001179055611bb93390565b6001600160a01b0316826001600160a01b0316847f2f8788117e7eff1d82e926ec794901d17c78024a50270940304540a733656f0d60405160405180910390a45060016105f2565b5060006105f2565b6106be8282604051806020016040528060008152506122d2565b6000611c2f8383611019565b15611c015760008381526006602090815260408083206001600160a01b0386168085529252808320805460ff1916905551339286917ff6391f5c32d9c69d2a47ea670b442974b53935d1edc7fd64eb21e047a839171b9190a45060016105f2565b611c986122ea565b6008805460ff191690557f5db9ee0a495bf2e6ff9c91a7834c1ba4fdd244a5e8aa4e537bd38aeae4b073aa335b6040516001600160a01b03909116815260200160405180910390a1565b611cea611d49565b6008805460ff191660011790557f62e78cea01bee320cd4e420270b5ea74000d11b0c9f74754ebdbfc544b05a258611cc53390565b600260075403611d4257604051633ee5aeb560e01b815260040160405180910390fd5b6002600755565b60085460ff1615611d6d5760405163d93c066560e01b815260040160405180910390fd5b565b60006001600160a01b03831615801590611dcd5750826001600160a01b0316846001600160a01b03161480611da95750611da98484611517565b80611dcd57506000828152600460205260409020546001600160a01b038481169116145b949350505050565b6001600160a01b038216611dff57604051633250574960e11b81526000600482015260240161070b565b6000611e0d838360006117e3565b90506001600160a01b038116611e3957604051637e27328960e01b81526004810183905260240161070b565b836001600160a01b0316816001600160a01b03161461080b576040516364283d7b60e01b81526001600160a01b038086166004830152602482018490528216604482015260640161070b565b6001600160a01b038216611eb757604051630b61174360e31b81526001600160a01b038316600482015260240161070b565b6001600160a01b03838116600081815260056020908152604080832094871680845294825291829020805460ff191686151590811790915591519182527f17307eab39ab6107e8899845ad3d59bd9653f200f220920489ca2b5937696c31910160405180910390a3505050565b6001600160a01b0383163b1561204857604051630a85bd0160e11b81526001600160a01b0384169063150b7a0290611f66908890889087908790600401612c9a565b6020604051808303816000875af1925050508015611fa1575060408051601f3d908101601f19168201909252611f9e91810190612cd7565b60015b61200a573d808015611fcf576040519150601f19603f3d011682016040523d82523d6000602084013e611fd4565b606091505b50805160000361200257604051633250574960e11b81526001600160a01b038516600482015260240161070b565b805160208201fd5b6001600160e01b03198116630a85bd0160e11b1461204657604051633250574960e11b81526001600160a01b038516600482015260240161070b565b505b5050505050565b60006001600160e01b031982166380ac58cd60e01b148061208057506001600160e01b03198216635b5e139f60e01b145b806105f257506301ffc9a760e01b6001600160e01b03198316146105f2565b80806120b357506001600160a01b03821615155b156121755760006120c384611776565b90506001600160a01b038316158015906120ef5750826001600160a01b0316816001600160a01b031614155b801561210257506121008184611517565b155b1561212b5760405163a9fbf51f60e01b81526001600160a01b038416600482015260240161070b565b81156121735783856001600160a01b0316826001600160a01b03167f8c5be1e5ebec7d5bd14f71427d1e84f3dd0314c0f7b2291e5b200ac8c7c3b92560405160405180910390a45b505b5050600090815260046020526040902080546001600160a01b0319166001600160a01b0392909216919091179055565b6121af8282611019565b6106be5760405163e2517d3f60e01b81526001600160a01b03821660048201526024810183905260440161070b565b6000806121ea846117c8565b90506001600160a01b038316156122065761220681848661230d565b6001600160a01b038116156122445761222360008560008061209f565b6001600160a01b038116600090815260036020526040902080546000190190555b6001600160a01b03851615612273576001600160a01b0385166000908152600360205260409020805460010190555b60008481526002602052604080822080546001600160a01b0319166001600160a01b0389811691821790925591518793918516917fddf252ad1be2c89b69c2b068fc378daa952ba7f163c4a11628f55a4df523b3ef91a4949350505050565b6122dc8383612371565b610acf336000858585611f24565b60085460ff16611d6d57604051638dfc202b60e01b815260040160405180910390fd5b612318838383611d6f565b610acf576001600160a01b03831661234657604051637e27328960e01b81526004810182905260240161070b565b60405163177e802f60e01b81526001600160a01b03831660048201526024810182905260440161070b565b6001600160a01b03821661239b57604051633250574960e11b81526000600482015260240161070b565b60006123a9838360006117e3565b90506001600160a01b03811615610acf576040516339e3563760e11b81526000600482015260240161070b565b6001600160e01b0319811681146117c557600080fd5b6000602082840312156123fe57600080fd5b8135612409816123d6565b9392505050565b6000815180845260005b818110156124365760208185018101518683018201520161241a565b506000602082860101526020601f19601f83011685010191505092915050565b6020815260006124096020830184612410565b60006020828403121561247b57600080fd5b5035919050565b80356001600160a01b038116811461249957600080fd5b919050565b600080604083850312156124b157600080fd5b6124ba83612482565b946020939093013593505050565b600080604083850312156124db57600080fd5b823591506020830135600481106124f157600080fd5b809150509250929050565b60008060006060848603121561251157600080fd5b61251a84612482565b925061252860208501612482565b9150604084013590509250925092565b60006020828403121561254a57600080fd5b61240982612482565b6020808252825182820181905260009190848201906040850190845b8181101561258b5783518352928401929184019160010161256f565b50909695505050505050565b600080604083850312156125aa57600080fd5b823591506125ba60208401612482565b90509250929050565b634e487b7160e01b600052604160045260246000fd5b600067ffffffffffffffff808411156125f4576125f46125c3565b604051601f8501601f19908116603f0116810190828211818310171561261c5761261c6125c3565b8160405280935085815286868601111561263557600080fd5b858560208301376000602087830101525050509392505050565b600082601f83011261266057600080fd5b612409838335602085016125d9565b6000806000806080858703121561268557600080fd5b61268e85612482565b9350602085013567ffffffffffffffff808211156126ab57600080fd5b6126b78883890161264f565b945060408701359150808211156126cd57600080fd5b506126da8782880161264f565b949793965093946060013593505050565b8035801515811461249957600080fd5b60008060006040848603121561271057600080fd5b833567ffffffffffffffff8082111561272857600080fd5b818601915086601f83011261273c57600080fd5b81358181111561274b57600080fd5b8760208260051b850101111561276057600080fd5b60209283019550935061277691860190506126eb565b90509250925092565b6000806040838503121561279257600080fd5b82359150602083013567ffffffffffffffff8111156127b057600080fd5b6127bc8582860161264f565b9150509250929050565b600080604083850312156127d957600080fd5b823591506125ba602084016126eb565b600080604083850312156127fc57600080fd5b50508035926020909101359150565b602080825282518282018190526000919060409081850190868401855b8281101561286e57815180516001600160a01b03908116865287820151168786015285810151868601526060908101519085015260809093019290850190600101612828565b5091979650505050505050565b6000806040838503121561288e57600080fd5b61289783612482565b91506125ba602084016126eb565b600080600080608085870312156128bb57600080fd5b6128c485612482565b93506128d260208601612482565b93969395505050506040820135916060013590565b600080600080608085870312156128fd57600080fd5b61290685612482565b935061291460208601612482565b925060408501359150606085013567ffffffffffffffff81111561293757600080fd5b8501601f8101871361294857600080fd5b612957878235602084016125d9565b91505092959194509250565b634e487b7160e01b600052602160045260246000fd5b6004811061299757634e487b7160e01b600052602160045260246000fd5b9052565b60c0815260006129ae60c0830189612410565b87151560208401526129c36040840188612979565b85606084015284608084015282810360a08401526129e18185612410565b9998505050505050505050565b60008060408385031215612a0157600080fd5b612a0a83612482565b91506125ba60208401612482565b60e081526000612a2b60e083018a612410565b8815156020840152612a406040840189612979565b86606084015285608084015282810360a0840152612a5e8186612410565b91505060018060a01b03831660c083015298975050505050505050565b600181811c90821680612a8f57607f821691505b602082108103612aaf57634e487b7160e01b600052602260045260246000fd5b50919050565b602080825260149082015273105cdcd95d08191bd95cc81b9bdd08195e1a5cdd60621b604082015260600190565b602081016105f28284612979565b634e487b7160e01b600052603260045260246000fd5b600060018201612b2757634e487b7160e01b600052601160045260246000fd5b5060010190565b602080825260169082015275149958da5c1a595b9d081b9bdd081d995c9a599a595960521b604082015260600190565b601f821115610acf57600081815260208120601f850160051c81016020861015612b855750805b601f850160051c820191505b8181101561204657828155600101612b91565b815167ffffffffffffffff811115612bbe57612bbe6125c3565b612bd281612bcc8454612a7b565b84612b5e565b602080601f831160018114612c075760008415612bef5750858301515b600019600386901b1c1916600185901b178555612046565b600085815260208120601f198616915b82811015612c3657888601518255948401946001909101908401612c17565b5085821015612c545787850151600019600388901b60f8161c191681555b5050505050600190811b01905550565b606081526000612c776060830186612410565b8281036020840152612c898186612410565b915050826040830152949350505050565b6001600160a01b0385811682528416602082015260408101839052608060608201819052600090612ccd90830184612410565b9695505050505050565b600060208284031215612ce957600080fd5b8151612409816123d656fe442a94f1a1fac79af32856af2a64f63648cfa2ef3b98610a5bb7cbec4cee6985a49807205ce4d355092ef5a8a18f56e8913cf4a201fbe287825b095693c21775a2646970667358221220355ed677d88e5da2dcfa9619ca803289bc802d8b66af4953907ef2f41266f91364736f6c63430008140033",
  "linkReferences": {},
  "deployedLinkReferences": {}
}