{
  "_format": "hh-sol-artifact-1",
  "contractName": "ReentrancyAttacker",
  "sourceName": "contracts/test-helpers/ReentrancyAttacker.sol",
  "abi": [
    {
      "inputs": [
        {
          "internalType": "address",
          "name": "_target",
          "type": "address"
        }
      ],
      "stateMutability": "nonpayable",
      "type": "constructor"
    },
    {
      "inputs": [
        {
          "internalType": "uint256",
          "name": "assetId",
          "type": "uint256"
        },
        {
          "internalType": "address",
          "name": "to",
          "type": "address"
        },
        {
          "internalType": "uint256",
          "name": "price",
          "type": "uint256"
        }
      ],
      "name": "attack",
      "outputs": [],
      "stateMutability": "nonpayable",
      "type": "function"
    },
    {
      "inputs": [],
      "name": "attacking",
      "outputs": [
        {
          "internalType": "bool",
          "name": "",
          "type": "bool"
        }
      ],
      "stateMutability": "view",
      "type": "function"
    },
    {
      "inputs": [
        {
          "internalType": "address",
          "name": "",
          "type": "address"
        },
        {
          "internalType": "address",
          "name": "",
          "type": "address"
        },
        {
          "internalType": "uint256",
          "name": "tokenId",
          "type": "uint256"
        },
        {
          "internalType": "bytes",
          "name": "",
          "type": "bytes"
        }
      ],
      "name": "onERC721Received",
      "outputs": [
        {
          "internalType": "bytes4",
          "name": "",
          "type": "bytes4"
        }
      ],
      "stateMutability": "nonpayable",
      "type": "function"
    },
    {
      "inputs": [],
      "name": "target",
      "outputs": [
        {
          "internalType": "contract IAssetTokenization",
          "name": "",
          "type": "address"
        }
      ],
      "stateMutability": "view",
      "type": "function"
    }
  ],
  "bytecode": "0x608060405234801561001057600080fd5b5060405161041f38038061041f83398101604081905261002f91610054565b600080546001600160a01b0319166001600160a01b0392909216919091179055610084565b60006020828403121561006657600080fd5b81516001600160a01b038116811461007d57600080fd5b9392505050565b61038c806100936000396000f3fe608060405234801561001057600080fd5b506004361061004c5760003560e01c8063150b7a02146100515780633c0bbcd91461008257806346877f38146100a6578063d4b83992146100bb575b600080fd5b61006461005f366004610245565b6100e6565b6040516001600160e01b031990911681526020015b60405180910390f35b60005461009690600160a01b900460ff1681565b6040519015158152602001610079565b6100b96100b4366004610321565b61017c565b005b6000546100ce906001600160a01b031681565b6040516001600160a01b039091168152602001610079565b60008054600160a01b900460ff161561016b576000805460405163a0695feb60e01b81523060048201523360248201526044810186905260648101929092526001600160a01b03169063a0695feb90608401600060405180830381600087803b15801561015257600080fd5b505af1158015610166573d6000803e3d6000fd5b505050505b50630a85bd0160e11b949350505050565b60008054600160a01b60ff60a01b1982161790915560405163a0695feb60e01b81523060048201526001600160a01b03848116602483015260448201869052606482018490529091169063a0695feb90608401600060405180830381600087803b1580156101e957600080fd5b505af11580156101fd573d6000803e3d6000fd5b50506000805460ff60a01b191690555050505050565b80356001600160a01b038116811461022a57600080fd5b919050565b634e487b7160e01b600052604160045260246000fd5b6000806000806080858703121561025b57600080fd5b61026485610213565b935061027260208601610213565b925060408501359150606085013567ffffffffffffffff8082111561029657600080fd5b818701915087601f8301126102aa57600080fd5b8135818111156102bc576102bc61022f565b604051601f8201601f19908116603f011681019083821181831017156102e4576102e461022f565b816040528281528a60208487010111156102fd57600080fd5b82602086016020830137600060208483010152809550505050505092959194509250565b60008060006060848603121561033657600080fd5b8335925061034660208501610213565b915060408401359050925092509256fea264697066735822122015e142f7320e36e3b38626d7256c335ae3b7076a4e700d72c5ea910011a8e71264736f6c63430008140033",
  "linkReferences": {},
  "deployedLinkReferences": {}
}