{"contracts/token-managemnt.sol":{"AssetTokenization":{"abi":[{"inputs":[{"internalType":"string","name":"name","type":"string"},{"internalType":"string","name":"symbol","type":"string"}],"stateMutability":"nonpayable","type":"constructor"},{"inputs":[],"name":"AccessControlBadConfirmation","type":"error"},{"inputs":[{"internalType":"address","name":"account","type":"address"},{"internalType":"bytes32","name":"neededRole","type":"bytes32"}],"name":"AccessControlUnauthorizedAccount","type":"error"},{"inputs":[{"internalType":"address","name":"sender","type":"address"},{"internalType":"uint256","name":"tokenId","type":"uint256"},{"internalType":"address","name":"owner","type":"address"}],"name":"ERC721IncorrectOwner","type":"error"},{"inputs":[{"internalType":"address","name":"operator","type":"address"},{"internalType":"uint256","name":"tokenId","type":"uint256"}],"name":"ERC721InsufficientApproval","type":"error"},{"inputs":[{"internalType":"address","name":"approver","type":"address"}],"name":"ERC721InvalidApprover","type":"error"},{"inputs":[{"internalType":"address","name":"operator","type":"address"}],"name":"ERC721InvalidOperator","type":"error"},{"inputs":[{"internalType":"address","name":"owner","type":"address"}],"name":"ERC721InvalidOwner","type":"error"},{"inputs":[{"internalType":"address","name":"receiver","type":"address"}],"name":"ERC721InvalidReceiver","type":"error"},{"inputs":[{"internalType":"address","name":"sender","type":"address"}],"name":"ERC721InvalidSender","type":"error"},{"inputs":[{"internalType":"uint256","name":"tokenId","type":"uint256"}],"name":"ERC721NonexistentToken","type":"error"},{"inputs":[],"name":"ReentrancyGuardReentrantCall","type":"error"},{"anonymous":false,"inputs":[{"indexed":true,"internalType":"address","name":"owner","type":"address"},{"indexed":true,"internalType":"address","name":"approved","type":"address"},{"indexed":true,"internalType":"uint256","name":"tokenId","type":"uint256"}],"name":"Approval","type":"event"},{"anonymous":false,"inputs":[{"indexed":true,"internalType":"address","name":"owner","type":"address"},{"indexed":true,"internalType":"address","name":"operator","type":"address"},{"indexed":false,"internalType":"bool","name":"approved","type":"bool"}],"name":"ApprovalForAll","type":"event"},{"anonymous":false,"inputs":[{"indexed":true,"internalType":"address","name":"owner","type":"address"},{"indexed":true,"internalType":"uint256","name":"assetId","type":"uint256"},{"indexed":false,"internalType":"string","name":"assetType","type":"string"},{"indexed":false,"internalType":"string","name":"metadataURI","type":"string"},{"indexed":false,"internalType":"uint256","name":"valuation","type":"uint256"}],"name":"AssetRegistered","type":"event"},{"anonymous":false,"inputs":[{"indexed":true,"internalType":"uint256","name":"assetId","type":"uint256"},{"indexed":false,"internalType":"enum AssetTokenization.AssetStatus","name":"newStatus","type":"uint8"}],"name":"AssetStatusChanged","type":"event"},{"anonymous":false,"inputs":[{"indexed":true,"internalType":"address","name":"from","type":"address"},{"indexed":true,"internalType":"address","name":"to","type":"address"},{"indexed":true,"internalType":"uint256","name":"assetId","type":"uint256"},{"indexed":false,"internalType":"uint256","name":"price","type":"uint256"}],"name":"AssetTransferred","type":"event"},{"anonymous":false,"inputs":[{"indexed":true,"internalType":"uint256","name":"assetId","type":"uint256"},{"indexed":false,"internalType":"bool","name":"isCompliant","type":"bool"}],"name":"ComplianceUpdated","type":"event"},{"anonymous":false,"inputs":[{"indexed":true,"internalType":"uint256","name":"assetId","type":"uint256"},{"indexed":false,"internalType":"string","name":"newMetadataURI","type":"string"}],"name":"MetadataUpdated","type":"event"},{"anonymous":false,"inputs":[{"indexed":true,"internalType":"bytes32","name":"role","type":"bytes32"},{"indexed":true,"internalType":"bytes32","name":"previousAdminRole","type":"bytes32"},{"indexed":true,"internalType":"bytes32","name":"newAdminRole","type":"bytes32"}],"name":"RoleAdminChanged","type":"event"},{"anonymous":false,"inputs":[{"indexed":true,"internalType":"bytes32","name":"role","type":"bytes32"},{"indexed":true,"internalType":"address","name":"account","type":"address"},{"indexed":true,"internalType":"address","name":"sender","type":"address"}],"name":"RoleGranted","type":"event"},{"anonymous":false,"inputs":[{"indexed":true,"internalType":"bytes32","name":"role","type":"bytes32"},{"indexed":true,"internalType":"address","name":"account","type":"address"},{"indexed":true,"internalType":"address","name":"sender","type":"address"}],"name":"RoleRevoked","type":"event"},{"anonymous":false,"inputs":[{"indexed":true,"internalType":"address","name":"from","type":"address"},{"indexed":true,"internalType":"address","name":"to","type":"address"},{"indexed":true,"internalType":"uint256","name":"tokenId","type":"uint256"}],"name":"Transfer","type":"event"},{"anonymous":false,"inputs":[{"indexed":true,"internalType":"address","name":"user","type":"address"},{"indexed":false,"internalType":"bool","name":"status","type":"bool"}],"name":"UserVerified","type":"event"},{"anonymous":false,"inputs":[{"indexed":true,"internalType":"uint256","name":"assetId","type":"uint256"},{"indexed":false,"internalType":"uint256","name":"newValuation","type":"uint256"}],"name":"ValuationUpdated","type":"event"},{"inputs":[],"name":"ADMIN_ROLE","outputs":[{"internalType":"bytes32","name":"","type":"bytes32"}],"stateMutability":"view","type":"function"},{"inputs":[],"name":"COMPLIANCE_ROLE","outputs":[{"internalType":"bytes32","name":"","type":"bytes32"}],"stateMutability":"view","type":"function"},{"inputs":[],"name":"DEFAULT_ADMIN_ROLE","outputs":[{"internalType":"bytes32","name":"","type":"bytes32"}],"stateMutability":"view","type":"function"},{"inputs":[],"name":"MINTER_ROLE","outputs":[{"internalType":"bytes32","name":"","type":"bytes32"}],"stateMutability":"view","type":"function"},{"inputs":[{"internalType":"address","name":"to","type":"address"},{"internalType":"uint256","name":"tokenId","type":"uint256"}],"name":"approve","outputs":[],"stateMutability":"nonpayable","type":"function"},{"inputs":[{"internalType":"uint256","name":"","type":"uint256"}],"name":"assetDetails","outputs":[{"internalType":"string","name":"metadataURI","type":"string"},{"internalType":"bool","name":"isCompliant","type":"bool"},{"internalType":"enum AssetTokenization.AssetStatus","name":"status","type":"uint8"},{"internalType":"uint256","name":"valuation","type":"uint256"},{"internalType":"uint256","name":"registrationDate","type":"uint256"},{"internalType":"string","name":"assetType","type":"string"}],"stateMutability":"view","type":"function"},{"inputs":[{"internalType":"address","name":"owner","type":"address"}],"name":"balanceOf","outputs":[{"internalType":"uint256","name":"","type":"uint256"}],"stateMutability":"view","type":"function"},{"inputs":[{"internalType":"address[]","name":"users","type":"address[]"},{"internalType":"bool","name":"status","type":"bool"}],"name":"batchVerifyUsers","outputs":[],"stateMutability":"nonpayable","type":"function"},{"inputs":[{"internalType":"uint256","name":"tokenId","type":"uint256"}],"name":"getApproved","outputs":[{"internalType":"address","name":"","type":"address"}],"stateMutability":"view","type":"function"},{"inputs":[{"internalType":"uint256","name":"assetId","type":"uint256"}],"name":"getAssetInfo","outputs":[{"internalType":"string","name":"metadataURI","type":"string"},{"internalType":"bool","name":"isCompliant","type":"bool"},{"internalType":"enum AssetTokenization.AssetStatus","name":"status","type":"uint8"},{"internalType":"uint256","name":"valuation","type":"uint256"},{"internalType":"uint256","name":"registrationDate","type":"uint256"},{"internalType":"string","name":"assetType","type":"string"},{"internalType":"address","name":"owner","type":"address"}],"stateMutability":"view","type":"function"},{"inputs":[{"internalType":"address","name":"owner","type":"address"}],"name":"getAssetsByOwner","outputs":[{"internalType":"uint256[]","name":"","type":"uint256[]"}],"stateMutability":"view","type":"function"},{"inputs":[{"internalType":"bytes32","name":"role","type":"bytes32"}],"name":"getRoleAdmin","outputs":[{"internalType":"bytes32","name":"","type":"bytes32"}],"stateMutability":"view","type":"function"},{"inputs":[{"internalType":"uint256","name":"assetId","type":"uint256"}],"name":"getTransferHistory","outputs":[{"components":[{"internalType":"address","name":"from","type":"address"},{"internalType":"address","name":"to","type":"address"},{"internalType":"uint256","name":"timestamp","type":"uint256"},{"internalType":"uint256","name":"price","type":"uint256"}],"internalType":"struct AssetTokenization.TransferRecord[]","name":"","type":"tuple[]"}],"stateMutability":"view","type":"function"},{"inputs":[{"internalType":"bytes32","name":"role","type":"bytes32"},{"internalType":"address","name":"account","type":"address"}],"name":"grantRole","outputs":[],"stateMutability":"nonpayable","type":"function"},{"inputs":[{"internalType":"bytes32","name":"role","type":"bytes32"},{"internalType":"address","name":"account","type":"address"}],"name":"hasRole","outputs":[{"internalType":"bool","name":"","type":"bool"}],"stateMutability":"view","type":"function"},{"inputs":[{"internalType":"address","name":"owner","type":"address"},{"internalType":"address","name":"operator","type":"address"}],"name":"isApprovedForAll","outputs":[{"internalType":"bool","name":"","type":"bool"}],"stateMutability":"view","type":"function"},{"inputs":[],"name":"name","outputs":[{"internalType":"string","name":"","type":"string"}],"stateMutability":"view","type":"function"},{"inputs":[{"internalType":"uint256","name":"tokenId","type":"uint256"}],"name":"ownerOf","outputs":[{"internalType":"address","name":"","type":"address"}],"stateMutability":"view","type":"function"},{"inputs":[{"internalType":"address","name":"to","type":"address"},{"internalType":"string","name":"metadataURI","type":"string"},{"internalType":"string","name":"assetType","type":"string"},{"internalType":"uint256","name":"valuation","type":"uint256"}],"name":"registerAsset","outputs":[{"internalType":"uint256","name":"","type":"uint256"}],"stateMutability":"nonpayable","type":"function"},{"inputs":[{"internalType":"bytes32","name":"role","type":"bytes32"},{"internalType":"address","name":"callerConfirmation","type":"address"}],"name":"renounceRole","outputs":[],"stateMutability":"nonpayable","type":"function"},{"inputs":[{"internalType":"bytes32","name":"role","type":"bytes32"},{"internalType":"address","name":"account","type":"address"}],"name":"revokeRole","outputs":[],"stateMutability":"nonpayable","type":"function"},{"inputs":[{"internalType":"address","name":"from","type":"address"},{"internalType":"address","name":"to","type":"address"},{"internalType":"uint256","name":"tokenId","type":"uint256"}],"name":"safeTransferFrom","outputs":[],"stateMutability":"nonpayable","type":"function"},{"inputs":[{"internalType":"address","name":"from","type":"address"},{"internalType":"address","name":"to","type":"address"},{"internalType":"uint256","name":"tokenId","type":"uint256"},{"internalType":"bytes","name":"data","type":"bytes"}],"name":"safeTransferFrom","outputs":[],"stateMutability":"nonpayable","type":"function"},{"inputs":[{"internalType":"address","name":"operator","type":"address"},{"internalType":"bool","name":"approved","type":"bool"}],"name":"setApprovalForAll","outputs":[],"stateMutability":"nonpayable","type":"function"},{"inputs":[{"internalType":"uint256","name":"assetId","type":"uint256"},{"internalType":"enum AssetTokenization.AssetStatus","name":"newStatus","type":"uint8"}],"name":"setAssetStatus","outputs":[],"stateMutability":"nonpayable","type":"function"},{"inputs":[{"internalType":"uint256","name":"assetId","type":"uint256"},{"internalType":"bool","name":"status","type":"bool"}],"name":"setCompliance","outputs":[],"stateMutability":"nonpayable","type":"function"},{"inputs":[{"internalType":"address","name":"user","type":"address"},{"internalType":"bool","name":"status","type":"bool"}],"name":"setUserVerification","outputs":[],"stateMutability":"nonpayable","type":"function"},{"inputs":[{"internalType":"bytes4","name":"interfaceId","type":"bytes4"}],"name":"supportsInterface","outputs":[{"internalType":"bool","name":"","type":"bool"}],"stateMutability":"view","type":"function"},{"inputs":[],"name":"symbol","outputs":[{"internalType":"string","name":"","type":"string"}],"stateMutability":"view","type":"function"},{"inputs":[{"internalType":"uint256","name":"assetId","type":"uint256"}],"name":"tokenURI","outputs":[{"internalType":"string","name":"","type":"string"}],"stateMutability":"view","type":"function"},{"inputs":[{"internalType":"address","name":"from","type":"address"},{"internalType":"address","name":"to","type":"address"},{"internalType":"uint256","name":"tokenId","type":"uint256"}],"name":"transferFrom","outputs":[],"stateMutability":"nonpayable","type":"function"},{"inputs":[{"internalType":"uint256","name":"","type":"uint256"},{"internalType":"uint256","name":"","type":"uint256"}],"name":"transferHistory","outputs":[{"internalType":"address","name":"from","type":"address"},{"internalType":"address","name":"to","type":"address"},{"internalType":"uint256","name":"timestamp","type":"uint256"},{"internalType":"uint256","name":"price","type":"uint256"}],"stateMutability":"view","type":"function"},{"inputs":[{"internalType":"address","name":"from","type":"address"},{"internalType":"address","name":"to","type":"address"},{"internalType":"uint256","name":"assetId","type":"uint256"},{"internalType":"uint256","name":"price","type":"uint256"}],"name":"transferWithPrice","outputs":[],"stateMutability":"nonpayable","type":"function"},{"inputs":[{"internalType":"uint256","name":"assetId","type":"uint256"},{"internalType":"string","name":"newMetadataURI","type":"string"}],"name":"updateMetadata","outputs":[],"stateMutability":"nonpayable","type":"function"},{"inputs":[{"internalType":"uint256","name":"assetId","type":"uint256"},{"internalType":"uint256","name":"newValuation","type":"uint256"}],"name":"updateValuation","outputs":[],"stateMutability":"nonpayable","type":"function"},{"inputs":[{"internalType":"address","name":"","type":"address"}],"name":"verifiedUsers","outputs":[{"internalType":"bool","name":"","type":"bool"}],"stateMutability":"view","type":"function"}],"evm":{"bytecode":{"linkReferences":{},"object":"60806040523480156200001157600080fd5b5060405162002f5e38038062002f5e83398101604081905262000034916200028a565b8181600062000044838262000383565b50600162000053828262000383565b50506001600755506200006860003362000112565b50620000957fa49807205ce4d355092ef5a8a18f56e8913cf4a201fbe287825b095693c217753362000112565b50620000c27f9f2df0fed2c77648de5860a4cc508cd0818c85b8b8a1ab4ceeef8d981c8956a63362000112565b50620000ef7f442a94f1a1fac79af32856af2a64f63648cfa2ef3b98610a5bb7cbec4cee69853362000112565b5050336000908152600a60205260409020805460ff19166001179055506200044f565b60008281526006602090815260408083206001600160a01b038516845290915281205460ff16620001bb5760008381526006602090815260408083206001600160a01b03861684529091529020805460ff19166001179055620001723390565b6001600160a01b0316826001600160a01b0316847f2f8788117e7eff1d82e926ec794901d17c78024a50270940304540a733656f0d60405160405180910390a4506001620001bf565b5060005b92915050565b634e487b7160e01b600052604160045260246000fd5b600082601f830112620001ed57600080fd5b81516001600160401b03808211156200020a576200020a620001c5565b604051601f8301601f19908116603f01168101908282118183101715620002355762000235620001c5565b816040528381526020925086838588010111156200025257600080fd5b600091505b8382101562000276578582018301518183018401529082019062000257565b600093810190920192909252949350505050565b600080604083850312156200029e57600080fd5b82516001600160401b0380821115620002b657600080fd5b620002c486838701620001db565b93506020850151915080821115620002db57600080fd5b50620002ea85828601620001db565b9150509250929050565b600181811c908216806200030957607f821691505b6020821081036200032a57634e487b7160e01b600052602260045260246000fd5b50919050565b601f8211156200037e57600081815260208120601f850160051c81016020861015620003595750805b601f850160051c820191505b818110156200037a5782815560010162000365565b5050505b505050565b81516001600160401b038111156200039f576200039f620001c5565b620003b781620003b08454620002f4565b8462000330565b602080601f831160018114620003ef5760008415620003d65750858301515b600019600386901b1c1916600185901b1785556200037a565b600085815260208120601f198616915b828110156200042057888601518255948401946001909101908401620003ff565b50858210156200043f5787850151600019600388901b60f8161c191681555b5050505050600190811b01905550565b612aff806200045f6000396000f3fe608060405234801561001057600080fd5b506004361061021c5760003560e01c806370a0823111610125578063b88d4fde116100ad578063d547741f1161007c578063d547741f146104eb578063dedaff54146104fe578063e35fe3661461053c578063e985e9c51461055f578063f637d9501461057257600080fd5b8063b88d4fde14610479578063c39675281461048c578063c87b56dd146104b1578063d5391393146104c457600080fd5b806395d89b41116100f457806395d89b4114610430578063997f524a14610438578063a0695feb1461044b578063a217fddf1461045e578063a22cb4651461046657600080fd5b806370a08231146103d557806375b238fc146103e85780638bb27d02146103fd57806391d148541461041d57600080fd5b80632f2ff15d116101a857806345e2a06c1161017757806345e2a06c1461037657806353c8388e1461038957806354aa5f3c1461039c5780636352211e146103af5780636dc0fc6b146103c257600080fd5b80632f2ff15d1461032a57806330e4592c1461033d57806336568abe1461035057806342842e0e1461036357600080fd5b8063095ea7b3116101ef578063095ea7b3146102ac578063158aaead146102c157806323b872dd146102d4578063248a9ca3146102e7578063276f09341461030a57600080fd5b806301ffc9a714610221578063062d3bd71461024957806306fdde031461026c578063081812fc14610281575b600080fd5b61023461022f366004612166565b610598565b60405190151581526020015b60405180910390f35b61025e600080516020612a8a83398151915281565b604051908152602001610240565b6102746105a9565b60405161024091906121d0565b61029461028f3660046121e3565b61063b565b6040516001600160a01b039091168152602001610240565b6102bf6102ba366004612218565b610664565b005b6102bf6102cf366004612242565b610673565b6102bf6102e2366004612276565b610737565b61025e6102f53660046121e3565b60009081526006602052604090206001015490565b61031d6103183660046122b2565b6107c2565b60405161024091906122cd565b6102bf610338366004612311565b610896565b61025e61034b3660046123e9565b6108bb565b6102bf61035e366004612311565b610a4d565b6102bf610371366004612276565b610a85565b6102bf610384366004612475565b610aa0565b6102bf6103973660046124f9565b610b9b565b6102bf6103aa366004612540565b610c2d565b6102946103bd3660046121e3565b610cc9565b6102bf6103d0366004612563565b610cd4565b61025e6103e33660046122b2565b610d65565b61025e600080516020612aaa83398151915281565b61041061040b3660046121e3565b610dad565b6040516102409190612585565b61023461042b366004612311565b610e76565b610274610ea1565b6102bf6104463660046125f5565b610eb0565b6102bf61045936600461261f565b610f20565b61025e600081565b6102bf6104743660046125f5565b6110a2565b6102bf610487366004612661565b6110ad565b61049f61049a3660046121e3565b6110c5565b60405161024096959493929190612715565b6102746104bf3660046121e3565b611213565b61025e7f9f2df0fed2c77648de5860a4cc508cd0818c85b8b8a1ab4ceeef8d981c8956a681565b6102bf6104f9366004612311565b6112e4565b61051161050c366004612563565b611309565b604080516001600160a01b039586168152949093166020850152918301526060820152608001610240565b61023461054a3660046122b2565b600a6020526000908152604090205460ff1681565b61023461056d366004612768565b61135b565b6105856105803660046121e3565b611389565b6040516102409796959493929190612792565b60006105a382611595565b92915050565b6060600080546105b8906127f5565b80601f01602080910402602001604051908101604052809291908181526020018280546105e4906127f5565b80156106315780601f1061060657610100808354040283529160200191610631565b820191906000526020600020905b81548152906001019060200180831161061457829003601f168201915b5050505050905090565b6000610646826115ba565b506000828152600460205260409020546001600160a01b03166105a3565b61066f8282336115f2565b5050565b600080516020612aaa83398151915261068b816115ff565b60006106968461160c565b6001600160a01b0316036106c55760405162461bcd60e51b81526004016106bc9061282f565b60405180910390fd5b6000838152600860205260409020600101805483919061ff0019166101008360038111156106f5576106f56126dd565b0217905550827f686cbb6b476fac353118f8ae6a2e3fe7540fc87f6a84c97dcfee5cab91583d818360405161072a919061285d565b60405180910390a2505050565b6001600160a01b03821661076157604051633250574960e11b8152600060048201526024016106bc565b600061076e838333611627565b9050836001600160a01b0316816001600160a01b0316146107bc576040516364283d7b60e01b81526001600160a01b03808616600483015260248201849052821660448201526064016106bc565b50505050565b606060006107cf83610d65565b905060008167ffffffffffffffff8111156107ec576107ec61233d565b604051908082528060200260200182016040528015610815578160200160208202803683370190505b5090506000805b600b5481101561088c57856001600160a01b03166108398261160c565b6001600160a01b03160361087a578083838151811061085a5761085a61286b565b60209081029190910101528161086f81612897565b92505083821461088c575b8061088481612897565b91505061081c565b5090949350505050565b6000828152600660205260409020600101546108b1816115ff565b6107bc83836119c8565b60007f9f2df0fed2c77648de5860a4cc508cd0818c85b8b8a1ab4ceeef8d981c8956a66108e7816115ff565b6001600160a01b0386166000908152600a602052604090205460ff1661091f5760405162461bcd60e51b81526004016106bc906128b0565b600b80546000918261093083612897565b9190505590506109408782611a5c565b6040805160c081018252878152600060208083018290528284018290526060830188905242608084015260a0830189905284825260089052919091208151819061098a9082612926565b50602082015160018201805491151560ff1983168117825560408501519261ff001990911661ffff19909116176101008360038111156109cc576109cc6126dd565b0217905550606082015160028201556080820151600382015560a082015160048201906109f99082612926565b5090505080876001600160a01b03167ff3c2b254f1019b7a489eb8df74ffe59ff452b5662611d76c6bbc8aea54bb7ca5878988604051610a3b939291906129e6565b60405180910390a39695505050505050565b6001600160a01b0381163314610a765760405163334bd91960e11b815260040160405180910390fd5b610a808282611a76565b505050565b610a80838383604051806020016040528060008152506110ad565b600080516020612a8a833981519152610ab8816115ff565b60005b83811015610b945782600a6000878785818110610ada57610ada61286b565b9050602002016020810190610aef91906122b2565b6001600160a01b031681526020810191909152604001600020805460ff1916911515919091179055848482818110610b2957610b2961286b565b9050602002016020810190610b3e91906122b2565b6001600160a01b03167f34736af44d2b91cd43fa896d4cfe0861ec1e6b4538583d385fc671639e9153b284604051610b7a911515815260200190565b60405180910390a280610b8c81612897565b915050610abb565b5050505050565b600080516020612aaa833981519152610bb3816115ff565b6000610bbe8461160c565b6001600160a01b031603610be45760405162461bcd60e51b81526004016106bc9061282f565b6000838152600860205260409020610bfc8382612926565b50827f459157ba24c7ab9878b165ef465fa6ae2ab42bcd8445f576be378768b0c473098360405161072a91906121d0565b600080516020612a8a833981519152610c45816115ff565b6000610c508461160c565b6001600160a01b031603610c765760405162461bcd60e51b81526004016106bc9061282f565b600083815260086020908152604091829020600101805460ff1916851515908117909155915191825284917fc0ef05ad7b90347a9b2ea53e56c4487d173b0f9a4644ed41cf9e504b1c639324910161072a565b60006105a3826115ba565b600080516020612aaa833981519152610cec816115ff565b6000610cf78461160c565b6001600160a01b031603610d1d5760405162461bcd60e51b81526004016106bc9061282f565b600083815260086020526040908190206002018390555183907f8d45721c0edcd094d637f66e971ce1167f974eed315c9a31b6ce145067760acc9061072a9085815260200190565b60006001600160a01b038216610d91576040516322718ad960e21b8152600060048201526024016106bc565b506001600160a01b031660009081526003602052604090205490565b60606000610dba8361160c565b6001600160a01b031603610de05760405162461bcd60e51b81526004016106bc9061282f565b600082815260096020908152604080832080548251818502810185019093528083529193909284015b82821015610e6b576000848152602090819020604080516080810182526004860290920180546001600160a01b039081168452600180830154909116848601526002820154928401929092526003015460608301529083529092019101610e09565b505050509050919050565b60009182526006602090815260408084206001600160a01b0393909316845291905290205460ff1690565b6060600180546105b8906127f5565b600080516020612a8a833981519152610ec8816115ff565b6001600160a01b0383166000818152600a6020908152604091829020805460ff191686151590811790915591519182527f34736af44d2b91cd43fa896d4cfe0861ec1e6b4538583d385fc671639e9153b2910161072a565b610f28611ae3565b610f3b610f348361160c565b3384611b0d565b610f785760405162461bcd60e51b815260206004820152600e60248201526d139bdd08185d5d1a1bdc9a5e995960921b60448201526064016106bc565b6001600160a01b0383166000908152600a602052604090205460ff16610fb05760405162461bcd60e51b81526004016106bc906128b0565b600082815260096020908152604080832081516080810183526001600160a01b03808a1682528881168286019081524294830194855260608301888152845460018181018755958952969097209251600490960290920180549582166001600160a01b031996871617815591519282018054939091169290941691909117909255516002820155905160039091015561104a848484611b73565b81836001600160a01b0316856001600160a01b03167f7a3278a8c40fdf2dcb3301c764c869a2d4514928f1b7c49671663b7a4e5b7ef08460405161109091815260200190565b60405180910390a46107bc6001600755565b61066f338383611c23565b6110b8848484610737565b6107bc3385858585611cc2565b6008602052600090815260409020805481906110e0906127f5565b80601f016020809104026020016040519081016040528092919081815260200182805461110c906127f5565b80156111595780601f1061112e57610100808354040283529160200191611159565b820191906000526020600020905b81548152906001019060200180831161113c57829003601f168201915b505050600184015460028501546003860154600487018054969760ff808616986101009096041696509294509092611190906127f5565b80601f01602080910402602001604051908101604052809291908181526020018280546111bc906127f5565b80156112095780601f106111de57610100808354040283529160200191611209565b820191906000526020600020905b8154815290600101906020018083116111ec57829003601f168201915b5050505050905086565b606060006112208361160c565b6001600160a01b0316036112465760405162461bcd60e51b81526004016106bc9061282f565b6000828152600860205260409020805461125f906127f5565b80601f016020809104026020016040519081016040528092919081815260200182805461128b906127f5565b80156112d85780601f106112ad576101008083540402835291602001916112d8565b820191906000526020600020905b8154815290600101906020018083116112bb57829003601f168201915b50505050509050919050565b6000828152600660205260409020600101546112ff816115ff565b6107bc8383611a76565b6009602052816000526040600020818154811061132557600080fd5b600091825260209091206004909102018054600182015460028301546003909301546001600160a01b0392831695509116925084565b6001600160a01b03918216600090815260056020908152604080832093909416825291909152205460ff1690565b6060600080808084818061139c8961160c565b6001600160a01b0316036113c25760405162461bcd60e51b81526004016106bc9061282f565b600088815260086020526040808220815160c081019092528054829082906113e9906127f5565b80601f0160208091040260200160405190810160405280929190818152602001828054611415906127f5565b80156114625780601f1061143757610100808354040283529160200191611462565b820191906000526020600020905b81548152906001019060200180831161144557829003601f168201915b5050509183525050600182015460ff80821615156020840152604090920191610100909104166003811115611499576114996126dd565b60038111156114aa576114aa6126dd565b815260200160028201548152602001600382015481526020016004820180546114d2906127f5565b80601f01602080910402602001604051908101604052809291908181526020018280546114fe906127f5565b801561154b5780601f106115205761010080835404028352916020019161154b565b820191906000526020600020905b81548152906001019060200180831161152e57829003601f168201915b5050505050815250509050806000015181602001518260400151836060015184608001518560a0015161157d8f61160c565b959f949e50929c50909a509850965090945092505050565b60006001600160e01b03198216637965db0b60e01b14806105a357506105a382611dec565b6000806115c68361160c565b90506001600160a01b0381166105a357604051637e27328960e01b8152600481018490526024016106bc565b610a808383836001611e3c565b6116098133611f42565b50565b6000908152600260205260409020546001600160a01b031690565b6000806116338461160c565b90506001600160a01b038116156119b457600084815260086020526040808220815160c0810190925280548290829061166b906127f5565b80601f0160208091040260200160405190810160405280929190818152602001828054611697906127f5565b80156116e45780601f106116b9576101008083540402835291602001916116e4565b820191906000526020600020905b8154815290600101906020018083116116c757829003601f168201915b5050509183525050600182015460ff8082161515602084015260409092019161010090910416600381111561171b5761171b6126dd565b600381111561172c5761172c6126dd565b81526020016002820154815260200160038201548152602001600482018054611754906127f5565b80601f0160208091040260200160405190810160405280929190818152602001828054611780906127f5565b80156117cd5780601f106117a2576101008083540402835291602001916117cd565b820191906000526020600020905b8154815290600101906020018083116117b057829003601f168201915b5050505050815250509050806020015161181f5760405162461bcd60e51b8152602060048201526013602482015272105cdcd95d081b9bdd0818dbdb5c1b1a585b9d606a1b60448201526064016106bc565b600181604001516003811115611837576118376126dd565b146118775760405162461bcd60e51b815260206004820152601060248201526f4173736574206e6f742061637469766560801b60448201526064016106bc565b6001600160a01b0386166000908152600a602052604090205460ff166118af5760405162461bcd60e51b81526004016106bc906128b0565b600085815260096020526040902054158061191d5750600085815260096020526040902080546001600160a01b03881691906118ed90600190612a1c565b815481106118fd576118fd61286b565b60009182526020909120600160049092020101546001600160a01b031614155b156119b257600085815260096020908152604080832081516080810183526001600160a01b0380881682528b81168286019081524294830194855260608301878152845460018181018755958952969097209251600490960290920180549582166001600160a01b03199687161781559151928201805493909116929094169190911790925551600282015590516003909101555b505b6119bf858585611f7b565b95945050505050565b60006119d48383610e76565b611a545760008381526006602090815260408083206001600160a01b03861684529091529020805460ff19166001179055611a0c3390565b6001600160a01b0316826001600160a01b0316847f2f8788117e7eff1d82e926ec794901d17c78024a50270940304540a733656f0d60405160405180910390a45060016105a3565b5060006105a3565b61066f82826040518060200160405280600081525061206f565b6000611a828383610e76565b15611a545760008381526006602090815260408083206001600160a01b0386168085529252808320805460ff1916905551339286917ff6391f5c32d9c69d2a47ea670b442974b53935d1edc7fd64eb21e047a839171b9190a45060016105a3565b600260075403611b0657604051633ee5aeb560e01b815260040160405180910390fd5b6002600755565b60006001600160a01b03831615801590611b6b5750826001600160a01b0316846001600160a01b03161480611b475750611b47848461135b565b80611b6b57506000828152600460205260409020546001600160a01b038481169116145b949350505050565b6001600160a01b038216611b9d57604051633250574960e11b8152600060048201526024016106bc565b6000611bab83836000611627565b90506001600160a01b038116611bd757604051637e27328960e01b8152600481018390526024016106bc565b836001600160a01b0316816001600160a01b0316146107bc576040516364283d7b60e01b81526001600160a01b03808616600483015260248201849052821660448201526064016106bc565b6001600160a01b038216611c5557604051630b61174360e31b81526001600160a01b03831660048201526024016106bc565b6001600160a01b03838116600081815260056020908152604080832094871680845294825291829020805460ff191686151590811790915591519182527f17307eab39ab6107e8899845ad3d59bd9653f200f220920489ca2b5937696c31910160405180910390a3505050565b6001600160a01b0383163b15610b9457604051630a85bd0160e11b81526001600160a01b0384169063150b7a0290611d04908890889087908790600401612a2f565b6020604051808303816000875af1925050508015611d3f575060408051601f3d908101601f19168201909252611d3c91810190612a6c565b60015b611da8573d808015611d6d576040519150601f19603f3d011682016040523d82523d6000602084013e611d72565b606091505b508051600003611da057604051633250574960e11b81526001600160a01b03851660048201526024016106bc565b805160208201fd5b6001600160e01b03198116630a85bd0160e11b14611de457604051633250574960e11b81526001600160a01b03851660048201526024016106bc565b505050505050565b60006001600160e01b031982166380ac58cd60e01b1480611e1d57506001600160e01b03198216635b5e139f60e01b145b806105a357506301ffc9a760e01b6001600160e01b03198316146105a3565b8080611e5057506001600160a01b03821615155b15611f12576000611e60846115ba565b90506001600160a01b03831615801590611e8c5750826001600160a01b0316816001600160a01b031614155b8015611e9f5750611e9d818461135b565b155b15611ec85760405163a9fbf51f60e01b81526001600160a01b03841660048201526024016106bc565b8115611f105783856001600160a01b0316826001600160a01b03167f8c5be1e5ebec7d5bd14f71427d1e84f3dd0314c0f7b2291e5b200ac8c7c3b92560405160405180910390a45b505b5050600090815260046020526040902080546001600160a01b0319166001600160a01b0392909216919091179055565b611f4c8282610e76565b61066f5760405163e2517d3f60e01b81526001600160a01b0382166004820152602481018390526044016106bc565b600080611f878461160c565b90506001600160a01b03831615611fa357611fa3818486612087565b6001600160a01b03811615611fe157611fc0600085600080611e3c565b6001600160a01b038116600090815260036020526040902080546000190190555b6001600160a01b03851615612010576001600160a01b0385166000908152600360205260409020805460010190555b60008481526002602052604080822080546001600160a01b0319166001600160a01b0389811691821790925591518793918516917fddf252ad1be2c89b69c2b068fc378daa952ba7f163c4a11628f55a4df523b3ef91a4949350505050565b61207983836120eb565b610a80336000858585611cc2565b612092838383611b0d565b610a80576001600160a01b0383166120c057604051637e27328960e01b8152600481018290526024016106bc565b60405163177e802f60e01b81526001600160a01b0383166004820152602481018290526044016106bc565b6001600160a01b03821661211557604051633250574960e11b8152600060048201526024016106bc565b600061212383836000611627565b90506001600160a01b03811615610a80576040516339e3563760e11b8152600060048201526024016106bc565b6001600160e01b03198116811461160957600080fd5b60006020828403121561217857600080fd5b813561218381612150565b9392505050565b6000815180845260005b818110156121b057602081850181015186830182015201612194565b506000602082860101526020601f19601f83011685010191505092915050565b602081526000612183602083018461218a565b6000602082840312156121f557600080fd5b5035919050565b80356001600160a01b038116811461221357600080fd5b919050565b6000806040838503121561222b57600080fd5b612234836121fc565b946020939093013593505050565b6000806040838503121561225557600080fd5b8235915060208301356004811061226b57600080fd5b809150509250929050565b60008060006060848603121561228b57600080fd5b612294846121fc565b92506122a2602085016121fc565b9150604084013590509250925092565b6000602082840312156122c457600080fd5b612183826121fc565b6020808252825182820181905260009190848201906040850190845b81811015612305578351835292840192918401916001016122e9565b50909695505050505050565b6000806040838503121561232457600080fd5b82359150612334602084016121fc565b90509250929050565b634e487b7160e01b600052604160045260246000fd5b600067ffffffffffffffff8084111561236e5761236e61233d565b604051601f8501601f19908116603f011681019082821181831017156123965761239661233d565b816040528093508581528686860111156123af57600080fd5b858560208301376000602087830101525050509392505050565b600082601f8301126123da57600080fd5b61218383833560208501612353565b600080600080608085870312156123ff57600080fd5b612408856121fc565b9350602085013567ffffffffffffffff8082111561242557600080fd5b612431888389016123c9565b9450604087013591508082111561244757600080fd5b50612454878288016123c9565b949793965093946060013593505050565b8035801515811461221357600080fd5b60008060006040848603121561248a57600080fd5b833567ffffffffffffffff808211156124a257600080fd5b818601915086601f8301126124b657600080fd5b8135818111156124c557600080fd5b8760208260051b85010111156124da57600080fd5b6020928301955093506124f09186019050612465565b90509250925092565b6000806040838503121561250c57600080fd5b82359150602083013567ffffffffffffffff81111561252a57600080fd5b612536858286016123c9565b9150509250929050565b6000806040838503121561255357600080fd5b8235915061233460208401612465565b6000806040838503121561257657600080fd5b50508035926020909101359150565b602080825282518282018190526000919060409081850190868401855b828110156125e857815180516001600160a01b039081168652878201511687860152858101518686015260609081015190850152608090930192908501906001016125a2565b5091979650505050505050565b6000806040838503121561260857600080fd5b612611836121fc565b915061233460208401612465565b6000806000806080858703121561263557600080fd5b61263e856121fc565b935061264c602086016121fc565b93969395505050506040820135916060013590565b6000806000806080858703121561267757600080fd5b612680856121fc565b935061268e602086016121fc565b925060408501359150606085013567ffffffffffffffff8111156126b157600080fd5b8501601f810187136126c257600080fd5b6126d187823560208401612353565b91505092959194509250565b634e487b7160e01b600052602160045260246000fd5b6004811061271157634e487b7160e01b600052602160045260246000fd5b9052565b60c08152600061272860c083018961218a565b871515602084015261273d60408401886126f3565b85606084015284608084015282810360a084015261275b818561218a565b9998505050505050505050565b6000806040838503121561277b57600080fd5b612784836121fc565b9150612334602084016121fc565b60e0815260006127a560e083018a61218a565b88151560208401526127ba60408401896126f3565b86606084015285608084015282810360a08401526127d8818661218a565b91505060018060a01b03831660c083015298975050505050505050565b600181811c9082168061280957607f821691505b60208210810361282957634e487b7160e01b600052602260045260246000fd5b50919050565b602080825260149082015273105cdcd95d08191bd95cc81b9bdd08195e1a5cdd60621b604082015260600190565b602081016105a382846126f3565b634e487b7160e01b600052603260045260246000fd5b634e487b7160e01b600052601160045260246000fd5b6000600182016128a9576128a9612881565b5060010190565b602080825260169082015275149958da5c1a595b9d081b9bdd081d995c9a599a595960521b604082015260600190565b601f821115610a8057600081815260208120601f850160051c810160208610156129075750805b601f850160051c820191505b81811015611de457828155600101612913565b815167ffffffffffffffff8111156129405761294061233d565b6129548161294e84546127f5565b846128e0565b602080601f83116001811461298957600084156129715750858301515b600019600386901b1c1916600185901b178555611de4565b600085815260208120601f198616915b828110156129b857888601518255948401946001909101908401612999565b50858210156129d65787850151600019600388901b60f8161c191681555b5050505050600190811b01905550565b6060815260006129f9606083018661218a565b8281036020840152612a0b818661218a565b915050826040830152949350505050565b818103818111156105a3576105a3612881565b6001600160a01b0385811682528416602082015260408101839052608060608201819052600090612a629083018461218a565b9695505050505050565b600060208284031215612a7e57600080fd5b81516121838161215056fe442a94f1a1fac79af32856af2a64f63648cfa2ef3b98610a5bb7cbec4cee6985a49807205ce4d355092ef5a8a18f56e8913cf4a201fbe287825b095693c21775a2646970667358221220982696500633a43b26a862051c9ed2d70a7a146b4591a2a75f15b747bc89f3dc64736f6c63430008140033","opcodes":"PUSH1 0x80 PUSH1 0x40 MSTORE CALLVALUE DUP1 ISZERO PUSH3 0x11 JUMPI PUSH1 0x0 DUP1 REVERT JUMPDEST POP PUSH1 0x40 MLOAD PUSH3 0x2F5E CODESIZE SUB DUP1 PUSH3 0x2F5E DUP4 CODECOPY DUP2 ADD PUSH1 0x40 DUP2 SWAP1 MSTORE PUSH3 0x34 SWAP2 PUSH3 0x28A JUMP JUMPDEST DUP2 DUP2 PUSH1 0x0 PUSH3 0x44 DUP4 DUP3 PUSH3 0x383 JUMP JUMPDEST POP PUSH1 0x1 PUSH3 0x53 DUP3 DUP3 PUSH3 0x383 JUMP JUMPDEST POP POP PUSH1 0x1 PUSH1 0x7 SSTORE POP PUSH3 0x68 PUSH1 0x0 CALLER PUSH3 0x112 JUMP JUMPDEST POP PUSH3 0x95 PUSH32 0xA49807205CE4D355092EF5A8A18F56E8913CF4A201FBE287825B095693C21775 CALLER PUSH3 0x112 JUMP JUMPDEST POP PUSH3 0xC2 PUSH32 0x9F2DF0FED2C77648DE5860A4CC508CD0818C85B8B8A1AB4CEEEF8D981C8956A6 CALLER PUSH3 0x112 JUMP JUMPDEST POP PUSH3 0xEF PUSH32 0x442A94F1A1FAC79AF32856AF2A64F63648CFA2EF3B98610A5BB7CBEC4CEE6985 CALLER PUSH3 0x112 JUMP JUMPDEST POP POP CALLER PUSH1 0x0 SWAP1 DUP2 MSTORE PUSH1 0xA PUSH1 0x20 MSTORE PUSH1 0x40 SWAP1 KECCAK256 DUP1 SLOAD PUSH1 0xFF NOT AND PUSH1 0x1 OR SWAP1 SSTORE POP PUSH3 0x44F JUMP JUMPDEST PUSH1 0x0 DUP3 DUP2 MSTORE PUSH1 0x6 PUSH1 0x20 SWAP1 DUP2 MSTORE PUSH1 0x40 DUP1 DUP4 KECCAK256 PUSH1 0x1 PUSH1 0x1 PUSH1 0xA0 SHL SUB DUP6 AND DUP5 MSTORE SWAP1 SWAP2 MSTORE DUP2 KECCAK256 SLOAD PUSH1 0xFF AND PUSH3 0x1BB JUMPI PUSH1 0x0 DUP4 DUP2 MSTORE PUSH1 0x6 PUSH1 0x20 SWAP1 DUP2 MSTORE PUSH1 0x40 DUP1 DUP4 KECCAK256 PUSH1 0x1 PUSH1 0x1 PUSH1 0xA0 SHL SUB DUP7 AND DUP5 MSTORE SWAP1 SWAP2 MSTORE SWAP1 KECCAK256 DUP1 SLOAD PUSH1 0xFF NOT AND PUSH1 0x1 OR SWAP1 SSTORE PUSH3 0x172 CALLER SWAP1 JUMP JUMPDEST PUSH1 0x1 PUSH1 0x1 PUSH1 0xA0 SHL SUB AND DUP3 PUSH1 0x1 PUSH1 0x1 PUSH1 0xA0 SHL SUB AND DUP5 PUSH32 0x2F8788117E7EFF1D82E926EC794901D17C78024A50270940304540A733656F0D PUSH1 0x40 MLOAD PUSH1 0x40 MLOAD DUP1 SWAP2 SUB SWAP1 LOG4 POP PUSH1 0x1 PUSH3 0x1BF JUMP JUMPDEST POP PUSH1 0x0 JUMPDEST SWAP3 SWAP2 POP POP JUMP JUMPDEST PUSH4 0x4E487B71 PUSH1 0xE0 SHL PUSH1 0x0 MSTORE PUSH1 0x41 PUSH1 0x4 MSTORE PUSH1 0x24 PUSH1 0x0 REVERT JUMPDEST PUSH1 0x0 DUP3 PUSH1 0x1F DUP4 ADD SLT PUSH3 0x1ED JUMPI PUSH1 0x0 DUP1 REVERT JUMPDEST DUP2 MLOAD PUSH1 0x1 PUSH1 0x1 PUSH1 0x40 SHL SUB DUP1 DUP3 GT ISZERO PUSH3 0x20A JUMPI PUSH3 0x20A PUSH3 0x1C5 JUMP JUMPDEST PUSH1 0x40 MLOAD PUSH1 0x1F DUP4 ADD PUSH1 0x1F NOT SWAP1 DUP2 AND PUSH1 0x3F ADD AND DUP2 ADD SWAP1 DUP3 DUP3 GT DUP2 DUP4 LT OR ISZERO PUSH3 0x235 JUMPI PUSH3 0x235 PUSH3 0x1C5 JUMP JUMPDEST DUP2 PUSH1 0x40 MSTORE DUP4 DUP2 MSTORE PUSH1 0x20 SWAP3 POP DUP7 DUP4 DUP6 DUP9 ADD ADD GT ISZERO PUSH3 0x252 JUMPI PUSH1 0x0 DUP1 REVERT JUMPDEST PUSH1 0x0 SWAP2 POP JUMPDEST DUP4 DUP3 LT ISZERO PUSH3 0x276 JUMPI DUP6 DUP3 ADD DUP4 ADD MLOAD DUP2 DUP4 ADD DUP5 ADD MSTORE SWAP1 DUP3 ADD SWAP1 PUSH3 0x257 JUMP JUMPDEST PUSH1 0x0 SWAP4 DUP2 ADD SWAP1 SWAP3 ADD SWAP3 SWAP1 SWAP3 MSTORE SWAP5 SWAP4 POP POP POP POP JUMP JUMPDEST PUSH1 0x0 DUP1 PUSH1 0x40 DUP4 DUP6 SUB SLT ISZERO PUSH3 0x29E JUMPI PUSH1 0x0 DUP1 REVERT JUMPDEST DUP3 MLOAD PUSH1 0x1 PUSH1 0x1 PUSH1 0x40 SHL SUB DUP1 DUP3 GT ISZERO PUSH3 0x2B6 JUMPI PUSH1 0x0 DUP1 REVERT JUMPDEST PUSH3 0x2C4 DUP7 DUP4 DUP8 ADD PUSH3 0x1DB JUMP JUMPDEST SWAP4 POP PUSH1 0x20 DUP6 ADD MLOAD SWAP2 POP DUP1 DUP3 GT ISZERO PUSH3 0x2DB JUMPI PUSH1 0x0 DUP1 REVERT JUMPDEST POP PUSH3 0x2EA DUP6 DUP3 DUP7 ADD PUSH3 0x1DB JUMP JUMPDEST SWAP2 POP POP SWAP3 POP SWAP3 SWAP1 POP JUMP JUMPDEST PUSH1 0x1 DUP2 DUP2 SHR SWAP1 DUP3 AND DUP1 PUSH3 0x309 JUMPI PUSH1 0x7F DUP3 AND SWAP2 POP JUMPDEST PUSH1 0x20 DUP3 LT DUP2 SUB PUSH3 0x32A JUMPI PUSH4 0x4E487B71 PUSH1 0xE0 SHL PUSH1 0x0 MSTORE PUSH1 0x22 PUSH1 0x4 MSTORE PUSH1 0x24 PUSH1 0x0 REVERT JUMPDEST POP SWAP2 SWAP1 POP JUMP JUMPDEST PUSH1 0x1F DUP3 GT ISZERO PUSH3 0x37E JUMPI PUSH1 0x0 DUP2 DUP2 MSTORE PUSH1 0x20 DUP2 KECCAK256 PUSH1 0x1F DUP6 ADD PUSH1 0x5 SHR DUP2 ADD PUSH1 0x20 DUP7 LT ISZERO PUSH3 0x359 JUMPI POP DUP1 JUMPDEST PUSH1 0x1F DUP6 ADD PUSH1 0x5 SHR DUP3 ADD SWAP2 POP JUMPDEST DUP2 DUP2 LT ISZERO PUSH3 0x37A JUMPI DUP3 DUP2 SSTORE PUSH1 0x1 ADD PUSH3 0x365 JUMP JUMPDEST POP POP POP JUMPDEST POP POP POP JUMP JUMPDEST DUP2 MLOAD PUSH1 0x1 PUSH1 0x1 PUSH1 0x40 SHL SUB DUP2 GT ISZERO PUSH3 0x39F JUMPI PUSH3 0x39F PUSH3 0x1C5 JUMP JUMPDEST PUSH3 0x3B7 DUP2 PUSH3 0x3B0 DUP5 SLOAD PUSH3 0x2F4 JUMP JUMPDEST DUP5 PUSH3 0x330 JUMP JUMPDEST PUSH1 0x20 DUP1 PUSH1 0x1F DUP4 GT PUSH1 0x1 DUP2 EQ PUSH3 0x3EF JUMPI PUSH1 0x0 DUP5 ISZERO PUSH3 0x3D6 JUMPI POP DUP6 DUP4 ADD MLOAD JUMPDEST PUSH1 0x0 NOT PUSH1 0x3 DUP7 SWAP1 SHL SHR NOT AND PUSH1 0x1 DUP6 SWAP1 SHL OR DUP6 SSTORE PUSH3 0x37A JUMP JUMPDEST PUSH1 0x0 DUP6 DUP2 MSTORE PUSH1 0x20 DUP2 KECCAK256 PUSH1 0x1F NOT DUP7 AND SWAP2 JUMPDEST DUP3 DUP2 LT ISZERO PUSH3 0x420 JUMPI DUP9 DUP7 ADD MLOAD DUP3 SSTORE SWAP5 DUP5 ADD SWAP5 PUSH1 0x1 SWAP1 SWAP2 ADD SWAP1 DUP5 ADD PUSH3 0x3FF JUMP JUMPDEST POP DUP6 DUP3 LT ISZERO PUSH3 0x43F JUMPI DUP8 DUP6 ADD MLOAD PUSH1 0x0 NOT PUSH1 0x3 DUP9 SWAP1 SHL PUSH1 0xF8 AND SHR NOT AND DUP2 SSTORE JUMPDEST POP POP POP POP POP PUSH1 0x1 SWAP1 DUP2 SHL ADD SWAP1 SSTORE POP JUMP JUMPDEST PUSH2 0x2AFF DUP1 PUSH3 0x45F PUSH1 0x0 CODECOPY PUSH1 0x0 RETURN INVALID PUSH1 0x80 PUSH1 0x40 MSTORE CALLVALUE DUP1 ISZERO PUSH2 0x10 JUMPI PUSH1 0x0 DUP1 REVERT JUMPDEST POP PUSH1 0x4 CALLDATASIZE LT PUSH2 0x21C JUMPI PUSH1 0x0 CALLDATALOAD PUSH1 0xE0 SHR DUP1 PUSH4 0x70A08231 GT PUSH2 0x125 JUMPI DUP1 PUSH4 0xB88D4FDE GT PUSH2 0xAD JUMPI DUP1 PUSH4 0xD547741F GT PUSH2 0x7C JUMPI DUP1 PUSH4 0xD547741F EQ PUSH2 0x4EB JUMPI DUP1 PUSH4 0xDEDAFF54 EQ PUSH2 0x4FE JUMPI DUP1 PUSH4 0xE35FE366 EQ PUSH2 0x53C JUMPI DUP1 PUSH4 0xE985E9C5 EQ PUSH2 0x55F JUMPI DUP1 PUSH4 0xF637D950 EQ PUSH2 0x572 JUMPI PUSH1 0x0 DUP1 REVERT JUMPDEST DUP1 PUSH4 0xB88D4FDE EQ PUSH2 0x479 JUMPI DUP1 PUSH4 0xC3967528 EQ PUSH2 0x48C JUMPI DUP1 PUSH4 0xC87B56DD EQ PUSH2 0x4B1 JUMPI DUP1 PUSH4 0xD5391393 EQ PUSH2 0x4C4 JUMPI PUSH1 0x0 DUP1 REVERT JUMPDEST DUP1 PUSH4 0x95D89B41 GT PUSH2 0xF4 JUMPI DUP1 PUSH4 0x95D89B41 EQ PUSH2 0x430 JUMPI DUP1 PUSH4 0x997F524A EQ PUSH2 0x438 JUMPI DUP1 PUSH4 0xA0695FEB EQ PUSH2 0x44B JUMPI DUP1 PUSH4 0xA217FDDF EQ PUSH2 0x45E JUMPI DUP1 PUSH4 0xA22CB465 EQ PUSH2 0x466 JUMPI PUSH1 0x0 DUP1 REVERT JUMPDEST DUP1 PUSH4 0x70A08231 EQ PUSH2 0x3D5 JUMPI DUP1 PUSH4 0x75B238FC EQ PUSH2 0x3E8 JUMPI DUP1 PUSH4 0x8BB27D02 EQ PUSH2 0x3FD JUMPI DUP1 PUSH4 0x91D14854 EQ PUSH2 0x41D JUMPI PUSH1 0x0 DUP1 REVERT JUMPDEST DUP1 PUSH4 0x2F2FF15D GT PUSH2 0x1A8 JUMPI DUP1 PUSH4 0x45E2A06C GT PUSH2 0x177 JUMPI DUP1 PUSH4 0x45E2A06C EQ PUSH2 0x376 JUMPI DUP1 PUSH4 0x53C8388E EQ PUSH2 0x389 JUMPI DUP1 PUSH4 0x54AA5F3C EQ PUSH2 0x39C JUMPI DUP1 PUSH4 0x6352211E EQ PUSH2 0x3AF JUMPI DUP1 PUSH4 0x6DC0FC6B EQ PUSH2 0x3C2 JUMPI PUSH1 0x0 DUP1 REVERT JUMPDEST DUP1 PUSH4 0x2F2FF15D EQ PUSH2 0x32A JUMPI DUP1 PUSH4 0x30E4592C EQ PUSH2 0x33D JUMPI DUP1 PUSH4 0x36568ABE EQ PUSH2 0x350 JUMPI DUP1 PUSH4 0x42842E0E EQ PUSH2 0x363 JUMPI PUSH1 0x0 DUP1 REVERT JUMPDEST DUP1 PUSH4 0x95EA7B3 GT PUSH2 0x1EF JUMPI DUP1 PUSH4 0x95EA7B3 EQ PUSH2 0x2AC JUMPI DUP1 PUSH4 0x158AAEAD EQ PUSH2 0x2C1 JUMPI DUP1 PUSH4 0x23B872DD EQ PUSH2 0x2D4 JUMPI DUP1 PUSH4 0x248A9CA3 EQ PUSH2 0x2E7 JUMPI DUP1 PUSH4 0x276F0934 EQ PUSH2 0x30A JUMPI PUSH1 0x0 DUP1 REVERT JUMPDEST DUP1 PUSH4 0x1FFC9A7 EQ PUSH2 0x221 JUMPI DUP1 PUSH4 0x62D3BD7 EQ PUSH2 0x249 JUMPI DUP1 PUSH4 0x6FDDE03 EQ PUSH2 0x26C JUMPI DUP1 PUSH4 0x81812FC EQ PUSH2 0x281 JUMPI JUMPDEST PUSH1 0x0 DUP1 REVERT JUMPDEST PUSH2 0x234 PUSH2 0x22F CALLDATASIZE PUSH1 0x4 PUSH2 0x2166 JUMP JUMPDEST PUSH2 0x598 JUMP JUMPDEST PUSH1 0x40 MLOAD SWAP1 ISZERO ISZERO DUP2 MSTORE PUSH1 0x20 ADD JUMPDEST PUSH1 0x40 MLOAD DUP1 SWAP2 SUB SWAP1 RETURN JUMPDEST PUSH2 0x25E PUSH1 0x0 DUP1 MLOAD PUSH1 0x20 PUSH2 0x2A8A DUP4 CODECOPY DUP2 MLOAD SWAP2 MSTORE DUP2 JUMP JUMPDEST PUSH1 0x40 MLOAD SWAP1 DUP2 MSTORE PUSH1 0x20 ADD PUSH2 0x240 JUMP JUMPDEST PUSH2 0x274 PUSH2 0x5A9 JUMP JUMPDEST PUSH1 0x40 MLOAD PUSH2 0x240 SWAP2 SWAP1 PUSH2 0x21D0 JUMP JUMPDEST PUSH2 0x294 PUSH2 0x28F CALLDATASIZE PUSH1 0x4 PUSH2 0x21E3 JUMP JUMPDEST PUSH2 0x63B JUMP JUMPDEST PUSH1 0x40 MLOAD PUSH1 0x1 PUSH1 0x1 PUSH1 0xA0 SHL SUB SWAP1 SWAP2 AND DUP2 MSTORE PUSH1 0x20 ADD PUSH2 0x240 JUMP JUMPDEST PUSH2 0x2BF PUSH2 0x2BA CALLDATASIZE PUSH1 0x4 PUSH2 0x2218 JUMP JUMPDEST PUSH2 0x664 JUMP JUMPDEST STOP JUMPDEST PUSH2 0x2BF PUSH2 0x2CF CALLDATASIZE PUSH1 0x4 PUSH2 0x2242 JUMP JUMPDEST PUSH2 0x673 JUMP JUMPDEST PUSH2 0x2BF PUSH2 0x2E2 CALLDATASIZE PUSH1 0x4 PUSH2 0x2276 JUMP JUMPDEST PUSH2 0x737 JUMP JUMPDEST PUSH2 0x25E PUSH2 0x2F5 CALLDATASIZE PUSH1 0x4 PUSH2 0x21E3 JUMP JUMPDEST PUSH1 0x0 SWAP1 DUP2 MSTORE PUSH1 0x6 PUSH1 0x20 MSTORE PUSH1 0x40 SWAP1 KECCAK256 PUSH1 0x1 ADD SLOAD SWAP1 JUMP JUMPDEST PUSH2 0x31D PUSH2 0x318 CALLDATASIZE PUSH1 0x4 PUSH2 0x22B2 JUMP JUMPDEST PUSH2 0x7C2 JUMP JUMPDEST PUSH1 0x40 MLOAD PUSH2 0x240 SWAP2 SWAP1 PUSH2 0x22CD JUMP JUMPDEST PUSH2 0x2BF PUSH2 0x338 CALLDATASIZE PUSH1 0x4 PUSH2 0x2311 JUMP JUMPDEST PUSH2 0x896 JUMP JUMPDEST PUSH2 0x25E PUSH2 0x34B CALLDATASIZE PUSH1 0x4 PUSH2 0x23E9 JUMP JUMPDEST PUSH2 0x8BB JUMP JUMPDEST PUSH2 0x2BF PUSH2 0x35E CALLDATASIZE PUSH1 0x4 PUSH2 0x2311 JUMP JUMPDEST PUSH2 0xA4D JUMP JUMPDEST PUSH2 0x2BF PUSH2 0x371 CALLDATASIZE PUSH1 0x4 PUSH2 0x2276 JUMP JUMPDEST PUSH2 0xA85 JUMP JUMPDEST PUSH2 0x2BF PUSH2 0x384 CALLDATASIZE PUSH1 0x4 PUSH2 0x2475 JUMP JUMPDEST PUSH2 0xAA0 JUMP JUMPDEST PUSH2 0x2BF PUSH2 0x397 CALLDATASIZE PUSH1 0x4 PUSH2 0x24F9 JUMP JUMPDEST PUSH2 0xB9B JUMP JUMPDEST PUSH2 0x2BF PUSH2 0x3AA CALLDATASIZE PUSH1 0x4 PUSH2 0x2540 JUMP JUMPDEST PUSH2 0xC2D JUMP JUMPDEST PUSH2 0x294 PUSH2 0x3BD CALLDATASIZE PUSH1 0x4 PUSH2 0x21E3 JUMP JUMPDEST PUSH2 0xCC9 JUMP JUMPDEST PUSH2 0x2BF PUSH2 0x3D0 CALLDATASIZE PUSH1 0x4 PUSH2 0x2563 JUMP JUMPDEST PUSH2 0xCD4 JUMP JUMPDEST PUSH2 0x25E PUSH2 0x3E3 CALLDATASIZE PUSH1 0x4 PUSH2 0x22B2 JUMP JUMPDEST PUSH2 0xD65 JUMP JUMPDEST PUSH2 0x25E PUSH1 0x0 DUP1 MLOAD PUSH1 0x20 PUSH2 0x2AAA DUP4 CODECOPY DUP2 MLOAD SWAP2 MSTORE DUP2 JUMP JUMPDEST PUSH2 0x410 PUSH2 0x40B CALLDATASIZE PUSH1 0x4 PUSH2 0x21E3 JUMP JUMPDEST PUSH2 0xDAD JUMP JUMPDEST PUSH1 0x40 MLOAD PUSH2 0x240 SWAP2 SWAP1 PUSH2 0x2585 JUMP JUMPDEST PUSH2 0x234 PUSH2 0x42B CALLDATASIZE PUSH1 0x4 PUSH2 0x2311 JUMP JUMPDEST PUSH2 0xE76 JUMP JUMPDEST PUSH2 0x274 PUSH2 0xEA1 JUMP JUMPDEST PUSH2 0x2BF PUSH2 0x446 CALLDATASIZE PUSH1 0x4 PUSH2 0x25F5 JUMP JUMPDEST PUSH2 0xEB0 JUMP JUMPDEST PUSH2 0x2BF PUSH2 0x459 CALLDATASIZE PUSH1 0x4 PUSH2 0x261F JUMP JUMPDEST PUSH2 0xF20 JUMP JUMPDEST PUSH2 0x25E PUSH1 0x0 DUP2 JUMP JUMPDEST PUSH2 0x2BF PUSH2 0x474 CALLDATASIZE PUSH1 0x4 PUSH2 0x25F5 JUMP JUMPDEST PUSH2 0x10A2 JUMP JUMPDEST PUSH2 0x2BF PUSH2 0x487 CALLDATASIZE PUSH1 0x4 PUSH2 0x2661 JUMP JUMPDEST PUSH2 0x10AD JUMP JUMPDEST PUSH2 0x49F PUSH2 0x49A CALLDATASIZE PUSH1 0x4 PUSH2 0x21E3 JUMP JUMPDEST PUSH2 0x10C5 JUMP JUMPDEST PUSH1 0x40 MLOAD PUSH2 0x240 SWAP7 SWAP6 SWAP5 SWAP4 SWAP3 SWAP2 SWAP1 PUSH2 0x2715 JUMP JUMPDEST PUSH2 0x274 PUSH2 0x4BF CALLDATASIZE PUSH1 0x4 PUSH2 0x21E3 JUMP JUMPDEST PUSH2 0x1213 JUMP JUMPDEST PUSH2 0x25E PUSH32 0x9F2DF0FED2C77648DE5860A4CC508CD0818C85B8B8A1AB4CEEEF8D981C8956A6 DUP2 JUMP JUMPDEST PUSH2 0x2BF PUSH2 0x4F9 CALLDATASIZE PUSH1 0x4 PUSH2 0x2311 JUMP JUMPDEST PUSH2 0x12E4 JUMP JUMPDEST PUSH2 0x511 PUSH2 0x50C CALLDATASIZE PUSH1 0x4 PUSH2 0x2563 JUMP JUMPDEST PUSH2 0x1309 JUMP JUMPDEST PUSH1 0x40 DUP1 MLOAD PUSH1 0x1 PUSH1 0x1 PUSH1 0xA0 SHL SUB SWAP6 DUP7 AND DUP2 MSTORE SWAP5 SWAP1 SWAP4 AND PUSH1 0x20 DUP6 ADD MSTORE SWAP2 DUP4 ADD MSTORE PUSH1 0x60 DUP3 ADD MSTORE PUSH1 0x80 ADD PUSH2 0x240 JUMP JUMPDEST PUSH2 0x234 PUSH2 0x54A CALLDATASIZE PUSH1 0x4 PUSH2 0x22B2 JUMP JUMPDEST PUSH1 0xA PUSH1 0x20 MSTORE PUSH1 0x0 SWAP1 DUP2 MSTORE PUSH1 0x40 SWAP1 KECCAK256 SLOAD PUSH1 0xFF AND DUP2 JUMP JUMPDEST PUSH2 0x234 PUSH2 0x56D CALLDATASIZE PUSH1 0x4 PUSH2 0x2768 JUMP JUMPDEST PUSH2 0x135B JUMP JUMPDEST PUSH2 0x585 PUSH2 0x580 CALLDATASIZE PUSH1 0x4 PUSH2 0x21E3 JUMP JUMPDEST PUSH2 0x1389 JUMP JUMPDEST PUSH1 0x40 MLOAD PUSH2 0x240 SWAP8 SWAP7 SWAP6 SWAP5 SWAP4 SWAP3 SWAP2 SWAP1 PUSH2 0x2792 JUMP JUMPDEST PUSH1 0x0 PUSH2 0x5A3 DUP3 PUSH2 0x1595 JUMP JUMPDEST SWAP3 SWAP2 POP POP JUMP JUMPDEST PUSH1 0x60 PUSH1 0x0 DUP1 SLOAD PUSH2 0x5B8 SWAP1 PUSH2 0x27F5 JUMP JUMPDEST DUP1 PUSH1 0x1F ADD PUSH1 0x20 DUP1 SWAP2 DIV MUL PUSH1 0x20 ADD PUSH1 0x40 MLOAD SWAP1 DUP2 ADD PUSH1 0x40 MSTORE DUP1 SWAP3 SWAP2 SWAP1 DUP2 DUP2 MSTORE PUSH1 0x20 ADD DUP3 DUP1 SLOAD PUSH2 0x5E4 SWAP1 PUSH2 0x27F5 JUMP JUMPDEST DUP1 ISZERO PUSH2 0x631 JUMPI DUP1 PUSH1 0x1F LT PUSH2 0x606 JUMPI PUSH2 0x100 DUP1 DUP4 SLOAD DIV MUL DUP4 MSTORE SWAP2 PUSH1 0x20 ADD SWAP2 PUSH2 0x631 JUMP JUMPDEST DUP3 ADD SWAP2 SWAP1 PUSH1 0x0 MSTORE PUSH1 0x20 PUSH1 0x0 KECCAK256 SWAP1 JUMPDEST DUP2 SLOAD DUP2 MSTORE SWAP1 PUSH1 0x1 ADD SWAP1 PUSH1 0x20 ADD DUP1 DUP4 GT PUSH2 0x614 JUMPI DUP3 SWAP1 SUB PUSH1 0x1F AND DUP3 ADD SWAP2 JUMPDEST POP POP POP POP POP SWAP1 POP SWAP1 JUMP JUMPDEST PUSH1 0x0 PUSH2 0x646 DUP3 PUSH2 0x15BA JUMP JUMPDEST POP PUSH1 0x0 DUP3 DUP2 MSTORE PUSH1 0x4 PUSH1 0x20 MSTORE PUSH1 0x40 SWAP1 KECCAK256 SLOAD PUSH1 0x1 PUSH1 0x1 PUSH1 0xA0 SHL SUB AND PUSH2 0x5A3 JUMP JUMPDEST PUSH2 0x66F DUP3 DUP3 CALLER PUSH2 0x15F2 JUMP JUMPDEST POP POP JUMP JUMPDEST PUSH1 0x0 DUP1 MLOAD PUSH1 0x20 PUSH2 0x2AAA DUP4 CODECOPY DUP2 MLOAD SWAP2 MSTORE PUSH2 0x68B DUP2 PUSH2 0x15FF JUMP JUMPDEST PUSH1 0x0 PUSH2 0x696 DUP5 PUSH2 0x160C JUMP JUMPDEST PUSH1 0x1 PUSH1 0x1 PUSH1 0xA0 SHL SUB AND SUB PUSH2 0x6C5 JUMPI PUSH1 0x40 MLOAD PUSH3 0x461BCD PUSH1 0xE5 SHL DUP2 MSTORE PUSH1 0x4 ADD PUSH2 0x6BC SWAP1 PUSH2 0x282F JUMP JUMPDEST PUSH1 0x40 MLOAD DUP1 SWAP2 SUB SWAP1 REVERT JUMPDEST PUSH1 0x0 DUP4 DUP2 MSTORE PUSH1 0x8 PUSH1 0x20 MSTORE PUSH1 0x40 SWAP1 KECCAK256 PUSH1 0x1 ADD DUP1 SLOAD DUP4 SWAP2 SWAP1 PUSH2 0xFF00 NOT AND PUSH2 0x100 DUP4 PUSH1 0x3 DUP2 GT ISZERO PUSH2 0x6F5 JUMPI PUSH2 0x6F5 PUSH2 0x26DD JUMP JUMPDEST MUL OR SWAP1 SSTORE POP DUP3 PUSH32 0x686CBB6B476FAC353118F8AE6A2E3FE7540FC87F6A84C97DCFEE5CAB91583D81 DUP4 PUSH1 0x40 MLOAD PUSH2 0x72A SWAP2 SWAP1 PUSH2 0x285D JUMP JUMPDEST PUSH1 0x40 MLOAD DUP1 SWAP2 SUB SWAP1 LOG2 POP POP POP JUMP JUMPDEST PUSH1 0x1 PUSH1 0x1 PUSH1 0xA0 SHL SUB DUP3 AND PUSH2 0x761 JUMPI PUSH1 0x40 MLOAD PUSH4 0x32505749 PUSH1 0xE1 SHL DUP2 MSTORE PUSH1 0x0 PUSH1 0x4 DUP3 ADD MSTORE PUSH1 0x24 ADD PUSH2 0x6BC JUMP JUMPDEST PUSH1 0x0 PUSH2 0x76E DUP4 DUP4 CALLER PUSH2 0x1627 JUMP JUMPDEST SWAP1 POP DUP4 PUSH1 0x1 PUSH1 0x1 PUSH1 0xA0 SHL SUB AND DUP2 PUSH1 0x1 PUSH1 0x1 PUSH1 0xA0 SHL SUB AND EQ PUSH2 0x7BC JUMPI PUSH1 0x40 MLOAD PUSH4 0x64283D7B PUSH1 0xE0 SHL DUP2 MSTORE PUSH1 0x1 PUSH1 0x1 PUSH1 0xA0 SHL SUB DUP1 DUP7 AND PUSH1 0x4 DUP4 ADD MSTORE PUSH1 0x24 DUP3 ADD DUP5 SWAP1 MSTORE DUP3 AND PUSH1 0x44 DUP3 ADD MSTORE PUSH1 0x64 ADD PUSH2 0x6BC JUMP JUMPDEST POP POP POP POP JUMP JUMPDEST PUSH1 0x60 PUSH1 0x0 PUSH2 0x7CF DUP4 PUSH2 0xD65 JUMP JUMPDEST SWAP1 POP PUSH1 0x0 DUP2 PUSH8 0xFFFFFFFFFFFFFFFF DUP2 GT ISZERO PUSH2 0x7EC JUMPI PUSH2 0x7EC PUSH2 0x233D JUMP JUMPDEST PUSH1 0x40 MLOAD SWAP1 DUP1 DUP3 MSTORE DUP1 PUSH1 0x20 MUL PUSH1 0x20 ADD DUP3 ADD PUSH1 0x40 MSTORE DUP1 ISZERO PUSH2 0x815 JUMPI DUP2 PUSH1 0x20 ADD PUSH1 0x20 DUP3 MUL DUP1 CALLDATASIZE DUP4 CALLDATACOPY ADD SWAP1 POP JUMPDEST POP SWAP1 POP PUSH1 0x0 DUP1 JUMPDEST PUSH1 0xB SLOAD DUP2 LT ISZERO PUSH2 0x88C JUMPI DUP6 PUSH1 0x1 PUSH1 0x1 PUSH1 0xA0 SHL SUB AND PUSH2 0x839 DUP3 PUSH2 0x160C JUMP JUMPDEST PUSH1 0x1 PUSH1 0x1 PUSH1 0xA0 SHL SUB AND SUB PUSH2 0x87A JUMPI DUP1 DUP4 DUP4 DUP2 MLOAD DUP2 LT PUSH2 0x85A JUMPI PUSH2 0x85A PUSH2 0x286B JUMP JUMPDEST PUSH1 0x20 SWAP1 DUP2 MUL SWAP2 SWAP1 SWAP2 ADD ADD MSTORE DUP2 PUSH2 0x86F DUP2 PUSH2 0x2897 JUMP JUMPDEST SWAP3 POP POP DUP4 DUP3 EQ PUSH2 0x88C JUMPI JUMPDEST DUP1 PUSH2 0x884 DUP2 PUSH2 0x2897 JUMP JUMPDEST SWAP2 POP POP PUSH2 0x81C JUMP JUMPDEST POP SWAP1 SWAP5 SWAP4 POP POP POP POP JUMP JUMPDEST PUSH1 0x0 DUP3 DUP2 MSTORE PUSH1 0x6 PUSH1 0x20 MSTORE PUSH1 0x40 SWAP1 KECCAK256 PUSH1 0x1 ADD SLOAD PUSH2 0x8B1 DUP2 PUSH2 0x15FF JUMP JUMPDEST PUSH2 0x7BC DUP4 DUP4 PUSH2 0x19C8 JUMP JUMPDEST PUSH1 0x0 PUSH32 0x9F2DF0FED2C77648DE5860A4CC508CD0818C85B8B8A1AB4CEEEF8D981C8956A6 PUSH2 0x8E7 DUP2 PUSH2 0x15FF JUMP JUMPDEST PUSH1 0x1 PUSH1 0x1 PUSH1 0xA0 SHL SUB DUP7 AND PUSH1 0x0 SWAP1 DUP2 MSTORE PUSH1 0xA PUSH1 0x20 MSTORE PUSH1 0x40 SWAP1 KECCAK256 SLOAD PUSH1 0xFF AND PUSH2 0x91F JUMPI PUSH1 0x40 MLOAD PUSH3 0x461BCD PUSH1 0xE5 SHL DUP2 MSTORE PUSH1 0x4 ADD PUSH2 0x6BC SWAP1 PUSH2 0x28B0 JUMP JUMPDEST PUSH1 0xB DUP1 SLOAD PUSH1 0x0 SWAP2 DUP3 PUSH2 0x930 DUP4 PUSH2 0x2897 JUMP JUMPDEST SWAP2 SWAP1 POP SSTORE SWAP1 POP PUSH2 0x940 DUP8 DUP3 PUSH2 0x1A5C JUMP JUMPDEST PUSH1 0x40 DUP1 MLOAD PUSH1 0xC0 DUP2 ADD DUP3 MSTORE DUP8 DUP2 MSTORE PUSH1 0x0 PUSH1 0x20 DUP1 DUP4 ADD DUP3 SWAP1 MSTORE DUP3 DUP5 ADD DUP3 SWAP1 MSTORE PUSH1 0x60 DUP4 ADD DUP9 SWAP1 MSTORE TIMESTAMP PUSH1 0x80 DUP5 ADD MSTORE PUSH1 0xA0 DUP4 ADD DUP10 SWAP1 MSTORE DUP5 DUP3 MSTORE PUSH1 0x8 SWAP1 MSTORE SWAP2 SWAP1 SWAP2 KECCAK256 DUP2 MLOAD DUP2 SWAP1 PUSH2 0x98A SWAP1 DUP3 PUSH2 0x2926 JUMP JUMPDEST POP PUSH1 0x20 DUP3 ADD MLOAD PUSH1 0x1 DUP3 ADD DUP1 SLOAD SWAP2 ISZERO ISZERO PUSH1 0xFF NOT DUP4 AND DUP2 OR DUP3 SSTORE PUSH1 0x40 DUP6 ADD MLOAD SWAP3 PUSH2 0xFF00 NOT SWAP1 SWAP2 AND PUSH2 0xFFFF NOT SWAP1 SWAP2 AND OR PUSH2 0x100 DUP4 PUSH1 0x3 DUP2 GT ISZERO PUSH2 0x9CC JUMPI PUSH2 0x9CC PUSH2 0x26DD JUMP JUMPDEST MUL OR SWAP1 SSTORE POP PUSH1 0x60 DUP3 ADD MLOAD PUSH1 0x2 DUP3 ADD SSTORE PUSH1 0x80 DUP3 ADD MLOAD PUSH1 0x3 DUP3 ADD SSTORE PUSH1 0xA0 DUP3 ADD MLOAD PUSH1 0x4 DUP3 ADD SWAP1 PUSH2 0x9F9 SWAP1 DUP3 PUSH2 0x2926 JUMP JUMPDEST POP SWAP1 POP POP DUP1 DUP8 PUSH1 0x1 PUSH1 0x1 PUSH1 0xA0 SHL SUB AND PUSH32 0xF3C2B254F1019B7A489EB8DF74FFE59FF452B5662611D76C6BBC8AEA54BB7CA5 DUP8 DUP10 DUP9 PUSH1 0x40 MLOAD PUSH2 0xA3B SWAP4 SWAP3 SWAP2 SWAP1 PUSH2 0x29E6 JUMP JUMPDEST PUSH1 0x40 MLOAD DUP1 SWAP2 SUB SWAP1 LOG3 SWAP7 SWAP6 POP POP POP POP POP POP JUMP JUMPDEST PUSH1 0x1 PUSH1 0x1 PUSH1 0xA0 SHL SUB DUP2 AND CALLER EQ PUSH2 0xA76 JUMPI PUSH1 0x40 MLOAD PUSH4 0x334BD919 PUSH1 0xE1 SHL DUP2 MSTORE PUSH1 0x4 ADD PUSH1 0x40 MLOAD DUP1 SWAP2 SUB SWAP1 REVERT JUMPDEST PUSH2 0xA80 DUP3 DUP3 PUSH2 0x1A76 JUMP JUMPDEST POP POP POP JUMP JUMPDEST PUSH2 0xA80 DUP4 DUP4 DUP4 PUSH1 0x40 MLOAD DUP1 PUSH1 0x20 ADD PUSH1 0x40 MSTORE DUP1 PUSH1 0x0 DUP2 MSTORE POP PUSH2 0x10AD JUMP JUMPDEST PUSH1 0x0 DUP1 MLOAD PUSH1 0x20 PUSH2 0x2A8A DUP4 CODECOPY DUP2 MLOAD SWAP2 MSTORE PUSH2 0xAB8 DUP2 PUSH2 0x15FF JUMP JUMPDEST PUSH1 0x0 JUMPDEST DUP4 DUP2 LT ISZERO PUSH2 0xB94 JUMPI DUP3 PUSH1 0xA PUSH1 0x0 DUP8 DUP8 DUP6 DUP2 DUP2 LT PUSH2 0xADA JUMPI PUSH2 0xADA PUSH2 0x286B JUMP JUMPDEST SWAP1 POP PUSH1 0x20 MUL ADD PUSH1 0x20 DUP2 ADD SWAP1 PUSH2 0xAEF SWAP2 SWAP1 PUSH2 0x22B2 JUMP JUMPDEST PUSH1 0x1 PUSH1 0x1 PUSH1 0xA0 SHL SUB AND DUP2 MSTORE PUSH1 0x20 DUP2 ADD SWAP2 SWAP1 SWAP2 MSTORE PUSH1 0x40 ADD PUSH1 0x0 KECCAK256 DUP1 SLOAD PUSH1 0xFF NOT AND SWAP2 ISZERO ISZERO SWAP2 SWAP1 SWAP2 OR SWAP1 SSTORE DUP5 DUP5 DUP3 DUP2 DUP2 LT PUSH2 0xB29 JUMPI PUSH2 0xB29 PUSH2 0x286B JUMP JUMPDEST SWAP1 POP PUSH1 0x20 MUL ADD PUSH1 0x20 DUP2 ADD SWAP1 PUSH2 0xB3E SWAP2 SWAP1 PUSH2 0x22B2 JUMP JUMPDEST PUSH1 0x1 PUSH1 0x1 PUSH1 0xA0 SHL SUB AND PUSH32 0x34736AF44D2B91CD43FA896D4CFE0861EC1E6B4538583D385FC671639E9153B2 DUP5 PUSH1 0x40 MLOAD PUSH2 0xB7A SWAP2 ISZERO ISZERO DUP2 MSTORE PUSH1 0x20 ADD SWAP1 JUMP JUMPDEST PUSH1 0x40 MLOAD DUP1 SWAP2 SUB SWAP1 LOG2 DUP1 PUSH2 0xB8C DUP2 PUSH2 0x2897 JUMP JUMPDEST SWAP2 POP POP PUSH2 0xABB JUMP JUMPDEST POP POP POP POP POP JUMP JUMPDEST PUSH1 0x0 DUP1 MLOAD PUSH1 0x20 PUSH2 0x2AAA DUP4 CODECOPY DUP2 MLOAD SWAP2 MSTORE PUSH2 0xBB3 DUP2 PUSH2 0x15FF JUMP JUMPDEST PUSH1 0x0 PUSH2 0xBBE DUP5 PUSH2 0x160C JUMP JUMPDEST PUSH1 0x1 PUSH1 0x1 PUSH1 0xA0 SHL SUB AND SUB PUSH2 0xBE4 JUMPI PUSH1 0x40 MLOAD PUSH3 0x461BCD PUSH1 0xE5 SHL DUP2 MSTORE PUSH1 0x4 ADD PUSH2 0x6BC SWAP1 PUSH2 0x282F JUMP JUMPDEST PUSH1 0x0 DUP4 DUP2 MSTORE PUSH1 0x8 PUSH1 0x20 MSTORE PUSH1 0x40 SWAP1 KECCAK256 PUSH2 0xBFC DUP4 DUP3 PUSH2 0x2926 JUMP JUMPDEST POP DUP3 PUSH32 0x459157BA24C7AB9878B165EF465FA6AE2AB42BCD8445F576BE378768B0C47309 DUP4 PUSH1 0x40 MLOAD PUSH2 0x72A SWAP2 SWAP1 PUSH2 0x21D0 JUMP JUMPDEST PUSH1 0x0 DUP1 MLOAD PUSH1 0x20 PUSH2 0x2A8A DUP4 CODECOPY DUP2 MLOAD SWAP2 MSTORE PUSH2 0xC45 DUP2 PUSH2 0x15FF JUMP JUMPDEST PUSH1 0x0 PUSH2 0xC50 DUP5 PUSH2 0x160C JUMP JUMPDEST PUSH1 0x1 PUSH1 0x1 PUSH1 0xA0 SHL SUB AND SUB PUSH2 0xC76 JUMPI PUSH1 0x40 MLOAD PUSH3 0x461BCD PUSH1 0xE5 SHL DUP2 MSTORE PUSH1 0x4 ADD PUSH2 0x6BC SWAP1 PUSH2 0x282F JUMP JUMPDEST PUSH1 0x0 DUP4 DUP2 MSTORE PUSH1 0x8 PUSH1 0x20 SWAP1 DUP2 MSTORE PUSH1 0x40 SWAP2 DUP3 SWAP1 KECCAK256 PUSH1 0x1 ADD DUP1 SLOAD PUSH1 0xFF NOT AND DUP6 ISZERO ISZERO SWAP1 DUP2 OR SWAP1 SWAP2 SSTORE SWAP2 MLOAD SWAP2 DUP3 MSTORE DUP5 SWAP2 PUSH32 0xC0EF05AD7B90347A9B2EA53E56C4487D173B0F9A4644ED41CF9E504B1C639324 SWAP2 ADD PUSH2 0x72A JUMP JUMPDEST PUSH1 0x0 PUSH2 0x5A3 DUP3 PUSH2 0x15BA JUMP JUMPDEST PUSH1 0x0 DUP1 MLOAD PUSH1 0x20 PUSH2 0x2AAA DUP4 CODECOPY DUP2 MLOAD SWAP2 MSTORE PUSH2 0xCEC DUP2 PUSH2 0x15FF JUMP JUMPDEST PUSH1 0x0 PUSH2 0xCF7 DUP5 PUSH2 0x160C JUMP JUMPDEST PUSH1 0x1 PUSH1 0x1 PUSH1 0xA0 SHL SUB AND SUB PUSH2 0xD1D JUMPI PUSH1 0x40 MLOAD PUSH3 0x461BCD PUSH1 0xE5 SHL DUP2 MSTORE PUSH1 0x4 ADD PUSH2 0x6BC SWAP1 PUSH2 0x282F JUMP JUMPDEST PUSH1 0x0 DUP4 DUP2 MSTORE PUSH1 0x8 PUSH1 0x20 MSTORE PUSH1 0x40 SWAP1 DUP2 SWAP1 KECCAK256 PUSH1 0x2 ADD DUP4 SWAP1 SSTORE MLOAD DUP4 SWAP1 PUSH32 0x8D45721C0EDCD094D637F66E971CE1167F974EED315C9A31B6CE145067760ACC SWAP1 PUSH2 0x72A SWAP1 DUP6 DUP2 MSTORE PUSH1 0x20 ADD SWAP1 JUMP JUMPDEST PUSH1 0x0 PUSH1 0x1 PUSH1 0x1 PUSH1 0xA0 SHL SUB DUP3 AND PUSH2 0xD91 JUMPI PUSH1 0x40 MLOAD PUSH4 0x22718AD9 PUSH1 0xE2 SHL DUP2 MSTORE PUSH1 0x0 PUSH1 0x4 DUP3 ADD MSTORE PUSH1 0x24 ADD PUSH2 0x6BC JUMP JUMPDEST POP PUSH1 0x1 PUSH1 0x1 PUSH1 0xA0 SHL SUB AND PUSH1 0x0 SWAP1 DUP2 MSTORE PUSH1 0x3 PUSH1 0x20 MSTORE PUSH1 0x40 SWAP1 KECCAK256 SLOAD SWAP1 JUMP JUMPDEST PUSH1 0x60 PUSH1 0x0 PUSH2 0xDBA DUP4 PUSH2 0x160C JUMP JUMPDEST PUSH1 0x1 PUSH1 0x1 PUSH1 0xA0 SHL SUB AND SUB PUSH2 0xDE0 JUMPI PUSH1 0x40 MLOAD PUSH3 0x461BCD PUSH1 0xE5 SHL DUP2 MSTORE PUSH1 0x4 ADD PUSH2 0x6BC SWAP1 PUSH2 0x282F JUMP JUMPDEST PUSH1 0x0 DUP3 DUP2 MSTORE PUSH1 0x9 PUSH1 0x20 SWAP1 DUP2 MSTORE PUSH1 0x40 DUP1 DUP4 KECCAK256 DUP1 SLOAD DUP3 MLOAD DUP2 DUP6 MUL DUP2 ADD DUP6 ADD SWAP1 SWAP4 MSTORE DUP1 DUP4 MSTORE SWAP2 SWAP4 SWAP1 SWAP3 DUP5 ADD JUMPDEST DUP3 DUP3 LT ISZERO PUSH2 0xE6B JUMPI PUSH1 0x0 DUP5 DUP2 MSTORE PUSH1 0x20 SWAP1 DUP2 SWAP1 KECCAK256 PUSH1 0x40 DUP1 MLOAD PUSH1 0x80 DUP2 ADD DUP3 MSTORE PUSH1 0x4 DUP7 MUL SWAP1 SWAP3 ADD DUP1 SLOAD PUSH1 0x1 PUSH1 0x1 PUSH1 0xA0 SHL SUB SWAP1 DUP2 AND DUP5 MSTORE PUSH1 0x1 DUP1 DUP4 ADD SLOAD SWAP1 SWAP2 AND DUP5 DUP7 ADD MSTORE PUSH1 0x2 DUP3 ADD SLOAD SWAP3 DUP5 ADD SWAP3 SWAP1 SWAP3 MSTORE PUSH1 0x3 ADD SLOAD PUSH1 0x60 DUP4 ADD MSTORE SWAP1 DUP4 MSTORE SWAP1 SWAP3 ADD SWAP2 ADD PUSH2 0xE09 JUMP JUMPDEST POP POP POP POP SWAP1 POP SWAP2 SWAP1 POP JUMP JUMPDEST PUSH1 0x0 SWAP2 DUP3 MSTORE PUSH1 0x6 PUSH1 0x20 SWAP1 DUP2 MSTORE PUSH1 0x40 DUP1 DUP5 KECCAK256 PUSH1 0x1 PUSH1 0x1 PUSH1 0xA0 SHL SUB SWAP4 SWAP1 SWAP4 AND DUP5 MSTORE SWAP2 SWAP1 MSTORE SWAP1 KECCAK256 SLOAD PUSH1 0xFF AND SWAP1 JUMP JUMPDEST PUSH1 0x60 PUSH1 0x1 DUP1 SLOAD PUSH2 0x5B8 SWAP1 PUSH2 0x27F5 JUMP JUMPDEST PUSH1 0x0 DUP1 MLOAD PUSH1 0x20 PUSH2 0x2A8A DUP4 CODECOPY DUP2 MLOAD SWAP2 MSTORE PUSH2 0xEC8 DUP2 PUSH2 0x15FF JUMP JUMPDEST PUSH1 0x1 PUSH1 0x1 PUSH1 0xA0 SHL SUB DUP4 AND PUSH1 0x0 DUP2 DUP2 MSTORE PUSH1 0xA PUSH1 0x20 SWAP1 DUP2 MSTORE PUSH1 0x40 SWAP2 DUP3 SWAP1 KECCAK256 DUP1 SLOAD PUSH1 0xFF NOT AND DUP7 ISZERO ISZERO SWAP1 DUP2 OR SWAP1 SWAP2 SSTORE SWAP2 MLOAD SWAP2 DUP3 MSTORE PUSH32 0x34736AF44D2B91CD43FA896D4CFE0861EC1E6B4538583D385FC671639E9153B2 SWAP2 ADD PUSH2 0x72A JUMP JUMPDEST PUSH2 0xF28 PUSH2 0x1AE3 JUMP JUMPDEST PUSH2 0xF3B PUSH2 0xF34 DUP4 PUSH2 0x160C JUMP JUMPDEST CALLER DUP5 PUSH2 0x1B0D JUMP JUMPDEST PUSH2 0xF78 JUMPI PUSH1 0x40 MLOAD PUSH3 0x461BCD PUSH1 0xE5 SHL DUP2 MSTORE PUSH1 0x20 PUSH1 0x4 DUP3 ADD MSTORE PUSH1 0xE PUSH1 0x24 DUP3 ADD MSTORE PUSH14 0x139BDD08185D5D1A1BDC9A5E9959 PUSH1 0x92 SHL PUSH1 0x44 DUP3 ADD MSTORE PUSH1 0x64 ADD PUSH2 0x6BC JUMP JUMPDEST PUSH1 0x1 PUSH1 0x1 PUSH1 0xA0 SHL SUB DUP4 AND PUSH1 0x0 SWAP1 DUP2 MSTORE PUSH1 0xA PUSH1 0x20 MSTORE PUSH1 0x40 SWAP1 KECCAK256 SLOAD PUSH1 0xFF AND PUSH2 0xFB0 JUMPI PUSH1 0x40 MLOAD PUSH3 0x461BCD PUSH1 0xE5 SHL DUP2 MSTORE PUSH1 0x4 ADD PUSH2 0x6BC SWAP1 PUSH2 0x28B0 JUMP JUMPDEST PUSH1 0x0 DUP3 DUP2 MSTORE PUSH1 0x9 PUSH1 0x20 SWAP1 DUP2 MSTORE PUSH1 0x40 DUP1 DUP4 KECCAK256 DUP2 MLOAD PUSH1 0x80 DUP2 ADD DUP4 MSTORE PUSH1 0x1 PUSH1 0x1 PUSH1 0xA0 SHL SUB DUP1 DUP11 AND DUP3 MSTORE DUP9 DUP2 AND DUP3 DUP7 ADD SWAP1 DUP2 MSTORE TIMESTAMP SWAP5 DUP4 ADD SWAP5 DUP6 MSTORE PUSH1 0x60 DUP4 ADD DUP9 DUP2 MSTORE DUP5 SLOAD PUSH1 0x1 DUP2 DUP2 ADD DUP8 SSTORE SWAP6 DUP10 MSTORE SWAP7 SWAP1 SWAP8 KECCAK256 SWAP3 MLOAD PUSH1 0x4 SWAP1 SWAP7 MUL SWAP1 SWAP3 ADD DUP1 SLOAD SWAP6 DUP3 AND PUSH1 0x1 PUSH1 0x1 PUSH1 0xA0 SHL SUB NOT SWAP7 DUP8 AND OR DUP2 SSTORE SWAP2 MLOAD SWAP3 DUP3 ADD DUP1 SLOAD SWAP4 SWAP1 SWAP2 AND SWAP3 SWAP1 SWAP5 AND SWAP2 SWAP1 SWAP2 OR SWAP1 SWAP3 SSTORE MLOAD PUSH1 0x2 DUP3 ADD SSTORE SWAP1 MLOAD PUSH1 0x3 SWAP1 SWAP2 ADD SSTORE PUSH2 0x104A DUP5 DUP5 DUP5 PUSH2 0x1B73 JUMP JUMPDEST DUP2 DUP4 PUSH1 0x1 PUSH1 0x1 PUSH1 0xA0 SHL SUB AND DUP6 PUSH1 0x1 PUSH1 0x1 PUSH1 0xA0 SHL SUB AND PUSH32 0x7A3278A8C40FDF2DCB3301C764C869A2D4514928F1B7C49671663B7A4E5B7EF0 DUP5 PUSH1 0x40 MLOAD PUSH2 0x1090 SWAP2 DUP2 MSTORE PUSH1 0x20 ADD SWAP1 JUMP JUMPDEST PUSH1 0x40 MLOAD DUP1 SWAP2 SUB SWAP1 LOG4 PUSH2 0x7BC PUSH1 0x1 PUSH1 0x7 SSTORE JUMP JUMPDEST PUSH2 0x66F CALLER DUP4 DUP4 PUSH2 0x1C23 JUMP JUMPDEST PUSH2 0x10B8 DUP5 DUP5 DUP5 PUSH2 0x737 JUMP JUMPDEST PUSH2 0x7BC CALLER DUP6 DUP6 DUP6 DUP6 PUSH2 0x1CC2 JUMP JUMPDEST PUSH1 0x8 PUSH1 0x20 MSTORE PUSH1 0x0 SWAP1 DUP2 MSTORE PUSH1 0x40 SWAP1 KECCAK256 DUP1 SLOAD DUP2 SWAP1 PUSH2 0x10E0 SWAP1 PUSH2 0x27F5 JUMP JUMPDEST DUP1 PUSH1 0x1F ADD PUSH1 0x20 DUP1 SWAP2 DIV MUL PUSH1 0x20 ADD PUSH1 0x40 MLOAD SWAP1 DUP2 ADD PUSH1 0x40 MSTORE DUP1 SWAP3 SWAP2 SWAP1 DUP2 DUP2 MSTORE PUSH1 0x20 ADD DUP3 DUP1 SLOAD PUSH2 0x110C SWAP1 PUSH2 0x27F5 JUMP JUMPDEST DUP1 ISZERO PUSH2 0x1159 JUMPI DUP1 PUSH1 0x1F LT PUSH2 0x112E JUMPI PUSH2 0x100 DUP1 DUP4 SLOAD DIV MUL DUP4 MSTORE SWAP2 PUSH1 0x20 ADD SWAP2 PUSH2 0x1159 JUMP JUMPDEST DUP3 ADD SWAP2 SWAP1 PUSH1 0x0 MSTORE PUSH1 0x20 PUSH1 0x0 KECCAK256 SWAP1 JUMPDEST DUP2 SLOAD DUP2 MSTORE SWAP1 PUSH1 0x1 ADD SWAP1 PUSH1 0x20 ADD DUP1 DUP4 GT PUSH2 0x113C JUMPI DUP3 SWAP1 SUB PUSH1 0x1F AND DUP3 ADD SWAP2 JUMPDEST POP POP POP PUSH1 0x1 DUP5 ADD SLOAD PUSH1 0x2 DUP6 ADD SLOAD PUSH1 0x3 DUP7 ADD SLOAD PUSH1 0x4 DUP8 ADD DUP1 SLOAD SWAP7 SWAP8 PUSH1 0xFF DUP1 DUP7 AND SWAP9 PUSH2 0x100 SWAP1 SWAP7 DIV AND SWAP7 POP SWAP3 SWAP5 POP SWAP1 SWAP3 PUSH2 0x1190 SWAP1 PUSH2 0x27F5 JUMP JUMPDEST DUP1 PUSH1 0x1F ADD PUSH1 0x20 DUP1 SWAP2 DIV MUL PUSH1 0x20 ADD PUSH1 0x40 MLOAD SWAP1 DUP2 ADD PUSH1 0x40 MSTORE DUP1 SWAP3 SWAP2 SWAP1 DUP2 DUP2 MSTORE PUSH1 0x20 ADD DUP3 DUP1 SLOAD PUSH2 0x11BC SWAP1 PUSH2 0x27F5 JUMP JUMPDEST DUP1 ISZERO PUSH2 0x1209 JUMPI DUP1 PUSH1 0x1F LT PUSH2 0x11DE JUMPI PUSH2 0x100 DUP1 DUP4 SLOAD DIV MUL DUP4 MSTORE SWAP2 PUSH1 0x20 ADD SWAP2 PUSH2 0x1209 JUMP JUMPDEST DUP3 ADD SWAP2 SWAP1 PUSH1 0x0 MSTORE PUSH1 0x20 PUSH1 0x0 KECCAK256 SWAP1 JUMPDEST DUP2 SLOAD DUP2 MSTORE SWAP1 PUSH1 0x1 ADD SWAP1 PUSH1 0x20 ADD DUP1 DUP4 GT PUSH2 0x11EC JUMPI DUP3 SWAP1 SUB PUSH1 0x1F AND DUP3 ADD SWAP2 JUMPDEST POP POP POP POP POP SWAP1 POP DUP7 JUMP JUMPDEST PUSH1 0x60 PUSH1 0x0 PUSH2 0x1220 DUP4 PUSH2 0x160C JUMP JUMPDEST PUSH1 0x1 PUSH1 0x1 PUSH1 0xA0 SHL SUB AND SUB PUSH2 0x1246 JUMPI PUSH1 0x40 MLOAD PUSH3 0x461BCD PUSH1 0xE5 SHL DUP2 MSTORE PUSH1 0x4 ADD PUSH2 0x6BC SWAP1 PUSH2 0x282F JUMP JUMPDEST PUSH1 0x0 DUP3 DUP2 MSTORE PUSH1 0x8 PUSH1 0x20 MSTORE PUSH1 0x40 SWAP1 KECCAK256 DUP1 SLOAD PUSH2 0x125F SWAP1 PUSH2 0x27F5 JUMP JUMPDEST DUP1 PUSH1 0x1F ADD PUSH1 0x20 DUP1 SWAP2 DIV MUL PUSH1 0x20 ADD PUSH1 0x40 MLOAD SWAP1 DUP2 ADD PUSH1 0x40 MSTORE DUP1 SWAP3 SWAP2 SWAP1 DUP2 DUP2 MSTORE PUSH1 0x20 ADD DUP3 DUP1 SLOAD PUSH2 0x128B SWAP1 PUSH2 0x27F5 JUMP JUMPDEST DUP1 ISZERO PUSH2 0x12D8 JUMPI DUP1 PUSH1 0x1F LT PUSH2 0x12AD JUMPI PUSH2 0x100 DUP1 DUP4 SLOAD DIV MUL DUP4 MSTORE SWAP2 PUSH1 0x20 ADD SWAP2 PUSH2 0x12D8 JUMP JUMPDEST DUP3 ADD SWAP2 SWAP1 PUSH1 0x0 MSTORE PUSH1 0x20 PUSH1 0x0 KECCAK256 SWAP1 JUMPDEST DUP2 SLOAD DUP2 MSTORE SWAP1 PUSH1 0x1 ADD SWAP1 PUSH1 0x20 ADD DUP1 DUP4 GT PUSH2 0x12BB JUMPI DUP3 SWAP1 SUB PUSH1 0x1F AND DUP3 ADD SWAP2 JUMPDEST POP POP POP POP POP SWAP1 POP SWAP2 SWAP1 POP JUMP JUMPDEST PUSH1 0x0 DUP3 DUP2 MSTORE PUSH1 0x6 PUSH1 0x20 MSTORE PUSH1 0x40 SWAP1 KECCAK256 PUSH1 0x1 ADD SLOAD PUSH2 0x12FF DUP2 PUSH2 0x15FF JUMP JUMPDEST PUSH2 0x7BC DUP4 DUP4 PUSH2 0x1A76 JUMP JUMPDEST PUSH1 0x9 PUSH1 0x20 MSTORE DUP2 PUSH1 0x0 MSTORE PUSH1 0x40 PUSH1 0x0 KECCAK256 DUP2 DUP2 SLOAD DUP2 LT PUSH2 0x1325 JUMPI PUSH1 0x0 DUP1 REVERT JUMPDEST PUSH1 0x0 SWAP2 DUP3 MSTORE PUSH1 0x20 SWAP1 SWAP2 KECCAK256 PUSH1 0x4 SWAP1 SWAP2 MUL ADD DUP1 SLOAD PUSH1 0x1 DUP3 ADD SLOAD PUSH1 0x2 DUP4 ADD SLOAD PUSH1 0x3 SWAP1 SWAP4 ADD SLOAD PUSH1 0x1 PUSH1 0x1 PUSH1 0xA0 SHL SUB SWAP3 DUP4 AND SWAP6 POP SWAP2 AND SWAP3 POP DUP5 JUMP JUMPDEST PUSH1 0x1 PUSH1 0x1 PUSH1 0xA0 SHL SUB SWAP2 DUP3 AND PUSH1 0x0 SWAP1 DUP2 MSTORE PUSH1 0x5 PUSH1 0x20 SWAP1 DUP2 MSTORE PUSH1 0x40 DUP1 DUP4 KECCAK256 SWAP4 SWAP1 SWAP5 AND DUP3 MSTORE SWAP2 SWAP1 SWAP2 MSTORE KECCAK256 SLOAD PUSH1 0xFF AND SWAP1 JUMP JUMPDEST PUSH1 0x60 PUSH1 0x0 DUP1 DUP1 DUP1 DUP5 DUP2 DUP1 PUSH2 0x139C DUP10 PUSH2 0x160C JUMP JUMPDEST PUSH1 0x1 PUSH1 0x1 PUSH1 0xA0 SHL SUB AND SUB PUSH2 0x13C2 JUMPI PUSH1 0x40 MLOAD PUSH3 0x461BCD PUSH1 0xE5 SHL DUP2 MSTORE PUSH1 0x4 ADD PUSH2 0x6BC SWAP1 PUSH2 0x282F JUMP JUMPDEST PUSH1 0x0 DUP9 DUP2 MSTORE PUSH1 0x8 PUSH1 0x20 MSTORE PUSH1 0x40 DUP1 DUP3 KECCAK256 DUP2 MLOAD PUSH1 0xC0 DUP2 ADD SWAP1 SWAP3 MSTORE DUP1 SLOAD DUP3 SWAP1 DUP3 SWAP1 PUSH2 0x13E9 SWAP1 PUSH2 0x27F5 JUMP JUMPDEST DUP1 PUSH1 0x1F ADD PUSH1 0x20 DUP1 SWAP2 DIV MUL PUSH1 0x20 ADD PUSH1 0x40 MLOAD SWAP1 DUP2 ADD PUSH1 0x40 MSTORE DUP1 SWAP3 SWAP2 SWAP1 DUP2 DUP2 MSTORE PUSH1 0x20 ADD DUP3 DUP1 SLOAD PUSH2 0x1415 SWAP1 PUSH2 0x27F5 JUMP JUMPDEST DUP1 ISZERO PUSH2 0x1462 JUMPI DUP1 PUSH1 0x1F LT PUSH2 0x1437 JUMPI PUSH2 0x100 DUP1 DUP4 SLOAD DIV MUL DUP4 MSTORE SWAP2 PUSH1 0x20 ADD SWAP2 PUSH2 0x1462 JUMP JUMPDEST DUP3 ADD SWAP2 SWAP1 PUSH1 0x0 MSTORE PUSH1 0x20 PUSH1 0x0 KECCAK256 SWAP1 JUMPDEST DUP2 SLOAD DUP2 MSTORE SWAP1 PUSH1 0x1 ADD SWAP1 PUSH1 0x20 ADD DUP1 DUP4 GT PUSH2 0x1445 JUMPI DUP3 SWAP1 SUB PUSH1 0x1F AND DUP3 ADD SWAP2 JUMPDEST POP POP POP SWAP2 DUP4 MSTORE POP POP PUSH1 0x1 DUP3 ADD SLOAD PUSH1 0xFF DUP1 DUP3 AND ISZERO ISZERO PUSH1 0x20 DUP5 ADD MSTORE PUSH1 0x40 SWAP1 SWAP3 ADD SWAP2 PUSH2 0x100 SWAP1 SWAP2 DIV AND PUSH1 0x3 DUP2 GT ISZERO PUSH2 0x1499 JUMPI PUSH2 0x1499 PUSH2 0x26DD JUMP JUMPDEST PUSH1 0x3 DUP2 GT ISZERO PUSH2 0x14AA JUMPI PUSH2 0x14AA PUSH2 0x26DD JUMP JUMPDEST DUP2 MSTORE PUSH1 0x20 ADD PUSH1 0x2 DUP3 ADD SLOAD DUP2 MSTORE PUSH1 0x20 ADD PUSH1 0x3 DUP3 ADD SLOAD DUP2 MSTORE PUSH1 0x20 ADD PUSH1 0x4 DUP3 ADD DUP1 SLOAD PUSH2 0x14D2 SWAP1 PUSH2 0x27F5 JUMP JUMPDEST DUP1 PUSH1 0x1F ADD PUSH1 0x20 DUP1 SWAP2 DIV MUL PUSH1 0x20 ADD PUSH1 0x40 MLOAD SWAP1 DUP2 ADD PUSH1 0x40 MSTORE DUP1 SWAP3 SWAP2 SWAP1 DUP2 DUP2 MSTORE PUSH1 0x20 ADD DUP3 DUP1 SLOAD PUSH2 0x14FE SWAP1 PUSH2 0x27F5 JUMP JUMPDEST DUP1 ISZERO PUSH2 0x154B JUMPI DUP1 PUSH1 0x1F LT PUSH2 0x1520 JUMPI PUSH2 0x100 DUP1 DUP4 SLOAD DIV MUL DUP4 MSTORE SWAP2 PUSH1 0x20 ADD SWAP2 PUSH2 0x154B JUMP JUMPDEST DUP3 ADD SWAP2 SWAP1 PUSH1 0x0 MSTORE PUSH1 0x20 PUSH1 0x0 KECCAK256 SWAP1 JUMPDEST DUP2 SLOAD DUP2 MSTORE SWAP1 PUSH1 0x1 ADD SWAP1 PUSH1 0x20 ADD DUP1 DUP4 GT PUSH2 0x152E JUMPI DUP3 SWAP1 SUB PUSH1 0x1F AND DUP3 ADD SWAP2 JUMPDEST POP POP POP POP POP DUP2 MSTORE POP POP SWAP1 POP DUP1 PUSH1 0x0 ADD MLOAD DUP2 PUSH1 0x20 ADD MLOAD DUP3 PUSH1 0x40 ADD MLOAD DUP4 PUSH1 0x60 ADD MLOAD DUP5 PUSH1 0x80 ADD MLOAD DUP6 PUSH1 0xA0 ADD MLOAD PUSH2 0x157D DUP16 PUSH2 0x160C JUMP JUMPDEST SWAP6 SWAP16 SWAP5 SWAP15 POP SWAP3 SWAP13 POP SWAP1 SWAP11 POP SWAP9 POP SWAP7 POP SWAP1 SWAP5 POP SWAP3 POP POP POP JUMP JUMPDEST PUSH1 0x0 PUSH1 0x1 PUSH1 0x1 PUSH1 0xE0 SHL SUB NOT DUP3 AND PUSH4 0x7965DB0B PUSH1 0xE0 SHL EQ DUP1 PUSH2 0x5A3 JUMPI POP PUSH2 0x5A3 DUP3 PUSH2 0x1DEC JUMP JUMPDEST PUSH1 0x0 DUP1 PUSH2 0x15C6 DUP4 PUSH2 0x160C JUMP JUMPDEST SWAP1 POP PUSH1 0x1 PUSH1 0x1 PUSH1 0xA0 SHL SUB DUP2 AND PUSH2 0x5A3 JUMPI PUSH1 0x40 MLOAD PUSH4 0x7E273289 PUSH1 0xE0 SHL DUP2 MSTORE PUSH1 0x4 DUP2 ADD DUP5 SWAP1 MSTORE PUSH1 0x24 ADD PUSH2 0x6BC JUMP JUMPDEST PUSH2 0xA80 DUP4 DUP4 DUP4 PUSH1 0x1 PUSH2 0x1E3C JUMP JUMPDEST PUSH2 0x1609 DUP2 CALLER PUSH2 0x1F42 JUMP JUMPDEST POP JUMP JUMPDEST PUSH1 0x0 SWAP1 DUP2 MSTORE PUSH1 0x2 PUSH1 0x20 MSTORE PUSH1 0x40 SWAP1 KECCAK256 SLOAD PUSH1 0x1 PUSH1 0x1 PUSH1 0xA0 SHL SUB AND SWAP1 JUMP JUMPDEST PUSH1 0x0 DUP1 PUSH2 0x1633 DUP5 PUSH2 0x160C JUMP JUMPDEST SWAP1 POP PUSH1 0x1 PUSH1 0x1 PUSH1 0xA0 SHL SUB DUP2 AND ISZERO PUSH2 0x19B4 JUMPI PUSH1 0x0 DUP5 DUP2 MSTORE PUSH1 0x8 PUSH1 0x20 MSTORE PUSH1 0x40 DUP1 DUP3 KECCAK256 DUP2 MLOAD PUSH1 0xC0 DUP2 ADD SWAP1 SWAP3 MSTORE DUP1 SLOAD DUP3 SWAP1 DUP3 SWAP1 PUSH2 0x166B SWAP1 PUSH2 0x27F5 JUMP JUMPDEST DUP1 PUSH1 0x1F ADD PUSH1 0x20 DUP1 SWAP2 DIV MUL PUSH1 0x20 ADD PUSH1 0x40 MLOAD SWAP1 DUP2 ADD PUSH1 0x40 MSTORE DUP1 SWAP3 SWAP2 SWAP1 DUP2 DUP2 MSTORE PUSH1 0x20 ADD DUP3 DUP1 SLOAD PUSH2 0x1697 SWAP1 PUSH2 0x27F5 JUMP JUMPDEST DUP1 ISZERO PUSH2 0x16E4 JUMPI DUP1 PUSH1 0x1F LT PUSH2 0x16B9 JUMPI PUSH2 0x100 DUP1 DUP4 SLOAD DIV MUL DUP4 MSTORE SWAP2 PUSH1 0x20 ADD SWAP2 PUSH2 0x16E4 JUMP JUMPDEST DUP3 ADD SWAP2 SWAP1 PUSH1 0x0 MSTORE PUSH1 0x20 PUSH1 0x0 KECCAK256 SWAP1 JUMPDEST DUP2 SLOAD DUP2 MSTORE SWAP1 PUSH1 0x1 ADD SWAP1 PUSH1 0x20 ADD DUP1 DUP4 GT PUSH2 0x16C7 JUMPI DUP3 SWAP1 SUB PUSH1 0x1F AND DUP3 ADD SWAP2 JUMPDEST POP POP POP SWAP2 DUP4 MSTORE POP POP PUSH1 0x1 DUP3 ADD SLOAD PUSH1 0xFF DUP1 DUP3 AND ISZERO ISZERO PUSH1 0x20 DUP5 ADD MSTORE PUSH1 0x40 SWAP1 SWAP3 ADD SWAP2 PUSH2 0x100 SWAP1 SWAP2 DIV AND PUSH1 0x3 DUP2 GT ISZERO PUSH2 0x171B JUMPI PUSH2 0x171B PUSH2 0x26DD JUMP JUMPDEST PUSH1 0x3 DUP2 GT ISZERO PUSH2 0x172C JUMPI PUSH2 0x172C PUSH2 0x26DD JUMP JUMPDEST DUP2 MSTORE PUSH1 0x20 ADD PUSH1 0x2 DUP3 ADD SLOAD DUP2 MSTORE PUSH1 0x20 ADD PUSH1 0x3 DUP3 ADD SLOAD DUP2 MSTORE PUSH1 0x20 ADD PUSH1 0x4 DUP3 ADD DUP1 SLOAD PUSH2 0x1754 SWAP1 PUSH2 0x27F5 JUMP JUMPDEST DUP1 PUSH1 0x1F ADD PUSH1 0x20 DUP1 SWAP2 DIV MUL PUSH1 0x20 ADD PUSH1 0x40 MLOAD SWAP1 DUP2 ADD PUSH1 0x40 MSTORE DUP1 SWAP3 SWAP2 SWAP1 DUP2 DUP2 MSTORE PUSH1 0x20 ADD DUP3 DUP1 SLOAD PUSH2 0x1780 SWAP1 PUSH2 0x27F5 JUMP JUMPDEST DUP1 ISZERO PUSH2 0x17CD JUMPI DUP1 PUSH1 0x1F LT PUSH2 0x17A2 JUMPI PUSH2 0x100 DUP1 DUP4 SLOAD DIV MUL DUP4 MSTORE SWAP2 PUSH1 0x20 ADD SWAP2 PUSH2 0x17CD JUMP JUMPDEST DUP3 ADD SWAP2 SWAP1 PUSH1 0x0 MSTORE PUSH1 0x20 PUSH1 0x0 KECCAK256 SWAP1 JUMPDEST DUP2 SLOAD DUP2 MSTORE SWAP1 PUSH1 0x1 ADD SWAP1 PUSH1 0x20 ADD DUP1 DUP4 GT PUSH2 0x17B0 JUMPI DUP3 SWAP1 SUB PUSH1 0x1F AND DUP3 ADD SWAP2 JUMPDEST POP POP POP POP POP DUP2 MSTORE POP POP SWAP1 POP DUP1 PUSH1 0x20 ADD MLOAD PUSH2 0x181F JUMPI PUSH1 0x40 MLOAD PUSH3 0x461BCD PUSH1 0xE5 SHL DUP2 MSTORE PUSH1 0x20 PUSH1 0x4 DUP3 ADD MSTORE PUSH1 0x13 PUSH1 0x24 DUP3 ADD MSTORE PUSH19 0x105CDCD95D081B9BDD0818DBDB5C1B1A585B9D PUSH1 0x6A SHL PUSH1 0x44 DUP3 ADD MSTORE PUSH1 0x64 ADD PUSH2 0x6BC JUMP JUMPDEST PUSH1 0x1 DUP2 PUSH1 0x40 ADD MLOAD PUSH1 0x3 DUP2 GT ISZERO PUSH2 0x1837 JUMPI PUSH2 0x1837 PUSH2 0x26DD JUMP JUMPDEST EQ PUSH2 0x1877 JUMPI PUSH1 0x40 MLOAD PUSH3 0x461BCD PUSH1 0xE5 SHL DUP2 MSTORE PUSH1 0x20 PUSH1 0x4 DUP3 ADD MSTORE PUSH1 0x10 PUSH1 0x24 DUP3 ADD MSTORE PUSH16 0x4173736574206E6F7420616374697665 PUSH1 0x80 SHL PUSH1 0x44 DUP3 ADD MSTORE PUSH1 0x64 ADD PUSH2 0x6BC JUMP JUMPDEST PUSH1 0x1 PUSH1 0x1 PUSH1 0xA0 SHL SUB DUP7 AND PUSH1 0x0 SWAP1 DUP2 MSTORE PUSH1 0xA PUSH1 0x20 MSTORE PUSH1 0x40 SWAP1 KECCAK256 SLOAD PUSH1 0xFF AND PUSH2 0x18AF JUMPI PUSH1 0x40 MLOAD PUSH3 0x461BCD PUSH1 0xE5 SHL DUP2 MSTORE PUSH1 0x4 ADD PUSH2 0x6BC SWAP1 PUSH2 0x28B0 JUMP JUMPDEST PUSH1 0x0 DUP6 DUP2 MSTORE PUSH1 0x9 PUSH1 0x20 MSTORE PUSH1 0x40 SWAP1 KECCAK256 SLOAD ISZERO DUP1 PUSH2 0x191D JUMPI POP PUSH1 0x0 DUP6 DUP2 MSTORE PUSH1 0x9 PUSH1 0x20 MSTORE PUSH1 0x40 SWAP1 KECCAK256 DUP1 SLOAD PUSH1 0x1 PUSH1 0x1 PUSH1 0xA0 SHL SUB DUP9 AND SWAP2 SWAP1 PUSH2 0x18ED SWAP1 PUSH1 0x1 SWAP1 PUSH2 0x2A1C JUMP JUMPDEST DUP2 SLOAD DUP2 LT PUSH2 0x18FD JUMPI PUSH2 0x18FD PUSH2 0x286B JUMP JUMPDEST PUSH1 0x0 SWAP2 DUP3 MSTORE PUSH1 0x20 SWAP1 SWAP2 KECCAK256 PUSH1 0x1 PUSH1 0x4 SWAP1 SWAP3 MUL ADD ADD SLOAD PUSH1 0x1 PUSH1 0x1 PUSH1 0xA0 SHL SUB AND EQ ISZERO JUMPDEST ISZERO PUSH2 0x19B2 JUMPI PUSH1 0x0 DUP6 DUP2 MSTORE PUSH1 0x9 PUSH1 0x20 SWAP1 DUP2 MSTORE PUSH1 0x40 DUP1 DUP4 KECCAK256 DUP2 MLOAD PUSH1 0x80 DUP2 ADD DUP4 MSTORE PUSH1 0x1 PUSH1 0x1 PUSH1 0xA0 SHL SUB DUP1 DUP9 AND DUP3 MSTORE DUP12 DUP2 AND DUP3 DUP7 ADD SWAP1 DUP2 MSTORE TIMESTAMP SWAP5 DUP4 ADD SWAP5 DUP6 MSTORE PUSH1 0x60 DUP4 ADD DUP8 DUP2 MSTORE DUP5 SLOAD PUSH1 0x1 DUP2 DUP2 ADD DUP8 SSTORE SWAP6 DUP10 MSTORE SWAP7 SWAP1 SWAP8 KECCAK256 SWAP3 MLOAD PUSH1 0x4 SWAP1 SWAP7 MUL SWAP1 SWAP3 ADD DUP1 SLOAD SWAP6 DUP3 AND PUSH1 0x1 PUSH1 0x1 PUSH1 0xA0 SHL SUB NOT SWAP7 DUP8 AND OR DUP2 SSTORE SWAP2 MLOAD SWAP3 DUP3 ADD DUP1 SLOAD SWAP4 SWAP1 SWAP2 AND SWAP3 SWAP1 SWAP5 AND SWAP2 SWAP1 SWAP2 OR SWAP1 SWAP3 SSTORE MLOAD PUSH1 0x2 DUP3 ADD SSTORE SWAP1 MLOAD PUSH1 0x3 SWAP1 SWAP2 ADD SSTORE JUMPDEST POP JUMPDEST PUSH2 0x19BF DUP6 DUP6 DUP6 PUSH2 0x1F7B JUMP JUMPDEST SWAP6 SWAP5 POP POP POP POP POP JUMP JUMPDEST PUSH1 0x0 PUSH2 0x19D4 DUP4 DUP4 PUSH2 0xE76 JUMP JUMPDEST PUSH2 0x1A54 JUMPI PUSH1 0x0 DUP4 DUP2 MSTORE PUSH1 0x6 PUSH1 0x20 SWAP1 DUP2 MSTORE PUSH1 0x40 DUP1 DUP4 KECCAK256 PUSH1 0x1 PUSH1 0x1 PUSH1 0xA0 SHL SUB DUP7 AND DUP5 MSTORE SWAP1 SWAP2 MSTORE SWAP1 KECCAK256 DUP1 SLOAD PUSH1 0xFF NOT AND PUSH1 0x1 OR SWAP1 SSTORE PUSH2 0x1A0C CALLER SWAP1 JUMP JUMPDEST PUSH1 0x1 PUSH1 0x1 PUSH1 0xA0 SHL SUB AND DUP3 PUSH1 0x1 PUSH1 0x1 PUSH1 0xA0 SHL SUB AND DUP5 PUSH32 0x2F8788117E7EFF1D82E926EC794901D17C78024A50270940304540A733656F0D PUSH1 0x40 MLOAD PUSH1 0x40 MLOAD DUP1 SWAP2 SUB SWAP1 LOG4 POP PUSH1 0x1 PUSH2 0x5A3 JUMP JUMPDEST POP PUSH1 0x0 PUSH2 0x5A3 JUMP JUMPDEST PUSH2 0x66F DUP3 DUP3 PUSH1 0x40 MLOAD DUP1 PUSH1 0x20 ADD PUSH1 0x40 MSTORE DUP1 PUSH1 0x0 DUP2 MSTORE POP PUSH2 0x206F JUMP JUMPDEST PUSH1 0x0 PUSH2 0x1A82 DUP4 DUP4 PUSH2 0xE76 JUMP JUMPDEST ISZERO PUSH2 0x1A54 JUMPI PUSH1 0x0 DUP4 DUP2 MSTORE PUSH1 0x6 PUSH1 0x20 SWAP1 DUP2 MSTORE PUSH1 0x40 DUP1 DUP4 KECCAK256 PUSH1 0x1 PUSH1 0x1 PUSH1 0xA0 SHL SUB DUP7 AND DUP1 DUP6 MSTORE SWAP3 MSTORE DUP1 DUP4 KECCAK256 DUP1 SLOAD PUSH1 0xFF NOT AND SWAP1 SSTORE MLOAD CALLER SWAP3 DUP7 SWAP2 PUSH32 0xF6391F5C32D9C69D2A47EA670B442974B53935D1EDC7FD64EB21E047A839171B SWAP2 SWAP1 LOG4 POP PUSH1 0x1 PUSH2 0x5A3 JUMP JUMPDEST PUSH1 0x2 PUSH1 0x7 SLOAD SUB PUSH2 0x1B06 JUMPI PUSH1 0x40 MLOAD PUSH4 0x3EE5AEB5 PUSH1 0xE0 SHL DUP2 MSTORE PUSH1 0x4 ADD PUSH1 0x40 MLOAD DUP1 SWAP2 SUB SWAP1 REVERT JUMPDEST PUSH1 0x2 PUSH1 0x7 SSTORE JUMP JUMPDEST PUSH1 0x0 PUSH1 0x1 PUSH1 0x1 PUSH1 0xA0 SHL SUB DUP4 AND ISZERO DUP1 ISZERO SWAP1 PUSH2 0x1B6B JUMPI POP DUP3 PUSH1 0x1 PUSH1 0x1 PUSH1 0xA0 SHL SUB AND DUP5 PUSH1 0x1 PUSH1 0x1 PUSH1 0xA0 SHL SUB AND EQ DUP1 PUSH2 0x1B47 JUMPI POP PUSH2 0x1B47 DUP5 DUP5 PUSH2 0x135B JUMP JUMPDEST DUP1 PUSH2 0x1B6B JUMPI POP PUSH1 0x0 DUP3 DUP2 MSTORE PUSH1 0x4 PUSH1 0x20 MSTORE PUSH1 0x40 SWAP1 KECCAK256 SLOAD PUSH1 0x1 PUSH1 0x1 PUSH1 0xA0 SHL SUB DUP5 DUP2 AND SWAP2 AND EQ JUMPDEST SWAP5 SWAP4 POP POP POP POP JUMP JUMPDEST PUSH1 0x1 PUSH1 0x1 PUSH1 0xA0 SHL SUB DUP3 AND PUSH2 0x1B9D JUMPI PUSH1 0x40 MLOAD PUSH4 0x32505749 PUSH1 0xE1 SHL DUP2 MSTORE PUSH1 0x0 PUSH1 0x4 DUP3 ADD MSTORE PUSH1 0x24 ADD PUSH2 0x6BC JUMP JUMPDEST PUSH1 0x0 PUSH2 0x1BAB DUP4 DUP4 PUSH1 0x0 PUSH2 0x1627 JUMP JUMPDEST SWAP1 POP PUSH1 0x1 PUSH1 0x1 PUSH1 0xA0 SHL SUB DUP2 AND PUSH2 0x1BD7 JUMPI PUSH1 0x40 MLOAD PUSH4 0x7E273289 PUSH1 0xE0 SHL DUP2 MSTORE PUSH1 0x4 DUP2 ADD DUP4 SWAP1 MSTORE PUSH1 0x24 ADD PUSH2 0x6BC JUMP JUMPDEST DUP4 PUSH1 0x1 PUSH1 0x1 PUSH1 0xA0 SHL SUB AND DUP2 PUSH1 0x1 PUSH1 0x1 PUSH1 0xA0 SHL SUB AND EQ PUSH2 0x7BC JUMPI PUSH1 0x40 MLOAD PUSH4 0x64283D7B PUSH1 0xE0 SHL DUP2 MSTORE PUSH1 0x1 PUSH1 0x1 PUSH1 0xA0 SHL SUB DUP1 DUP7 AND PUSH1 0x4 DUP4 ADD MSTORE PUSH1 0x24 DUP3 ADD DUP5 SWAP1 MSTORE DUP3 AND PUSH1 0x44 DUP3 ADD MSTORE PUSH1 0x64 ADD PUSH2 0x6BC JUMP JUMPDEST PUSH1 0x1 PUSH1 0x1 PUSH1 0xA0 SHL SUB DUP3 AND PUSH2 0x1C55 JUMPI PUSH1 0x40 MLOAD PUSH4 0xB611743 PUSH1 0xE3 SHL DUP2 MSTORE PUSH1 0x1 PUSH1 0x1 PUSH1 0xA0 SHL SUB DUP4 AND PUSH1 0x4 DUP3 ADD MSTORE PUSH1 0x24 ADD PUSH2 0x6BC JUMP JUMPDEST PUSH1 0x1 PUSH1 0x1 PUSH1 0xA0 SHL SUB DUP4 DUP2 AND PUSH1 0x0 DUP2 DUP2 MSTORE PUSH1 0x5 PUSH1 0x20 SWAP1 DUP2 MSTORE PUSH1 0x40 DUP1 DUP4 KECCAK256 SWAP5 DUP8 AND DUP1 DUP5 MSTORE SWAP5 DUP3 MSTORE SWAP2 DUP3 SWAP1 KECCAK256 DUP1 SLOAD PUSH1 0xFF NOT AND DUP7 ISZERO ISZERO SWAP1 DUP2 OR SWAP1 SWAP2 SSTORE SWAP2 MLOAD SWAP2 DUP3 MSTORE PUSH32 0x17307EAB39AB6107E8899845AD3D59BD9653F200F220920489CA2B5937696C31 SWAP2 ADD PUSH1 0x40 MLOAD DUP1 SWAP2 SUB SWAP1 LOG3 POP POP POP JUMP JUMPDEST PUSH1 0x1 PUSH1 0x1 PUSH1 0xA0 SHL SUB DUP4 AND EXTCODESIZE ISZERO PUSH2 0xB94 JUMPI PUSH1 0x40 MLOAD PUSH4 0xA85BD01 PUSH1 0xE1 SHL DUP2 MSTORE PUSH1 0x1 PUSH1 0x1 PUSH1 0xA0 SHL SUB DUP5 AND SWAP1 PUSH4 0x150B7A02 SWAP1 PUSH2 0x1D04 SWAP1 DUP9 SWAP1 DUP9 SWAP1 DUP8 SWAP1 DUP8 SWAP1 PUSH1 0x4 ADD PUSH2 0x2A2F JUMP JUMPDEST PUSH1 0x20 PUSH1 0x40 MLOAD DUP1 DUP4 SUB DUP2 PUSH1 0x0 DUP8 GAS CALL SWAP3 POP POP POP DUP1 ISZERO PUSH2 0x1D3F JUMPI POP PUSH1 0x40 DUP1 MLOAD PUSH1 0x1F RETURNDATASIZE SWAP1 DUP2 ADD PUSH1 0x1F NOT AND DUP3 ADD SWAP1 SWAP3 MSTORE PUSH2 0x1D3C SWAP2 DUP2 ADD SWAP1 PUSH2 0x2A6C JUMP JUMPDEST PUSH1 0x1 JUMPDEST PUSH2 0x1DA8 JUMPI RETURNDATASIZE DUP1 DUP1 ISZERO PUSH2 0x1D6D JUMPI PUSH1 0x40 MLOAD SWAP2 POP PUSH1 0x1F NOT PUSH1 0x3F RETURNDATASIZE ADD AND DUP3 ADD PUSH1 0x40 MSTORE RETURNDATASIZE DUP3 MSTORE RETURNDATASIZE PUSH1 0x0 PUSH1 0x20 DUP5 ADD RETURNDATACOPY PUSH2 0x1D72 JUMP JUMPDEST PUSH1 0x60 SWAP2 POP JUMPDEST POP DUP1 MLOAD PUSH1 0x0 SUB PUSH2 0x1DA0 JUMPI PUSH1 0x40 MLOAD PUSH4 0x32505749 PUSH1 0xE1 SHL DUP2 MSTORE PUSH1 0x1 PUSH1 0x1 PUSH1 0xA0 SHL SUB DUP6 AND PUSH1 0x4 DUP3 ADD MSTORE PUSH1 0x24 ADD PUSH2 0x6BC JUMP JUMPDEST DUP1 MLOAD PUSH1 0x20 DUP3 ADD REVERT JUMPDEST PUSH1 0x1 PUSH1 0x1 PUSH1 0xE0 SHL SUB NOT DUP2 AND PUSH4 0xA85BD01 PUSH1 0xE1 SHL EQ PUSH2 0x1DE4 JUMPI PUSH1 0x40 MLOAD PUSH4 0x32505749 PUSH1 0xE1 SHL DUP2 MSTORE PUSH1 0x1 PUSH1 0x1 PUSH1 0xA0 SHL SUB DUP6 AND PUSH1 0x4 DUP3 ADD MSTORE PUSH1 0x24 ADD PUSH2 0x6BC JUMP JUMPDEST POP POP POP POP POP POP JUMP JUMPDEST PUSH1 0x0 PUSH1 0x1 PUSH1 0x1 PUSH1 0xE0 SHL SUB NOT DUP3 AND PUSH4 0x80AC58CD PUSH1 0xE0 SHL EQ DUP1 PUSH2 0x1E1D JUMPI POP PUSH1 0x1 PUSH1 0x1 PUSH1 0xE0 SHL SUB NOT DUP3 AND PUSH4 0x5B5E139F PUSH1 0xE0 SHL EQ JUMPDEST DUP1 PUSH2 0x5A3 JUMPI POP PUSH4 0x1FFC9A7 PUSH1 0xE0 SHL PUSH1 0x1 PUSH1 0x1 PUSH1 0xE0 SHL SUB NOT DUP4 AND EQ PUSH2 0x5A3 JUMP JUMPDEST DUP1 DUP1 PUSH2 0x1E50 JUMPI POP PUSH1 0x1 PUSH1 0x1 PUSH1 0xA0 SHL SUB DUP3 AND ISZERO ISZERO JUMPDEST ISZERO PUSH2 0x1F12 JUMPI PUSH1 0x0 PUSH2 0x1E60 DUP5 PUSH2 0x15BA JUMP JUMPDEST SWAP1 POP PUSH1 0x1 PUSH1 0x1 PUSH1 0xA0 SHL SUB DUP4 AND ISZERO DUP1 ISZERO SWAP1 PUSH2 0x1E8C JUMPI POP DUP3 PUSH1 0x1 PUSH1 0x1 PUSH1 0xA0 SHL SUB AND DUP2 PUSH1 0x1 PUSH1 0x1 PUSH1 0xA0 SHL SUB AND EQ ISZERO JUMPDEST DUP1 ISZERO PUSH2 0x1E9F JUMPI POP PUSH2 0x1E9D DUP2 DUP5 PUSH2 0x135B JUMP JUMPDEST ISZERO JUMPDEST ISZERO PUSH2 0x1EC8 JUMPI PUSH1 0x40 MLOAD PUSH4 0xA9FBF51F PUSH1 0xE0 SHL DUP2 MSTORE PUSH1 0x1 PUSH1 0x1 PUSH1 0xA0 SHL SUB DUP5 AND PUSH1 0x4 DUP3 ADD MSTORE PUSH1 0x24 ADD PUSH2 0x6BC JUMP JUMPDEST DUP2 ISZERO PUSH2 0x1F10 JUMPI DUP4 DUP6 PUSH1 0x1 PUSH1 0x1 PUSH1 0xA0 SHL SUB AND DUP3 PUSH1 0x1 PUSH1 0x1 PUSH1 0xA0 SHL SUB AND PUSH32 0x8C5BE1E5EBEC7D5BD14F71427D1E84F3DD0314C0F7B2291E5B200AC8C7C3B925 PUSH1 0x40 MLOAD PUSH1 0x40 MLOAD DUP1 SWAP2 SUB SWAP1 LOG4 JUMPDEST POP JUMPDEST POP POP PUSH1 0x0 SWAP1 DUP2 MSTORE PUSH1 0x4 PUSH1 0x20 MSTORE PUSH1 0x40 SWAP1 KECCAK256 DUP1 SLOAD PUSH1 0x1 PUSH1 0x1 PUSH1 0xA0 SHL SUB NOT AND PUSH1 0x1 PUSH1 0x1 PUSH1 0xA0 SHL SUB SWAP3 SWAP1 SWAP3 AND SWAP2 SWAP1 SWAP2 OR SWAP1 SSTORE JUMP JUMPDEST PUSH2 0x1F4C DUP3 DUP3 PUSH2 0xE76 JUMP JUMPDEST PUSH2 0x66F JUMPI PUSH1 0x40 MLOAD PUSH4 0xE2517D3F PUSH1 0xE0 SHL DUP2 MSTORE PUSH1 0x1 PUSH1 0x1 PUSH1 0xA0 SHL SUB DUP3 AND PUSH1 0x4 DUP3 ADD MSTORE PUSH1 0x24 DUP2 ADD DUP4 SWAP1 MSTORE PUSH1 0x44 ADD PUSH2 0x6BC JUMP JUMPDEST PUSH1 0x0 DUP1 PUSH2 0x1F87 DUP5 PUSH2 0x160C JUMP JUMPDEST SWAP1 POP PUSH1 0x1 PUSH1 0x1 PUSH1 0xA0 SHL SUB DUP4 AND ISZERO PUSH2 0x1FA3 JUMPI PUSH2 0x1FA3 DUP2 DUP5 DUP7 PUSH2 0x2087 JUMP JUMPDEST PUSH1 0x1 PUSH1 0x1 PUSH1 0xA0 SHL SUB DUP2 AND ISZERO PUSH2 0x1FE1 JUMPI PUSH2 0x1FC0 PUSH1 0x0 DUP6 PUSH1 0x0 DUP1 PUSH2 0x1E3C JUMP JUMPDEST PUSH1 0x1 PUSH1 0x1 PUSH1 0xA0 SHL SUB DUP2 AND PUSH1 0x0 SWAP1 DUP2 MSTORE PUSH1 0x3 PUSH1 0x20 MSTORE PUSH1 0x40 SWAP1 KECCAK256 DUP1 SLOAD PUSH1 0x0 NOT ADD SWAP1 SSTORE JUMPDEST PUSH1 0x1 PUSH1 0x1 PUSH1 0xA0 SHL SUB DUP6 AND ISZERO PUSH2 0x2010 JUMPI PUSH1 0x1 PUSH1 0x1 PUSH1 0xA0 SHL SUB DUP6 AND PUSH1 0x0 SWAP1 DUP2 MSTORE PUSH1 0x3 PUSH1 0x20 MSTORE PUSH1 0x40 SWAP1 KECCAK256 DUP1 SLOAD PUSH1 0x1 ADD SWAP1 SSTORE JUMPDEST PUSH1 0x0 DUP5 DUP2 MSTORE PUSH1 0x2 PUSH1 0x20 MSTORE PUSH1 0x40 DUP1 DUP3 KECCAK256 DUP1 SLOAD PUSH1 0x1 PUSH1 0x1 PUSH1 0xA0 SHL SUB NOT AND PUSH1 0x1 PUSH1 0x1 PUSH1 0xA0 SHL SUB DUP10 DUP2 AND SWAP2 DUP3 OR SWAP1 SWAP3 SSTORE SWAP2 MLOAD DUP8 SWAP4 SWAP2 DUP6 AND SWAP2 PUSH32 0xDDF252AD1BE2C89B69C2B068FC378DAA952BA7F163C4A11628F55A4DF523B3EF SWAP2 LOG4 SWAP5 SWAP4 POP POP POP POP JUMP JUMPDEST PUSH2 0x2079 DUP4 DUP4 PUSH2 0x20EB JUMP JUMPDEST PUSH2 0xA80 CALLER PUSH1 0x0 DUP6 DUP6 DUP6 PUSH2 0x1CC2 JUMP JUMPDEST PUSH2 0x2092 DUP4 DUP4 DUP4 PUSH2 0x1B0D JUMP JUMPDEST PUSH2 0xA80 JUMPI PUSH1 0x1 PUSH1 0x1 PUSH1 0xA0 SHL SUB DUP4 AND PUSH2 0x20C0 JUMPI PUSH1 0x40 MLOAD PUSH4 0x7E273289 PUSH1 0xE0 SHL DUP2 MSTORE PUSH1 0x4 DUP2 ADD DUP3 SWAP1 MSTORE PUSH1 0x24 ADD PUSH2 0x6BC JUMP JUMPDEST PUSH1 0x40 MLOAD PUSH4 0x177E802F PUSH1 0xE0 SHL DUP2 MSTORE PUSH1 0x1 PUSH1 0x1 PUSH1 0xA0 SHL SUB DUP4 AND PUSH1 0x4 DUP3 ADD MSTORE PUSH1 0x24 DUP2 ADD DUP3 SWAP1 MSTORE PUSH1 0x44 ADD PUSH2 0x6BC JUMP JUMPDEST PUSH1 0x1 PUSH1 0x1 PUSH1 0xA0 SHL SUB DUP3 AND PUSH2 0x2115 JUMPI PUSH1 0x40 MLOAD PUSH4 0x32505749 PUSH1 0xE1 SHL DUP2 MSTORE PUSH1 0x0 PUSH1 0x4 DUP3 ADD MSTORE PUSH1 0x24 ADD PUSH2 0x6BC JUMP JUMPDEST PUSH1 0x0 PUSH2 0x2123 DUP4 DUP4 PUSH1 0x0 PUSH2 0x1627 JUMP JUMPDEST SWAP1 POP PUSH1 0x1 PUSH1 0x1 PUSH1 0xA0 SHL SUB DUP2 AND ISZERO PUSH2 0xA80 JUMPI PUSH1 0x40 MLOAD PUSH4 0x39E35637 PUSH1 0xE1 SHL DUP2 MSTORE PUSH1 0x0 PUSH1 0x4 DUP3 ADD MSTORE PUSH1 0x24 ADD PUSH2 0x6BC JUMP JUMPDEST PUSH1 0x1 PUSH1 0x1 PUSH1 0xE0 SHL SUB NOT DUP2 AND DUP2 EQ PUSH2 0x1609 JUMPI PUSH1 0x0 DUP1 REVERT JUMPDEST PUSH1 0x0 PUSH1 0x20 DUP3 DUP5 SUB SLT ISZERO PUSH2 0x2178 JUMPI PUSH1 0x0 DUP1 REVERT JUMPDEST DUP2 CALLDATALOAD PUSH2 0x2183 DUP2 PUSH2 0x2150 JUMP JUMPDEST SWAP4 SWAP3 POP POP POP JUMP JUMPDEST PUSH1 0x0 DUP2 MLOAD DUP1 DUP5 MSTORE PUSH1 0x0 JUMPDEST DUP2 DUP2 LT ISZERO PUSH2 0x21B0 JUMPI PUSH1 0x20 DUP2 DUP6 ADD DUP2 ADD MLOAD DUP7 DUP4 ADD DUP3 ADD MSTORE ADD PUSH2 0x2194 JUMP JUMPDEST POP PUSH1 0x0 PUSH1 0x20 DUP3 DUP7 ADD ADD MSTORE PUSH1 0x20 PUSH1 0x1F NOT PUSH1 0x1F DUP4 ADD AND DUP6 ADD ADD SWAP2 POP POP SWAP3 SWAP2 POP POP JUMP JUMPDEST PUSH1 0x20 DUP2 MSTORE PUSH1 0x0 PUSH2 0x2183 PUSH1 0x20 DUP4 ADD DUP5 PUSH2 0x218A JUMP JUMPDEST PUSH1 0x0 PUSH1 0x20 DUP3 DUP5 SUB SLT ISZERO PUSH2 0x21F5 JUMPI PUSH1 0x0 DUP1 REVERT JUMPDEST POP CALLDATALOAD SWAP2 SWAP1 POP JUMP JUMPDEST DUP1 CALLDATALOAD PUSH1 0x1 PUSH1 0x1 PUSH1 0xA0 SHL SUB DUP2 AND DUP2 EQ PUSH2 0x2213 JUMPI PUSH1 0x0 DUP1 REVERT JUMPDEST SWAP2 SWAP1 POP JUMP JUMPDEST PUSH1 0x0 DUP1 PUSH1 0x40 DUP4 DUP6 SUB SLT ISZERO PUSH2 0x222B JUMPI PUSH1 0x0 DUP1 REVERT JUMPDEST PUSH2 0x2234 DUP4 PUSH2 0x21FC JUMP JUMPDEST SWAP5 PUSH1 0x20 SWAP4 SWAP1 SWAP4 ADD CALLDATALOAD SWAP4 POP POP POP JUMP JUMPDEST PUSH1 0x0 DUP1 PUSH1 0x40 DUP4 DUP6 SUB SLT ISZERO PUSH2 0x2255 JUMPI PUSH1 0x0 DUP1 REVERT JUMPDEST DUP3 CALLDATALOAD SWAP2 POP PUSH1 0x20 DUP4 ADD CALLDATALOAD PUSH1 0x4 DUP2 LT PUSH2 0x226B JUMPI PUSH1 0x0 DUP1 REVERT JUMPDEST DUP1 SWAP2 POP POP SWAP3 POP SWAP3 SWAP1 POP JUMP JUMPDEST PUSH1 0x0 DUP1 PUSH1 0x0 PUSH1 0x60 DUP5 DUP7 SUB SLT ISZERO PUSH2 0x228B JUMPI PUSH1 0x0 DUP1 REVERT JUMPDEST PUSH2 0x2294 DUP5 PUSH2 0x21FC JUMP JUMPDEST SWAP3 POP PUSH2 0x22A2 PUSH1 0x20 DUP6 ADD PUSH2 0x21FC JUMP JUMPDEST SWAP2 POP PUSH1 0x40 DUP5 ADD CALLDATALOAD SWAP1 POP SWAP3 POP SWAP3 POP SWAP3 JUMP JUMPDEST PUSH1 0x0 PUSH1 0x20 DUP3 DUP5 SUB SLT ISZERO PUSH2 0x22C4 JUMPI PUSH1 0x0 DUP1 REVERT JUMPDEST PUSH2 0x2183 DUP3 PUSH2 0x21FC JUMP JUMPDEST PUSH1 0x20 DUP1 DUP3 MSTORE DUP3 MLOAD DUP3 DUP3 ADD DUP2 SWAP1 MSTORE PUSH1 0x0 SWAP2 SWAP1 DUP5 DUP3 ADD SWAP1 PUSH1 0x40 DUP6 ADD SWAP1 DUP5 JUMPDEST DUP2 DUP2 LT ISZERO PUSH2 0x2305 JUMPI DUP4 MLOAD DUP4 MSTORE SWAP3 DUP5 ADD SWAP3 SWAP2 DUP5 ADD SWAP2 PUSH1 0x1 ADD PUSH2 0x22E9 JUMP JUMPDEST POP SWAP1 SWAP7 SWAP6 POP POP POP POP POP POP JUMP JUMPDEST PUSH1 0x0 DUP1 PUSH1 0x40 DUP4 DUP6 SUB SLT ISZERO PUSH2 0x2324 JUMPI PUSH1 0x0 DUP1 REVERT JUMPDEST DUP3 CALLDATALOAD SWAP2 POP PUSH2 0x2334 PUSH1 0x20 DUP5 ADD PUSH2 0x21FC JUMP JUMPDEST SWAP1 POP SWAP3 POP SWAP3 SWAP1 POP JUMP JUMPDEST PUSH4 0x4E487B71 PUSH1 0xE0 SHL PUSH1 0x0 MSTORE PUSH1 0x41 PUSH1 0x4 MSTORE PUSH1 0x24 PUSH1 0x0 REVERT JUMPDEST PUSH1 0x0 PUSH8 0xFFFFFFFFFFFFFFFF DUP1 DUP5 GT ISZERO PUSH2 0x236E JUMPI PUSH2 0x236E PUSH2 0x233D JUMP JUMPDEST PUSH1 0x40 MLOAD PUSH1 0x1F DUP6 ADD PUSH1 0x1F NOT SWAP1 DUP2 AND PUSH1 0x3F ADD AND DUP2 ADD SWAP1 DUP3 DUP3 GT DUP2 DUP4 LT OR ISZERO PUSH2 0x2396 JUMPI PUSH2 0x2396 PUSH2 0x233D JUMP JUMPDEST DUP2 PUSH1 0x40 MSTORE DUP1 SWAP4 POP DUP6 DUP2 MSTORE DUP7 DUP7 DUP7 ADD GT ISZERO PUSH2 0x23AF JUMPI PUSH1 0x0 DUP1 REVERT JUMPDEST DUP6 DUP6 PUSH1 0x20 DUP4 ADD CALLDATACOPY PUSH1 0x0 PUSH1 0x20 DUP8 DUP4 ADD ADD MSTORE POP POP POP SWAP4 SWAP3 POP POP POP JUMP JUMPDEST PUSH1 0x0 DUP3 PUSH1 0x1F DUP4 ADD SLT PUSH2 0x23DA JUMPI PUSH1 0x0 DUP1 REVERT JUMPDEST PUSH2 0x2183 DUP4 DUP4 CALLDATALOAD PUSH1 0x20 DUP6 ADD PUSH2 0x2353 JUMP JUMPDEST PUSH1 0x0 DUP1 PUSH1 0x0 DUP1 PUSH1 0x80 DUP6 DUP8 SUB SLT ISZERO PUSH2 0x23FF JUMPI PUSH1 0x0 DUP1 REVERT JUMPDEST PUSH2 0x2408 DUP6 PUSH2 0x21FC JUMP JUMPDEST SWAP4 POP PUSH1 0x20 DUP6 ADD CALLDATALOAD PUSH8 0xFFFFFFFFFFFFFFFF DUP1 DUP3 GT ISZERO PUSH2 0x2425 JUMPI PUSH1 0x0 DUP1 REVERT JUMPDEST PUSH2 0x2431 DUP9 DUP4 DUP10 ADD PUSH2 0x23C9 JUMP JUMPDEST SWAP5 POP PUSH1 0x40 DUP8 ADD CALLDATALOAD SWAP2 POP DUP1 DUP3 GT ISZERO PUSH2 0x2447 JUMPI PUSH1 0x0 DUP1 REVERT JUMPDEST POP PUSH2 0x2454 DUP8 DUP3 DUP9 ADD PUSH2 0x23C9 JUMP JUMPDEST SWAP5 SWAP8 SWAP4 SWAP7 POP SWAP4 SWAP5 PUSH1 0x60 ADD CALLDATALOAD SWAP4 POP POP POP JUMP JUMPDEST DUP1 CALLDATALOAD DUP1 ISZERO ISZERO DUP2 EQ PUSH2 0x2213 JUMPI PUSH1 0x0 DUP1 REVERT JUMPDEST PUSH1 0x0 DUP1 PUSH1 0x0 PUSH1 0x40 DUP5 DUP7 SUB SLT ISZERO PUSH2 0x248A JUMPI PUSH1 0x0 DUP1 REVERT JUMPDEST DUP4 CALLDATALOAD PUSH8 0xFFFFFFFFFFFFFFFF DUP1 DUP3 GT ISZERO PUSH2 0x24A2 JUMPI PUSH1 0x0 DUP1 REVERT JUMPDEST DUP2 DUP7 ADD SWAP2 POP DUP7 PUSH1 0x1F DUP4 ADD SLT PUSH2 0x24B6 JUMPI PUSH1 0x0 DUP1 REVERT JUMPDEST DUP2 CALLDATALOAD DUP2 DUP2 GT ISZERO PUSH2 0x24C5 JUMPI PUSH1 0x0 DUP1 REVERT JUMPDEST DUP8 PUSH1 0x20 DUP3 PUSH1 0x5 SHL DUP6 ADD ADD GT ISZERO PUSH2 0x24DA JUMPI PUSH1 0x0 DUP1 REVERT JUMPDEST PUSH1 0x20 SWAP3 DUP4 ADD SWAP6 POP SWAP4 POP PUSH2 0x24F0 SWAP2 DUP7 ADD SWAP1 POP PUSH2 0x2465 JUMP JUMPDEST SWAP1 POP SWAP3 POP SWAP3 POP SWAP3 JUMP JUMPDEST PUSH1 0x0 DUP1 PUSH1 0x40 DUP4 DUP6 SUB SLT ISZERO PUSH2 0x250C JUMPI PUSH1 0x0 DUP1 REVERT JUMPDEST DUP3 CALLDATALOAD SWAP2 POP PUSH1 0x20 DUP4 ADD CALLDATALOAD PUSH8 0xFFFFFFFFFFFFFFFF DUP2 GT ISZERO PUSH2 0x252A JUMPI PUSH1 0x0 DUP1 REVERT JUMPDEST PUSH2 0x2536 DUP6 DUP3 DUP7 ADD PUSH2 0x23C9 JUMP JUMPDEST SWAP2 POP POP SWAP3 POP SWAP3 SWAP1 POP JUMP JUMPDEST PUSH1 0x0 DUP1 PUSH1 0x40 DUP4 DUP6 SUB SLT ISZERO PUSH2 0x2553 JUMPI PUSH1 0x0 DUP1 REVERT JUMPDEST DUP3 CALLDATALOAD SWAP2 POP PUSH2 0x2334 PUSH1 0x20 DUP5 ADD PUSH2 0x2465 JUMP JUMPDEST PUSH1 0x0 DUP1 PUSH1 0x40 DUP4 DUP6 SUB SLT ISZERO PUSH2 0x2576 JUMPI PUSH1 0x0 DUP1 REVERT JUMPDEST POP POP DUP1 CALLDATALOAD SWAP3 PUSH1 0x20 SWAP1 SWAP2 ADD CALLDATALOAD SWAP2 POP JUMP JUMPDEST PUSH1 0x20 DUP1 DUP3 MSTORE DUP3 MLOAD DUP3 DUP3 ADD DUP2 SWAP1 MSTORE PUSH1 0x0 SWAP2 SWAP1 PUSH1 0x40 SWAP1 DUP2 DUP6 ADD SWAP1 DUP7 DUP5 ADD DUP6 JUMPDEST DUP3 DUP2 LT ISZERO PUSH2 0x25E8 JUMPI DUP2 MLOAD DUP1 MLOAD PUSH1 0x1 PUSH1 0x1 PUSH1 0xA0 SHL SUB SWAP1 DUP2 AND DUP7 MSTORE DUP8 DUP3 ADD MLOAD AND DUP8 DUP7 ADD MSTORE DUP6 DUP2 ADD MLOAD DUP7 DUP7 ADD MSTORE PUSH1 0x60 SWAP1 DUP2 ADD MLOAD SWAP1 DUP6 ADD MSTORE PUSH1 0x80 SWAP1 SWAP4 ADD SWAP3 SWAP1 DUP6 ADD SWAP1 PUSH1 0x1 ADD PUSH2 0x25A2 JUMP JUMPDEST POP SWAP2 SWAP8 SWAP7 POP POP POP POP POP POP POP JUMP JUMPDEST PUSH1 0x0 DUP1 PUSH1 0x40 DUP4 DUP6 SUB SLT ISZERO PUSH2 0x2608 JUMPI PUSH1 0x0 DUP1 REVERT JUMPDEST PUSH2 0x2611 DUP4 PUSH2 0x21FC JUMP JUMPDEST SWAP2 POP PUSH2 0x2334 PUSH1 0x20 DUP5 ADD PUSH2 0x2465 JUMP JUMPDEST PUSH1 0x0 DUP1 PUSH1 0x0 DUP1 PUSH1 0x80 DUP6 DUP8 SUB SLT ISZERO PUSH2 0x2635 JUMPI PUSH1 0x0 DUP1 REVERT JUMPDEST PUSH2 0x263E DUP6 PUSH2 0x21FC JUMP JUMPDEST SWAP4 POP PUSH2 0x264C PUSH1 0x20 DUP7 ADD PUSH2 0x21FC JUMP JUMPDEST SWAP4 SWAP7 SWAP4 SWAP6 POP POP POP POP PUSH1 0x40 DUP3 ADD CALLDATALOAD SWAP2 PUSH1 0x60 ADD CALLDATALOAD SWAP1 JUMP JUMPDEST PUSH1 0x0 DUP1 PUSH1 0x0 DUP1 PUSH1 0x80 DUP6 DUP8 SUB SLT ISZERO PUSH2 0x2677 JUMPI PUSH1 0x0 DUP1 REVERT JUMPDEST PUSH2 0x2680 DUP6 PUSH2 0x21FC JUMP JUMPDEST SWAP4 POP PUSH2 0x268E PUSH1 0x20 DUP7 ADD PUSH2 0x21FC JUMP JUMPDEST SWAP3 POP PUSH1 0x40 DUP6 ADD CALLDATALOAD SWAP2 POP PUSH1 0x60 DUP6 ADD CALLDATALOAD PUSH8 0xFFFFFFFFFFFFFFFF DUP2 GT ISZERO PUSH2 0x26B1 JUMPI PUSH1 0x0 DUP1 REVERT JUMPDEST DUP6 ADD PUSH1 0x1F DUP2 ADD DUP8 SGT PUSH2 0x26C2 JUMPI PUSH1 0x0 DUP1 REVERT JUMPDEST PUSH2 0x26D1 DUP8 DUP3 CALLDATALOAD PUSH1 0x20 DUP5 ADD PUSH2 0x2353 JUMP JUMPDEST SWAP2 POP POP SWAP3 SWAP6 SWAP2 SWAP5 POP SWAP3 POP JUMP JUMPDEST PUSH4 0x4E487B71 PUSH1 0xE0 SHL PUSH1 0x0 MSTORE PUSH1 0x21 PUSH1 0x4 MSTORE PUSH1 0x24 PUSH1 0x0 REVERT JUMPDEST PUSH1 0x4 DUP2 LT PUSH2 0x2711 JUMPI PUSH4 0x4E487B71 PUSH1 0xE0 SHL PUSH1 0x0 MSTORE PUSH1 0x21 PUSH1 0x4 MSTORE PUSH1 0x24 PUSH1 0x0 REVERT JUMPDEST SWAP1 MSTORE JUMP JUMPDEST PUSH1 0xC0 DUP2 MSTORE PUSH1 0x0 PUSH2 0x2728 PUSH1 0xC0 DUP4 ADD DUP10 PUSH2 0x218A JUMP JUMPDEST DUP8 ISZERO ISZERO PUSH1 0x20 DUP5 ADD MSTORE PUSH2 0x273D PUSH1 0x40 DUP5 ADD DUP9 PUSH2 0x26F3 JUMP JUMPDEST DUP6 PUSH1 0x60 DUP5 ADD MSTORE DUP5 PUSH1 0x80 DUP5 ADD MSTORE DUP3 DUP2 SUB PUSH1 0xA0 DUP5 ADD MSTORE PUSH2 0x275B DUP2 DUP6 PUSH2 0x218A JUMP JUMPDEST SWAP10 SWAP9 POP POP POP POP POP POP POP POP POP JUMP JUMPDEST PUSH1 0x0 DUP1 PUSH1 0x40 DUP4 DUP6 SUB SLT ISZERO PUSH2 0x277B JUMPI PUSH1 0x0 DUP1 REVERT JUMPDEST PUSH2 0x2784 DUP4 PUSH2 0x21FC JUMP JUMPDEST SWAP2 POP PUSH2 0x2334 PUSH1 0x20 DUP5 ADD PUSH2 0x21FC JUMP JUMPDEST PUSH1 0xE0 DUP2 MSTORE PUSH1 0x0 PUSH2 0x27A5 PUSH1 0xE0 DUP4 ADD DUP11 PUSH2 0x218A JUMP JUMPDEST DUP9 ISZERO ISZERO PUSH1 0x20 DUP5 ADD MSTORE PUSH2 0x27BA PUSH1 0x40 DUP5 ADD DUP10 PUSH2 0x26F3 JUMP JUMPDEST DUP7 PUSH1 0x60 DUP5 ADD MSTORE DUP6 PUSH1 0x80 DUP5 ADD MSTORE DUP3 DUP2 SUB PUSH1 0xA0 DUP5 ADD MSTORE PUSH2 0x27D8 DUP2 DUP7 PUSH2 0x218A JUMP JUMPDEST SWAP2 POP POP PUSH1 0x1 DUP1 PUSH1 0xA0 SHL SUB DUP4 AND PUSH1 0xC0 DUP4 ADD MSTORE SWAP9 SWAP8 POP POP POP POP POP POP POP POP JUMP JUMPDEST PUSH1 0x1 DUP2 DUP2 SHR SWAP1 DUP3 AND DUP1 PUSH2 0x2809 JUMPI PUSH1 0x7F DUP3 AND SWAP2 POP JUMPDEST PUSH1 0x20 DUP3 LT DUP2 SUB PUSH2 0x2829 JUMPI PUSH4 0x4E487B71 PUSH1 0xE0 SHL PUSH1 0x0 MSTORE PUSH1 0x22 PUSH1 0x4 MSTORE PUSH1 0x24 PUSH1 0x0 REVERT JUMPDEST POP SWAP2 SWAP1 POP JUMP JUMPDEST PUSH1 0x20 DUP1 DUP3 MSTORE PUSH1 0x14 SWAP1 DUP3 ADD MSTORE PUSH20 0x105CDCD95D08191BD95CC81B9BDD08195E1A5CDD PUSH1 0x62 SHL PUSH1 0x40 DUP3 ADD MSTORE PUSH1 0x60 ADD SWAP1 JUMP JUMPDEST PUSH1 0x20 DUP2 ADD PUSH2 0x5A3 DUP3 DUP5 PUSH2 0x26F3 JUMP JUMPDEST PUSH4 0x4E487B71 PUSH1 0xE0 SHL PUSH1 0x0 MSTORE PUSH1 0x32 PUSH1 0x4 MSTORE PUSH1 0x24 PUSH1 0x0 REVERT JUMPDEST PUSH4 0x4E487B71 PUSH1 0xE0 SHL PUSH1 0x0 MSTORE PUSH1 0x11 PUSH1 0x4 MSTORE PUSH1 0x24 PUSH1 0x0 REVERT JUMPDEST PUSH1 0x0 PUSH1 0x1 DUP3 ADD PUSH2 0x28A9 JUMPI PUSH2 0x28A9 PUSH2 0x2881 JUMP JUMPDEST POP PUSH1 0x1 ADD SWAP1 JUMP JUMPDEST PUSH1 0x20 DUP1 DUP3 MSTORE PUSH1 0x16 SWAP1 DUP3 ADD MSTORE PUSH22 0x149958DA5C1A595B9D081B9BDD081D995C9A599A5959 PUSH1 0x52 SHL PUSH1 0x40 DUP3 ADD MSTORE PUSH1 0x60 ADD SWAP1 JUMP JUMPDEST PUSH1 0x1F DUP3 GT ISZERO PUSH2 0xA80 JUMPI PUSH1 0x0 DUP2 DUP2 MSTORE PUSH1 0x20 DUP2 KECCAK256 PUSH1 0x1F DUP6 ADD PUSH1 0x5 SHR DUP2 ADD PUSH1 0x20 DUP7 LT ISZERO PUSH2 0x2907 JUMPI POP DUP1 JUMPDEST PUSH1 0x1F DUP6 ADD PUSH1 0x5 SHR DUP3 ADD SWAP2 POP JUMPDEST DUP2 DUP2 LT ISZERO PUSH2 0x1DE4 JUMPI DUP3 DUP2 SSTORE PUSH1 0x1 ADD PUSH2 0x2913 JUMP JUMPDEST DUP2 MLOAD PUSH8 0xFFFFFFFFFFFFFFFF DUP2 GT ISZERO PUSH2 0x2940 JUMPI PUSH2 0x2940 PUSH2 0x233D JUMP JUMPDEST PUSH2 0x2954 DUP2 PUSH2 0x294E DUP5 SLOAD PUSH2 0x27F5 JUMP JUMPDEST DUP5 PUSH2 0x28E0 JUMP JUMPDEST PUSH1 0x20 DUP1 PUSH1 0x1F DUP4 GT PUSH1 0x1 DUP2 EQ PUSH2 0x2989 JUMPI PUSH1 0x0 DUP5 ISZERO PUSH2 0x2971 JUMPI POP DUP6 DUP4 ADD MLOAD JUMPDEST PUSH1 0x0 NOT PUSH1 0x3 DUP7 SWAP1 SHL SHR NOT AND PUSH1 0x1 DUP6 SWAP1 SHL OR DUP6 SSTORE PUSH2 0x1DE4 JUMP JUMPDEST PUSH1 0x0 DUP6 DUP2 MSTORE PUSH1 0x20 DUP2 KECCAK256 PUSH1 0x1F NOT DUP7 AND SWAP2 JUMPDEST DUP3 DUP2 LT ISZERO PUSH2 0x29B8 JUMPI DUP9 DUP7 ADD MLOAD DUP3 SSTORE SWAP5 DUP5 ADD SWAP5 PUSH1 0x1 SWAP1 SWAP2 ADD SWAP1 DUP5 ADD PUSH2 0x2999 JUMP JUMPDEST POP DUP6 DUP3 LT ISZERO PUSH2 0x29D6 JUMPI DUP8 DUP6 ADD MLOAD PUSH1 0x0 NOT PUSH1 0x3 DUP9 SWAP1 SHL PUSH1 0xF8 AND SHR NOT AND DUP2 SSTORE JUMPDEST POP POP POP POP POP PUSH1 0x1 SWAP1 DUP2 SHL ADD SWAP1 SSTORE POP JUMP JUMPDEST PUSH1 0x60 DUP2 MSTORE PUSH1 0x0 PUSH2 0x29F9 PUSH1 0x60 DUP4 ADD DUP7 PUSH2 0x218A JUMP JUMPDEST DUP3 DUP2 SUB PUSH1 0x20 DUP5 ADD MSTORE PUSH2 0x2A0B DUP2 DUP7 PUSH2 0x218A JUMP JUMPDEST SWAP2 POP POP DUP3 PUSH1 0x40 DUP4 ADD MSTORE SWAP5 SWAP4 POP POP POP POP JUMP JUMPDEST DUP2 DUP2 SUB DUP2 DUP2 GT ISZERO PUSH2 0x5A3 JUMPI PUSH2 0x5A3 PUSH2 0x2881 JUMP JUMPDEST PUSH1 0x1 PUSH1 0x1 PUSH1 0xA0 SHL SUB DUP6 DUP2 AND DUP3 MSTORE DUP5 AND PUSH1 0x20 DUP3 ADD MSTORE PUSH1 0x40 DUP2 ADD DUP4 SWAP1 MSTORE PUSH1 0x80 PUSH1 0x60 DUP3 ADD DUP2 SWAP1 MSTORE PUSH1 0x0 SWAP1 PUSH2 0x2A62 SWAP1 DUP4 ADD DUP5 PUSH2 0x218A JUMP JUMPDEST SWAP7 SWAP6 POP POP POP POP POP POP JUMP JUMPDEST PUSH1 0x0 PUSH1 0x20 DUP3 DUP5 SUB SLT ISZERO PUSH2 0x2A7E JUMPI PUSH1 0x0 DUP1 REVERT JUMPDEST DUP2 MLOAD PUSH2 0x2183 DUP2 PUSH2 0x2150 JUMP INVALID PREVRANDAO 0x2A SWAP5 CALL LOG1 STATICCALL 0xC7 SWAP11 RETURN 0x28 JUMP 0xAF 0x2A PUSH5 0xF63648CFA2 0xEF EXTCODESIZE SWAP9 PUSH2 0xA5B 0xB7 0xCB 0xEC 0x4C 0xEE PUSH10 0x85A49807205CE4D35509 0x2E CREATE2 0xA8 LOG1 DUP16 JUMP 0xE8 SWAP2 EXTCODECOPY DELEGATECALL LOG2 ADD 0xFB 0xE2 DUP8 DUP3 JUMPDEST MULMOD JUMP SWAP4 0xC2 OR PUSH22 0xA2646970667358221220982696500633A43B26A86205 SHR SWAP15 0xD2 0xD7 EXP PUSH27 0x146B4591A2A75F15B747BC89F3DC64736F6C634300081400330000 "},"methodIdentifiers":{"ADMIN_ROLE()":"75b238fc","COMPLIANCE_ROLE()":"062d3bd7","DEFAULT_ADMIN_ROLE()":"a217fddf","MINTER_ROLE()":"d5391393","approve(address,uint256)":"095ea7b3","assetDetails(uint256)":"c3967528","balanceOf(address)":"70a08231","batchVerifyUsers(address[],bool)":"45e2a06c","getApproved(uint256)":"081812fc","getAssetInfo(uint256)":"f637d950","getAssetsByOwner(address)":"276f0934","getRoleAdmin(bytes32)":"248a9ca3","getTransferHistory(uint256)":"8bb27d02","grantRole(bytes32,address)":"2f2ff15d","hasRole(bytes32,address)":"91d14854","isApprovedForAll(address,address)":"e985e9c5","name()":"06fdde03","ownerOf(uint256)":"6352211e","registerAsset(address,string,string,uint256)":"30e4592c","renounceRole(bytes32,address)":"36568abe","revokeRole(bytes32,address)":"d547741f","safeTransferFrom(address,address,uint256)":"42842e0e","safeTransferFrom(address,address,uint256,bytes)":"b88d4fde","setApprovalForAll(address,bool)":"a22cb465","setAssetStatus(uint256,uint8)":"158aaead","setCompliance(uint256,bool)":"54aa5f3c","setUserVerification(address,bool)":"997f524a","supportsInterface(bytes4)":"01ffc9a7","symbol()":"95d89b41","tokenURI(uint256)":"c87b56dd","transferFrom(address,address,uint256)":"23b872dd","transferHistory(uint256,uint256)":"dedaff54","transferWithPrice(address,address,uint256,uint256)":"a0695feb","updateMetadata(uint256,string)":"53c8388e","updateValuation(uint256,uint256)":"6dc0fc6b","verifiedUsers(address)":"e35fe366"}}}}}